:020000040800F2
:10000000900B002035020008E5320008913000080E
:10001000E1320008471B0008A53C00080000000072
:100020000000000000000000000000000D38000883
:100030004B1B000800000000E33700080F380008E1
:100040004F0200084F0200084F0200084F0200084C
:100050004F0200084F0200084F0200084F0200083C
:100060004F0200084F0200084F0200084F0200082C
:100070004F0200084F0200084F0200084F0200081C
:100080004F0200084F0200084F0200084F0200080C
:100090004F0200084F0200084F0200084F020008FC
:1000A0004F0200084F0200084F0200084F020008EC
:1000B0004F0200084F020008813800084F02000874
:1000C0004F0200084F0200084F0200084F020008CC
:1000D0004F020008853C0008953C00084F020008CC
:1000E0004F0200084F0200084F02000800F002F81B
:1000F00000F090F80AA090E8000C82448344AAF132
:100100000107DA4501D100F085F8AFF2090EBAE82F
:100110000F0013F0010F18BFFB1A43F0010318473B
:10012000984B0000B84B0000103A24BF78C878C143
:10013000FAD8520724BF30C830C144BF04680C60ED
:10014000704700000023002400250026103A28BF35
:1001500078C1FBD8520728BF30C148BF0B60704739
:100160006E2900F0A381702900F0E582662903F072
:10017000A586652903F0A286672903F09F86612979
:1001800003F09E8603681B0A28BF41F0800169299D
:1001900000F05081642900F04D81752900F04A81FA
:1001A0006F2900F07282782900F0B182E92900F00D
:1001B0000D82E42900F00A82F52900F00782EF2978
:1001C00000F06F82F82900F0B0820368DB0928BFD5
:1001D00041F08001632900F0B387732900F0B887EC
:1001E000E32900F0C387F32900F0C8870020704797
:1001F0001FB501F019F804000020002103F048FEAB
:10020000401C60600020002103F02CFEE0601FBD58
:1002100010B510BD00F0DAFF1146FFF7E9FF03F05B
:1002200003FE01F0B7F803B4FFF7F2FF03BC01F0DF
:10023000BBF800000948804709480047FEE7FEE791
:10024000FEE7FEE7FEE7FEE7FEE7FEE7FEE7FEE786
:1002500004480549054A064B704700007D380008F0
:10026000ED00000890050020900B00209007002072
:10027000900700201CB50C46064B7B446946009055
:10028000204600F02CF904460020694600F03AF9B7
:1002900020461CBD870200004FF0000200B5134647
:1002A00094469646203922BFA0E80C50A0E80C5096
:1002B000B1F12001BFF4F7AF090728BFA0E80C5047
:1002C00048BF0CC05DF804EB890028BF40F8042B40
:1002D00008BF704748BF20F8022B11F0804F18BFAD
:1002E00000F8012B704700004FF0013C50F8042B40
:1002F00051F8043B9A4221D1A2EB0C03934313EA39
:10030000CC1317D150F8042B51F8043B9A4215D165
:10031000A2EB0C03934313EACC130BD150F8042B3C
:1003200051F8043B9A4209D1A2EB0C03934313EA20
:10033000CC13DBD04FF00000704700BFD01A01BAD9
:10034000B1FA81F101F0180122FA01F0CB40C1F1BC
:100350002001DBB2C0B2C01A2CFA01F3D11A9143CA
:1003600011EAC311E6D1704770477047704770B506
:10037000044685690068C10601D5302600E02026C4
:10038000C00707D070BDD4E9012130469047206AEC
:10039000401C20626D1EF6D570BD70B5044685699F
:1003A0000078C00707D170BDD4E901212020904713
:1003B000206A401C20626D1EF6D570BD09684A0592
:1003C00001D540B27047C905FCD500B27047096835
:1003D0004A0501D5C0B27047C905FCD580B2704747
:1003E00070B50C460546012A05D02878800600D550
:1003F000EA69002302E0012305E05B1C934202D27C
:10040000E05C0028F9D1A869E618C01AA861286A3A
:10041000184428622846FFF7AAFF04E0D5E9012125
:1004200014F8010B9047B442F8D32846FFF7B5FF04
:1004300070BD00002DE9F0410646002410687529C2
:10044000314616A510D0FFF7B9FF002802DA404266
:1004500013A507E031688A0701D512A502E0490714
:1004600004D511A5012401E0FFF7B1FF00210A2204
:1004700006F1240709E0B0FBF2FCB0FBF2F302FB4B
:100480001C00303078541846491C0028F3D123460C
:100490002A463046BDE8F04100F061BA0000000095
:1004A0002D0000002B0000002000000011680268F1
:1004B000006A530501D508700AE0D30501D508800C
:1004C00006E0130603D5C217C1E9000200E0086088
:1004D0000120704701694A1C02610878704700B525
:1004E0008FB0CDE901310021059105497944CDE96D
:1004F00003101146684600F029F90FB000BD000056
:10050000E5FFFFFF0A6802F8010B0A607047000070
:100510002DE9FF5F15468A460446DFF8AC80F844B3
:100520000027D8E900103E46CDE9001010E03AF867
:1005300016106A4602A800F025FE411C07D021785B
:10054000890603D5E269391891420DD80744761C13
:100550002078800602D5E069B84205DDAE42E6DBD0
:100560003AF816000028E2D1A069C01BA06120461D
:10057000FFF7FDFED8E90010CDE90010002017E0DC
:100580003AF818106A4602A800F0FCFDB0F1FF3FEF
:1005900081460BD000250DF1080B05E0D4E90121BF
:1005A0001BF8050090476D1C4D45F7D308F101007D
:1005B000B0428046E4DB206A384420622046FFF7E0
:1005C000ECFEBDE8FF9F00009A4600002DE9F041D7
:1005D0008046D21D22F007020025D2E90002F5294B
:1005E00015A614D0011E72F1000106DA0023D0EB2B
:1005F000030063EB020211A608E0D8F800108B0795
:1006000001D50FA602E0490701D50EA60125114626
:10061000002408F1240704E000F05CF930323A5578
:10062000641C50EA0102F7D12B463246214640466F
:10063000BDE8F04100F093B9000000002D0000007B
:100640002B0000002000000030B4002100F1240441
:1006500008E002F00705D208303542EA4372DB08B1
:100660006554491C52EA0305F3D10468002310A223
:10067000250707D5A40600D421B1C46901230DA222
:10068000641EC46130BC00F06AB910B5044621464E
:100690001068FFF79CFE02462046BDE8104000238C
:1006A000D2E7D21D22F00701D1E90023CCE70000F8
:1006B0000000000030000000F0B40D46018809057C
:1006C00002D5214C7C4402E01F4C7C440E340021B6
:1006D00000F1240608E002F00F071209E75D42EA84
:1006E00003721B097754491C52EA0307F3D10278BD
:1006F0000023120704D5702D06D009B1022311344E
:100700002246F0BC00F02BB901231034F8E770B595
:1007100004460D4621461068FFF759FE0246294659
:100720002046BDE870400023C6E7D21D22F0070333
:10073000D3E90023C0E70368126843F02003036095
:100740000823C3610023B7E7FC4400002DE9F05FF4
:10075000894604464FF0000ADFF874B1FB44C0F844
:1007600020A02046E1688847002874D0252806D0BC
:10077000D4E901219047206A401C2062F1E700265D
:100780005F462046E16888472028054607DB312D73
:1007900005D2781910F8200C08B10643F1E7B0072C
:1007A00001D526F00406C4F81CA00027C4F818A040
:1007B0002A2D09D0284603F0A7FA38B304EB87089E
:1007C000303DC8F8185019E059F8041B204604EBD6
:1007D00087029161E1688847012F054618D1E069D9
:1007E000002820DA26F020061DE0D8F8180000EBDB
:1007F000800005EB40003038C8F818002046E1685A
:100800008847054603F080FA0028EED1012F0AD070
:100810002E2D08D12046E16888477F1C0546022F0F
:1008200046F02006C4DBA069002803DA404246F007
:100830000106A061F00701D026F010066C2D0BD048
:10084000682D09D04C2D39D06A2D35D0742D35D076
:100850007A2D33D016E038E0E1682F4620468847ED
:10086000B842054609D16C2F26D04FF48060E1686C
:10087000064320468847054604E06C2F1AD04FF403
:10088000807006430DB3A5F14100192802D8203528
:1008900046F400664A462946204626604E46FFF743
:1008A0005FFC80B101280BD0F61D26F0070000F197
:1008B000080956E74020E4E78020D8E70020D6E783
:1008C00006F104094DE7284652E7206ABDE8F09F8B
:1008D0008C44000030B5B0F10A024FEA900E71F17D
:1008E00000034EEA817EB0EB0E0061EB91014FEA0E
:1008F000101E4EEA017E10EB0E0041EB11114FEA83
:10090000102E4EEA016E10EB0E0041EB11214FEA62
:10091000104E4EEA014E10EB0E0041EB1141401813
:1009200041F100014FEAD00040EA41704FEAD101A5
:1009300010EB80054FEA810444EA907444EB010413
:100940006D1944EB0404521BA3414FF0000348BF50
:100950000A3200D530BD401C41F1000130BD2DE907
:10096000F0470D4699469246044600F12408016876
:10097000880604D5E06921F01001216000E0012023
:10098000A84201DD471B00E00027A1697A1902EBAC
:100990000900081AA0612078C00602D42046FFF79B
:1009A000E6FC002608E0D4E901211AF80600904789
:1009B000206A401C761C20624E45F4DB2078C0067D
:1009C0000AD52046FFF7D3FC06E0D4E90121302008
:1009D0009047206A401C2062381EA7F10107F4DC12
:1009E00007E0D4E9012118F805009047206A401C6F
:1009F0002062281EA5F10105F3DC2046FFF7CDFC9F
:100A00002078000602D50220BDE8F0870120FBE730
:100A100070472DE9FF4F0C461E464FF0FF378BB055
:100A2000D2E90001DDF860800A908A46C1F30A55D8
:100A300005B93D46002108464FF00000BAF1000F0D
:100A400000F4400005DA00EB80004FF4400101EAB9
:100A500050004FEA9059B9F1010F00DDB9460A98EC
:100A600050EA4A000ED044F61050A5F2FF35454337
:100A70002F14B8F1000F1ED07542291E1EDDC9F1DA
:100A800000021CE0B8F1010F4FF0000001D030214E
:100A900003E0F24305E02154401CB042FBDB30464A
:100AA0000022002121540B99C1F80880C1E90020DF
:100AB0000FB0BDE8F08FBD1B6D1CDEE74A4600DAC3
:100AC000694206A800F0F4FB06AB93E8070003AB0D
:100AD00083E8070050460A9900F06DFC8DE8070096
:100AE000A0F500501F3800900398002D0ADD42F257
:100AF0001F014A460844002303A90390684600F0FA
:100B0000D6FE09E0A0F500504A461F38002303A98D
:100B10000390684600F0E0FE8DE807000004000C3A
:100B200003D04FF0FF30410800E01046B8F1000F4D
:100B300003D00022009215461EE0751E05D4FFF773
:100B4000C9FE303262556D1EF9D5B3460122084305
:100B500002D000227F1C04E02078302801D100223E
:100B60007F1E002A099784D01DE0112D07DAFFF7B8
:100B7000B1FE303262556D1C50EA0102F5D10843D6
:100B800002D00098C8B10EE00021681E05E0235C89
:100B9000625C63542254401E491C8142F7DBAB4621
:100BA000A81B401E0990002004F80B000B98099A1E
:100BB000C0F80880C0E9002B7AE711264FF0000842
:100BC00057E72DE9F04F88460446D21D22F0070171
:100BD00091B0D1E90001CDE90A0103F065F80246C0
:100BE0000B98C00F01D02D2007E02068810701D5A8
:100BF0002B2002E0202101EAC000032A099001D045
:100C0000072A05DB03464146204600F011FB0BE1B5
:100C10002078800601D5E06900E00620B8F1650F74
:100C2000814606D0B8F1660F18D0B8F1670F70D1C1
:100C300031E00020B9F1110F009001DB112301E038
:100C400009F101030AAA01A90CA8FFF7E2FEDDE9F8
:100C50000C70002609F10105834647E001204B4650
:100C600000904FF000470AAA01A90CA8FFF7D1FE97
:100C7000DDE90DB00C995D46002610B909F10100BF
:100C80000D18B9EB050003D4C0F1FF3609F10105D9
:100C9000A5EB09002BE0B9F1010F01DA4FF00109D2
:100CA0000020B9F1110F0090484601DD112300E04A
:100CB00003460AAA01A90CA8FFF7ABFEDDE90C70F8
:100CC0004D4600268346207800070AD4AB4500DA5B
:100CD0005D4601A8012D04DD411911F8011C3029E0
:100CE00007D04F4502DA17F1040F04DA01208246DB
:100CF0000FE06D1EEEE7002F02DCED1B3E4403E02B
:100D0000781CA84200DD7D1CB81B00F1010A4FF0E1
:100D100000472078000703D4AA4501DB4FF0FF3AD3
:100D20000021B7F1004F0DF143088DF8431024D096
:100D300002202B23002F01DA7F422D230A21021EDD
:100D4000A0F1010000DC5FB197FBF1FC97FBF1F231
:100D500001FB1C7C17460CF1300C08F801CDEEE7C6
:100D6000A8F1010003702188090501D5452100E0A3
:100D70006521A0F1010800F8011C09980FA9A1EB59
:100D80000807FF1D00B10120411901EBEA70A169BC
:100D90003844081A401EA0612078C00602D42046BC
:100DA000FFF7E5FA099828B1D4E901219047206AB4
:100DB000401C20622078C00622D52046FFF7D7FAD3
:100DC0001EE0002E04DBB34502DD01A8805D00E0DB
:100DD0003020D4E901219047206A401C2062761C13
:100DE000AAF101005FEA000A0AD100F01DFAC0680A
:100DF0000168405CD4E901219047206A401C2062D0
:100E0000281EA5F10105DCDC07E0D4E9012118F872
:100E1000010B9047206A401C2062381EA7F1010791
:100E2000F3DC2046FFF7B9FA032011B041E60000D9
:100E30002DE9F04F04460D46D21D22F0070089B07F
:100E4000D0E900974846394602F02EFF0246F80FD7
:100E500001D02D2307E02068810701D52B2302E074
:100E6000202101EAC0038DF820300BB1012000E001
:100E70000020032A824601D0072A04DB29462046A7
:100E800000F0D6F93FE12078800601D40D2500E07E
:100E9000E569C7F30A560D2D49DA00214FEA175BC1
:100EA00008464FF00000002F00F4400007DA00EB86
:100EB00080004FF4400100EBD07001EA6000811522
:100EC000012901DD4FF0FF3100224FEA850CBCF112
:100ED000180F06D31346ACF118004FF08052C240F1
:100EE00003E04FF4801323FA0CF30CF10C0CBCF16B
:100EF000200F04D3ACF1200C09FA0CF001E007FA42
:100F00000CF000294FF0004801DD18B90FE00ED1B8
:100F100040450CD319EB02095F4121B9404502D18C
:100F20009F4329EA0209BBEB175F00D0761C20889B
:100F3000000502D57B48784402E07A4878441938A5
:100F400008AA302302F80A30037C0AF10101002EBE
:100F50000AF1020A53546A4602DC4FF0300101E004
:100F60004FF031014FF001088DF8001002D0A6F2C9
:100F7000FF3603E059EA470100D06B4E002D02DC3A
:100F80002178090704D54FF002082E218DF80110B1
:100F9000C44600210BE0C7F303433F01C35C491C77
:100FA0006D1E02F80830052908F1010801DA002D4C
:100FB000F1DC00210CE000EB1973491C1B786D1E5D
:100FC000082902F808304FEA091908F1010801DA86
:100FD000002DF0DC21688B0602D516E0A8F101088F
:100FE000E04505DD02EB080313F8013C302BF5D09A
:100FF000B8F1000F09DD02EB080313F8013C2E2BBA
:1010000003D1090701D4A8F10108002D05DD3E2117
:1010100002F808106D1E08F10108407C002E02F84D
:10102000080008F1010804DA2D20764202F80800D1
:1010300002E02B2002F808000A214FF47A70864261
:1010400008F101080BDB96FBF0F3303302F80830AF
:1010500096FBF0F308F1010800FB136601E0642E33
:101060000CDB642096FBF0F3303302F8083096FB7B
:10107000F0F308F1010800FB136601E00A2E06DB1D
:1010800096FBF1F0303002F8080008F1010896FBF9
:10109000F1F001FB1060303002F80800A16908F19E
:1010A000010808EB050202EB0A00081AA06120788B
:1010B000C00602D42046FFF75AF9216A08AE01EBB8
:1010C0000A00206204E0D4E9012116F8010B9047E0
:1010D000BAF1010AF7D22078C00602D52046FFF700
:1010E00046F96E4609E016F8010B3E280FD0D4E908
:1010F00001219047206A401C2062B8F10108F2D219
:101100002046FFF74AF909B00320BDE8F08F206AB6
:101110002844206203E0D4E90121302090476D1E6D
:10112000EBD3F8E7D63C000002FCFFFF10B54369A3
:1011300013B1AFF3008001E0FFF752F9012010BDB9
:10114000127800F124010A7000224A700122EDE7B2
:1011500011684FF0FF32E9E710B5436913B1AFF3FF
:10116000008001E0FFF7D4F9012010BD128800F1E2
:10117000240182840022C2840122EDE711684FF02D
:10118000FF32E9E770B516460C46054600F044F814
:10119000036893F80101012806D0FF2C0FD8185DD1
:1011A00068B101202C7070BDD3F80701324621468A
:1011B00003F2071303442846BDE8704018474FF078
:1011C000FF3070BD00487047300500207546FFF7BE
:1011D000F9FFAE4605006946534620F007008546F4
:1011E00018B020B5FFF734F8BDE820404FF00006F6
:1011F0004FF000074FF000084FF0000B21F00701FF
:10120000AC46ACE8C009ACE8C009ACE8C009ACE841
:10121000C0098D467047000010B500F005F8001DAC
:1012200010BD00BF6D2C0000004870475005002025
:101230002DE9F0411F46044603260168072A01F400
:10124000006004DB08B116A505E016A503E008B1AF
:1012500015A500E015A521F010002060A069C01EB2
:10126000A0610FB1401EA0612046FFF780F84FB18A
:10127000D4E9012138469047206A401C2062C01CF6
:10128000206206E0206AFAE7D4E9012115F8010B93
:101290009047761EF8D22046FFF77FF8BDE8F08130
:1012A0004E414E006E616E00494E4600696E66000A
:1012B0002DE9F047814616468AB0354878440DC876
:1012C0008DE80D0032487844801C03AC0DC884E8DA
:1012D0000D0041F69B300844372190FBF1F290FB62
:1012E000F1F5A5F1800501FB12041B3C02D5644217
:1012F000012000E00020DFF898A080460027FA4493
:10130000AAF1BE0A0EE0E0070AD03246684607EBB3
:10131000470101230AEB810100F0DEFA8DE80700A6
:1013200064107F1C002CEED1194F7F44AE3F19E0B2
:10133000E80715D007EB04100DF1180A90E80E002D
:101340008AE80E00C068F04201D198190890324630
:10135000012306A903A800F0BFFA03AB83E8070046
:101360006D10641C002DE3D14FF001033246694635
:10137000B8F1000F03A802D000F099FA01E000F0E4
:10138000ABFAC9E90001C9F808200AB0BDE8F08746
:10139000E039000010B50446AFF300802046BDE8F8
:1013A0001040FEF740BF000001491820ABBEFEE729
:1013B0002600020070475FEA400C08BF91F0000F62
:1013C0004FEA8C234FEAC12243EA51514FEA1C50A5
:1013D00018BF00F5F0404FEA300018BF41F000415F
:1013E0005FEA6C5C00F02980BCF1FF3F08BF40F071
:1013F00080407047130C06BF12044FF0100C4FF0E2
:10140000000C130E04BF12020CF1080C130F04BFE2
:1014100012010CF1040C930F04BF92000CF1020CAA
:10142000D30F04BF52000CF1010C11464FF0000223
:10143000A0F11F00A0EB0C00704711F0004F08BF97
:10144000704731F000413FF4D5AF0B0C06BF0904E3
:101450004FF0100C4FF0000C0B0E04BF09020CF102
:10146000080C0B0F04BF09010CF1040C8B0F04BF17
:1014700089000CF1020CCB0F04BF49000CF1010CE8
:10148000CCF12003A0EB0C0022FA03F302FA0CF2D9
:1014900041EA030100F10100704720F07F4C80EA2F
:1014A000030023F07F47ACEB070303F57C5300F008
:1014B000004003F1FF032DE980494FEA154B09B4C1
:1014C0004FEA144325EA0B4E24EA03480FF20426A0
:1014D00006EB132749083E785FEA320203FB0667F2
:1014E000C7F5000707FB06F64FEA54374FEAD64622
:1014F00006F1020607FB066CCCF1005C4FEA1C47C4
:101500002CEA074C07FB06F40CFB06F504EB15462A
:101510004FEA961634BF00204FF000404FEAD13713
:1015200006FB07FC4FEA1C4C0CFB0BF7D21B03FB22
:101530000CF761EB07010CFB0EF7B0EB074072EB09
:1015400017420CFB08F734BFA2EB0742B2EB07428D
:1015500061EB17414FEA0C444FEA910706FB07FC89
:101560004FEA1C4C0CFB0BF7B0EBC74072EB573249
:1015700003FB0CF734BFA2EBC742B2EBC74261EBEF
:1015800057310CFB0EF7B0EBC70072EB57720CFB38
:1015900008F734BFA2EBC702B2EBC70261EB577189
:1015A000039F4FEA816141EA921104EBCC044FEAB8
:1015B000D1374FEA826206FB07FC42EA90124FEAFB
:1015C00080604FEA1C4C0CFB0BF7D21B03FB0CF7A3
:1015D00061EB07010CFB0EF7B0EB074072EB174213
:1015E0000CFB08F734BFA2EB0742B2EB074261EBFA
:1015F00017414FEA8C554FEA910704EB9C2406FBF8
:1016000007FC4FEA1C4C0CFB0BF7B0EBC74072EB2E
:10161000573203FB0CF734BFA2EBC742B2EBC74211
:1016200061EB57310CFB0EF7B0EBC70072EB577252
:101630000CFB08F734BFA2EBC702B2EBC70261EBA9
:10164000577115EB4C254FEA816141EA92114FEA3F
:1016500082624FEAD13742EA901206FB07FC44F15E
:1016600000044FEA80604FEA1C4C0CFB0BF7D21BC6
:1016700003FB0CF761EB07010CFB0EF7B0EB074027
:1016800072EB17420CFB08F734BFA2EB0742B2EB38
:10169000074261EB174115EB1C154FEA813141EA16
:1016A00092414FEA823242EA90424FEA80304FEA5A
:1016B0000C7644F1000448EA03434EEA0B484FF02D
:1016C000000EB2EB080C71EB030724BF62463946EB
:1016D0004EEB0E0E4FF0000B0018524149414BEB00
:1016E0000B0BB2EB080C71EB03077BF1000B24BF73
:1016F000624639464EEB0E0E4FF0000B0018524179
:1017000049414BEB0B0BB2EB080C71EB03077BF180
:10171000000B24BF624639464EEB0E0E51EA02071B
:1017200018BF46F0010616EB0E7655F1000254F193
:10173000000103D5BDE88901BDE80088BDE8890145
:10174000BDE80048B619524141EB0101A3F1010384
:10175000704780807F7E7D7C7B7A7978777676751E
:101760007473727171706F6E6E6D6C6C6B6A6A6996
:101770006868676666656464636362616160605F30
:101780005F5E5E5D5D5C5C5B5B5A5A5959585857A9
:101790005756565555555454535352525251515011
:1017A00050504F4F4F4E4E4D4D4D4C4C4C4B4B4B64
:1017B0004A4A4A49494948484847474747464646AA
:1017C00045454544444444434343434242424241E5
:1017D0004141002B9C4630D477002BD01CB54FEAFA
:1017E000370703B44FF010004FF01001BAF1000FAB
:1017F00006D0BCF1000FDCBF40F0080040F008014B
:101800004FF000000FBCBDE810400BF1010BBBF125
:10181000010F08BF5FEA170722BF12F1010211F1A1
:1018200001014FF0004143F1000300F0004043EAA2
:1018300000007047F9D35708D0E746EA064613F18F
:10184000400F4FEA16461FDD13F1200FDFBF16438E
:101850000A46002120335B42BED0C3F1200746EA8E
:10186000064602FA07F74FEA164646EA0706C3F1AC
:10187000200722FA03F201FA07F721FA03F14FF0E9
:10188000000342EA0702A7E746EA020646EA0646DE
:101890004FEA164646EA0106BCBF46EA0646360C43
:1018A0004FF000034FF000024FF0000194E72DE9E4
:1018B000804C9A46934670B491E8380007C831EAE4
:1018C000400C48BF34EA430C03D5FFF7E6FDFFF7B1
:1018D00080FFF0BCBDE8008C2DE9804C9A46934611
:1018E00070B491E8380007C810F0804F08BF13F0BB
:1018F000804F03D100F005F8FFF76BFFF0BCBDE8A7
:10190000008C20F07F4780EA030023F07F4C07EB38
:101910000C03A3F57C5300F00040A3F1FE0392F00A
:10192000000F00F0B38095F0000F00F077802DE9F4
:1019300001494FEA11404FEA144621EA004800FBF2
:1019400006FC24EA064708FB06F607FB08F800FB3E
:1019500007F718EB06484CEB164C4FEA124B18EB06
:1019600007484FEA15464CEB174022EA0B4E0BFB9B
:1019700006FC25EA06470EFB06F607FB0EFE0BFBF0
:1019800007F71EEB064E4CEB164C4FF000061EEB15
:10199000074E4CEB174B18EB0B0840F1000018EB0F
:1019A0000E0B58EB000840F100008F1A4FF00001B9
:1019B0003CBFC943661B14BFB5EB040C00213CBF00
:1019C000C943F61B4FEA17444EEA8E0E27EA044538
:1019D0004FEA1C4704FB07622CEA074C05FB07F79C
:1019E0000CFB05F604FB0CFC16EB074642EB17421A
:1019F00016EB0C4642EB1C421BEB060658EB0202B0
:101A0000414146EA9E0601D5BDE80189B619524119
:101A100041EB0101A3F10103BDE801894FEA14453F
:101A20004FEA114724EA054621EA074C05FB07F473
:101A300006FB07F70CFB06F105FB0CFC11EB07415D
:101A400044EB17444FEA124711EB0C4144EB1C44A2
:101A500022EA074C05FB07F206FB07F70CFB06F62C
:101A600005FB0CFC16EB074642EB174216EB0C4647
:101A700042EB1C456A1854F1000148BF7047B61983
:101A8000524141EB0101A3F10103704795F0000FB2
:101A900037D04FEA11424FEA144721EA024624EABE
:101AA000074C02FB07F106FB07F70CFB06F402FBF1
:101AB0000CFC14EB074441EB17414FEA154714EBBC
:101AC0000C4441EB1C4125EA074C02FB07F506FBE1
:101AD00007F70CFB06F602FB0CFC16EB074645EB82
:101AE000174516EB0C4645EB1C42121951F100014B
:101AF00048BF7047B619524141EB0101A3F1010300
:101B000070474FEA14454FEA114724EA054621EA97
:101B1000074C05FB07F106FB07F70CFB06F24FF03D
:101B2000000605FB0CFC12EB074241EB174112EBE0
:101B30000C4251EB1C4148BF7047921841EB010128
:101B4000A3F10103704700BFFEE7704772B600BF04
:101B5000FEE70146002291F82100022808D0042067
:101B6000886300BF002081F8200000BF012070477B
:101B70000868006820F00E000B68186008680068AC
:101B800020F001000B68186091F840300120984067
:101B9000CB6B5860012081F8210000BF002081F844
:101BA000200000BF1046E2E770B50446002594F817
:101BB0002100022803D00420A063012548E020680A
:101BC000006820F00E00216808602068006820F09E
:101BD0000100216808601F492068884201D1012066
:101BE00026E01C4914312068884201D110201FE0F2
:101BF000184928312068884201D1801518E015491C
:101C00003C312068884201D1801411E011495031E3
:101C10002068884202D14FF4803009E00D496431D8
:101C20002068884202D14FF4801001E04FF08070AC
:101C3000084908394860012084F8210000BF0020CD
:101C400084F8200000BF606B10B12046616B8847AC
:101C5000284670BD0800024070B5044600F0A6F9A1
:101C600006462546681C10B104480078054400BFAC
:101C700000F09CF9801BA842FAD370BD0800002038
:101C80002DE9F8470346002294466EE14FF0010823
:101C900008FA02F4D1F8008008EA0400A0427DD1DD
:101CA000DFF8DCA2D1F80480A8EB0A09D0453AD0CD
:101CB00014DCB8F1030F50D009DCB8F1000F31D0BB
:101CC000B8F1010F1CD0B8F1020F49D120E0B8F1F2
:101CD000110F18D0B8F1120F42D11EE0B9F5881FCC
:101CE00025D006DCB9F5803F20D0B9F5801F37D16B
:101CF0001AE0B9F5001F18D0B9F5041F30D117E06C
:101D0000D1F80CC02DE0D1F80C8008F1040C28E0CB
:101D1000D1F80C8008F1080C23E0D1F80C8008F110
:101D20000C0C1EE000BF00BF00BF00BF00BF00BF23
:101D3000D1F80880B8F1000F02D14FF0040C0BE08D
:101D4000D1F80880B8F1010F03D14FF0080C1C61E5
:101D500002E04FF0080C5C6103E04FF0000C00E083
:101D600000BF00BFFF2801D8984601E003F1040836
:101D70004646FF2802D84FEA820803E0A2F108088D
:101D80004FEA88084746D6F800804FF00F0909FA55
:101D900007F928EA09080CFA07F900E088E048EAA0
:101DA0000908C6F80080D1F8048008F08058B8F11E
:101DB000805F7DD100BFDFF8CC81D8F8188048F073
:101DC0000108DFF8C091C9F81880C846D8F8188013
:101DD00008F00108CDF8008000BF00BF4FEAB93815
:101DE0004FEA920958F829504FEA82784FEA187959
:101DF0004FF00F0808FA09F825EA0805DFF888818E
:101E0000434502D14FF0000816E0DFF880814345DA
:101E100002D14FF001080FE0DFF87481434502D191
:101E20004FF0020808E0DFF86C81434502D14FF023
:101E3000030801E04FF004084FEA82794FEA19796C
:101E400008FA09F848EA0505DFF84C814FEA9209DB
:101E500048F82950D1F8048008F48018B8F5801F9C
:101E60000AD1DFF83881D8F8008048EA0008DFF8A6
:101E70002C91C9F8008009E0DFF82081D8F80080B3
:101E800028EA0008DFF81491C9F80080D1F804802E
:101E900008F40018B8F5001F10D1DFF8008108F130
:101EA0000408D8F8008048EA0008DFF8F09000E065
:101EB0005AE009F10409C9F800800DE0DFF8DC8080
:101EC00008F10408D8F8008028EA0008DFF8CC9070
:101ED00009F10409C9F80080D1F8048008F4003839
:101EE000B8F5003F0ED1DFF8B480A8F10408D8F8A7
:101EF000008048EA0008DFF8A490A9F10409C9F8B5
:101F000000800DE0DFF89480A8F10408D8F8008084
:101F100028EA0008DFF88490A9F10409C9F80080D4
:101F2000D1F8048008F48038B8F5803F0ED1DFF88E
:101F30006C80A8F10808D8F8008048EA0008DFF8AB
:101F40005C90A9F10809C9F800800DE0DFF84C8029
:101F5000A8F10808D8F8008028EA0008DFF83C90CB
:101F6000A9F10809C9F80080521CD1F8008028FAAC
:101F700002F8B8F1000F7FF489AEBDE8F8870000E1
:101F8000000011100010024000080140000C014048
:101F90000010014000140140080001400804014005
:101FA0000AB1016101E00B04036170470148006858
:101FB00070470000000000200348006803490978CA
:101FC0000844014908607047000000200800002014
:101FD00010B50848006840F010000649086003206A
:101FE00000F0A8F80F2000F007F800F02BF8002010
:101FF00010BD00000020024070B504460E48007875
:102000004FF47A71B1FBF0F00C490968B1FBF0F5BF
:10201000284600F0F9FB08B1012070BD102C07D252
:1020200000222146501E00F047F80548046001E0F8
:102030000120F2E70020F0E7080000200C0000205B
:102040000400002008B500BF1148806940F001007D
:102050000F4988610846806900F00100009000BFC8
:1020600000BF00BF0846C06940F08050C861084604
:10207000C06900F08050009000BF00BF00BF05495C
:10208000486820F0E06040F00070486000BF08BD84
:10209000001002400000014001460846002809DB0C
:1020A00000F01F0301229A4043099B0003F1E02343
:1020B000C3F8002100BF70472DE9F05F80460D4650
:1020C0001646002701F004FE074639462A463346E5
:1020D00001F00700C0F1070ABAF1040F02D94FF06E
:1020E000040A01E0C0F1070AD14600F1040ABAF17E
:1020F000070F02D24FF0000A01E0A0F1030AD44614
:102100004FF0010A0AFA09FAAAF1010A0AEA020AD8
:102110000AFA0CFA4FF0010B0BFA0CFBABF1010BB6
:102120000BEA030B4AEA0B042146404601F0D8FDB6
:10213000BDE8F09F00BF00F00702064B19684FF69C
:10214000FF031940044B0B4343EA0221014B196082
:1021500000BF70470CED00E00000FA0570B50446C2
:102160000D460CB9012070BD5A48006800F0070008
:10217000A8420ED25748006820F00700284355496E
:1021800008600846006800F00700A84201D001205E
:10219000E9E7207800F0020002281DD1207800F045
:1021A0000400042805D14C48406840F4E0604A49E6
:1021B0004860207800F00800082805D146484068AB
:1021C00040F46050444948604348406820F0F000C3
:1021D000A168084340494860207800F0010078B3C6
:1021E0006068012806D13C48006800F4003090B9CE
:1021F0000120B8E76068022806D13748006800F07F
:10220000007040B90120AEE73348006800F00200DA
:1022100008B90120A7E73048406820F00300616852
:1022200008432D494860FFF7C1FE064609E0FFF765
:10223000BDFE801B41F28831884202D9032092E71B
:1022400007E02548406800F00C006168B0EB810FA2
:10225000EDD12048006800F00700A8420ED91D48C3
:10226000006820F0070028431A4908600846006803
:1022700000F00700A84201D0012074E7207800F0A8
:102280000400042807D11448406820F4E060E168A5
:10229000084311494860207800F00800082808D158
:1022A0000D48406820F46050216940EAC1000A49A5
:1022B000486000F03FF808494968C1F30311074A34
:1022C000515CC8400649086006480068FFF794FE64
:1022D000002048E70020024000100240D63E0008DF
:1022E0000C00002004000020014800687047000036
:1022F0000C00002000B5FFF7F7FF04494968C1F35F
:102300000221034A515CC84000BD00000010024099
:10231000E63E000800B5FFF7E7FF04494968C1F34E
:10232000C221034A515CC84000BD000000100240B9
:10233000E63E000870B500210022002400230020A2
:10234000134D696801F00C05F5B1042D02D0082D7C
:1023500019D101E00F4819E00F4DC1F38346AB5D81
:1023600001F4803555B10A4D6D68C5F340450B4EFB
:10237000725D084D5D43B5FBF2F402E0084D03FBCE
:1023800005F4204602E000BF024800BF00BF70BD58
:102390000010024000127A00C43E0008D43E00083B
:1023A00000093D00F8B504460CB90120F8BD2078BD
:1023B00000F00100002878D0F848406800F00C00D8
:1023C00004280CD0F548406800F00C00082811D112
:1023D000F248406800F48030B0F5803F0AD1EF4801
:1023E000006800F4003000285FD0606800285CD1ED
:1023F0000120DBE700BF6068B0F5803F06D1E74809
:10240000006840F48030E549086028E0606858B909
:10241000E248006820F48030E0490860084600681F
:1024200020F4802008601AE06068B0F5A02F0BD17E
:10243000DA48006840F48020D849086008460068FF
:1024400040F4803008600AE0D448006820F480300E
:10245000D24908600846006820F48020086000BF68
:10246000606888B1FFF7A2FD054606E0FFF79EFD14
:10247000401B642801D9032098E7C848006800F48D
:1024800000300028F2D010E0FFF790FD054606E08E
:10249000FFF78CFD401B642801D9032086E7BF4865
:1024A000006800F400300028F2D1207800F002002B
:1024B000022857D1B948406800F00C0050B1B74825
:1024C000406800F00C00082818D1B448406800F4B7
:1024D000803098B9B148006800F0020020B120694E
:1024E000012801D0012061E7AC48006820F0F80025
:1024F000616940EAC100A949086033E02069E8B198
:102500000120A7490860FFF751FD054606E0FFF7E7
:102510004DFD401B022801D9032047E79F48006872
:1025200000F002000028F2D09C48006820F0F8007B
:10253000616940EAC1009949086013E000209849A8
:102540000860FFF733FD054606E0FFF72FFD401B4F
:10255000022801D9032029E79048006800F0020012
:102560000028F2D1207800F0080008282DD1A069B9
:10257000B8B101208B490860FFF718FD054606E059
:10258000FFF714FD401B022801D903200EE7834802
:10259000406A00F002000028F2D0012001F022F988
:1025A00013E000207F490860FFF700FD054606E0C4
:1025B000FFF7FCFC401B022801D90320F6E6774810
:1025C000406A00F002000028F2D1207800F00400F8
:1025D000042873D100277148C06900F0805070B999
:1025E00000BF6E48C06940F080506C49C861084621
:1025F000C06900F08050009000BF00BF01276A480A
:10260000006800F48070B0B96748006840F48070DA
:1026100065490860FFF7CAFC054606E0FFF7C6FCFF
:10262000401B642801D90320C0E65F48006800F41D
:1026300080700028F2D000BFE068012806D157481A
:10264000006A40F001005549086227E0E06858B987
:102650005248006A20F00100504908620846006AAA
:1026600020F00400086219E0E06805280BD14B480F
:10267000006A40F00400494908620846006A40F0D8
:10268000010008620AE04548006A20F00100434961
:1026900008620846006A20F00400086200BFE06893
:1026A000A0B1FFF783FC054609E0FFF77FFC401B64
:1026B00041F28831884202D9032077E622E0374888
:1026C000006A00F002000028EFD012E0FFF76EFC75
:1026D000054608E0FFF76AFC401B41F2883188425A
:1026E00001D9032062E62D48006A00F002000028AC
:1026F000F0D1012F05D12948C06920F08050274929
:10270000C86100BFE069C8B32448406800F00C000D
:10271000082860D0E069022848D1002020490866D6
:10272000FFF744FC054606E0FFF740FC401B02288B
:1027300001D903203AE61948006800F0007000282B
:10274000F2D1206AB0F5803F07D11448406820F4E8
:102750000030A168084311494860D4E908010843E2
:102760000E49496821F4741108430C49486001205E
:102770000B490866FFF71AFC054607E03DE0FFF746
:1027800015FC401B022801D903200FE6034800680E
:1027900000F000700028F2D02FE00000001002408E
:1027A0000000424280044242007000400020144970
:1027B0000866FFF7FBFB054606E0FFF7F7FB401B4B
:1027C000022801D90320F1E50E48006800F00070EE
:1027D0000028F2D111E0E069012800D1E6E50948BE
:1027E000466806F48031206A814204D106F47011F3
:1027F000606A814201D00120D8E50020D6E50000C2
:10280000000042420010024070B504462546681E92
:10281000B0F1807F01D301200FE0681E4FF0E0216E
:1028200048610F214FF0FF3001F05AFA00204FF0BD
:10283000E021886107200861002070BD7047704763
:1028400030B502460B4600BF92F83C00012801D18A
:10285000022030BD012082F83C0000BF022082F837
:102860003D00106844681068816824F0700418689E
:10287000044310684460104D1068A8420BD01068E3
:10288000B0F1804F07D00D4D1068A84203D00C4D19
:102890001068A84205D121F08001586801431068F2
:1028A0008160012082F83D0000BF002082F83C00DA
:1028B00000BF00BFCDE70000002C01400004004035
:1028C0000008004010B504460CB9012010BD94F872
:1028D0003D0028B9002084F83C00204600F026F88E
:1028E000022084F83D00211D206800F0D1FF012066
:1028F00084F8460000BF84F83E0001213F200155C6
:10290000402001554120015500BF00BF012084F83F
:10291000420043200155442001554520015500BF88
:10292000012084F83D000020D0E7000038B50446BF
:102930001649206888420DD100BF1548C06940F093
:1029400002001349C8610846C06900F00200009007
:1029500000BF19E00F492068884215D100BF0C481C
:10296000C06940F004000A49C8610846C06900F027
:102970000400009000BF00BF00220F211E20FFF7BF
:102980009BFB1E20FFF788FB38BD000000040040C1
:1029900000100240000800402DE9F04104460D46B9
:1029A000002700BF94F83C00012802D10220BDE8B6
:1029B000F081012084F83C0000BF022084F83D0033
:1029C0002068866826F0770626F47F4620688660B1
:1029D0002868502833D00CDC202850D004DC002894
:1029E0004BD0102851D149E0302849D040284CD153
:1029F00039E060282DD0702807D0B0F5805F03D073
:102A0000B0F5005F41D10DE041E0D5E902136A68FD
:102A1000206800F07FFF2068866846F0770620680F
:102A2000866034E0D5E902136A68206800F072FF1E
:102A30002068806840F480402168886027E0EA6868
:102A40006968206800F07AFF5021206800F06DFF6F
:102A50001DE0EA686968206800F083FF6021206853
:102A600000F063FF13E0EA686968206800F066FF21
:102A70004021206800F059FF09E000BF00BF00BFFF
:102A80002968206800F051FF01E0012700BF00BF66
:102A9000012084F83D0000BF002084F83C0000BF06
:102AA000384684E7704770B504462068C5682068DA
:102AB000066906F00200022819D105F0020002287A
:102AC00015D1401F216808610120207720688069A6
:102AD00000F0030018B12046FFF7E4FF05E02046B0
:102AE00000F097F8204600F095F80020207706F0D7
:102AF0000400042819D105F00400042815D1C043AE
:102B000021680861022020772068806900F4407005
:102B100018B12046FFF7C6FF05E0204600F079F81F
:102B2000204600F077F80020207706F008000828FB
:102B300019D105F00800082815D1C04321680861A3
:102B4000042020772068C06900F0030018B12046F7
:102B5000FFF7A8FF05E0204600F05BF8204600F0F4
:102B600059F80020207706F01000102819D105F040
:102B70001000102815D1C043216808610820207773
:102B80002068C06900F4407018B12046FFF78AFF42
:102B900005E0204600F03DF8204600F03BF800201C
:102BA000207706F0010048B105F0010030B16FF068
:102BB000010021680861204600F02DF806F0800031
:102BC000802809D105F08000802805D1C043216804
:102BD00008612046FFF732FE06F04000402809D188
:102BE00005F04000402805D1C04321680861204617
:102BF00000F012F806F02000202809D105F020008E
:102C0000202805D1C043216808612046FFF717FE40
:102C100070BD70477047704770477047704700003D
:102C20002DE9F84F0446206805682068C6682068CA
:102C300047694FF00009CA4605F00F09B9F1000FC6
:102C40000AD105F0200038B106F0200020B120465E
:102C500000F0EBFEBDE8F88FB9F1000F7BD007F074
:102C6000010018B906F49070002874D005F0010036
:102C700030B106F4807018B1606C40F001006064FF
:102C800005F0040030B107F0010018B1606C40F0AD
:102C90000200606405F0020030B107F0010018B1D5
:102CA000606C40F00400606405F0080048B106F074
:102CB000200010B907F0010018B1606C40F0080066
:102CC0006064606C002845D005F0200028B106F053
:102CD000200010B1204600F0A8FE20684069C0F333
:102CE000801A606C00F0080010B9BAF1000F2CD007
:102CF000204600F054FE2068406900F0400000B318
:102D000000BF00BF2168143151E8001F21F04000CE
:102D10002168143141E80002002AF3D100BFE06BC2
:102D200050B17748E16B4863E06BFEF73DFF88B137
:102D3000E06B416B88470DE02046FFF76FFF09E02D
:102D400009E02046FFF76AFF04E02046FFF766FF30
:102D5000002060647EE7206B012877D105F0100029
:102D6000002873D006F010000028FAD000BF002021
:102D7000009020680068009020684068009000BFC4
:102D800000BF2068406900F0400000285FD0E06B81
:102D9000006840681FFA80F8B8F1000F55D0A08D88
:102DA000404552DDA4F82E80E06B8069202843D096
:102DB00000BF00BF21680C3151E8001F21F4807072
:102DC00021680C3141E80002002AF3D100BF00BFA6
:102DD00000BF2168143151E8001F21F00100216873
:102DE000143141E80002002AF3D100BF00BF00BF48
:102DF0002168143151E8001F21F04000216814318E
:102E000041E80002002AF3D100BF202084F84200EC
:102E10000020206300BF00BF21680C3151E8001F73
:102E200021F0100021680C3141E80002002AF3D1A2
:102E300000BFE06BFEF78DFE02206063A08DE28D87
:102E4000801A81B22046FFF7E8FE03E742E0A08D3A
:102E5000E18D401A1FFA80F8E08DD0B3B8F1000F71
:102E600037D000BF00BF21680C3151E8001F21F4AA
:102E7000907021680C3141E80002002AF3D100BFB4
:102E800000BF00BF2168143151E8001F21F001008C
:102E90002168143141E80002002AF3D100BF20204C
:102EA00084F842000020206300BF00BF21680C317D
:102EB00051E8001F21F0100021680C3141E80002A8
:102EC000002AF3D100BF0220606341462046FFF78D
:102ED000A4FEBFE605F0800030B106F0800018B116
:102EE000204600F09FFEB5E605F0400030B106F048
:102EF000400018B1204600F088FDABE600BFA9E60F
:102F00008B39000810B504460CB9012010BDA0692A
:102F100000B100E000BF94F8410028B9002084F817
:102F20004000204600F02AF8242084F84100206860
:102F3000C06820F400502168C860204600F0F4FD0D
:102F40002068006920F49040216808612068406989
:102F500020F02A00216848612068C06840F40050D1
:102F60002168C86000206064202084F8410084F853
:102F700042000020606300BFC8E7000010B586B0C3
:102F80000446002002900390049005903B4920687D
:102F9000884237D100BF3A48806940F480403849C0
:102FA00088610846806900F48040019000BF00BF3E
:102FB00000BF0846806940F00400886108468069C7
:102FC00000F00400019000BF00BF481502900220ED
:102FD00003900320059002A92A48FEF751FE4FF402
:102FE0008060029000200390049002A92548FEF71B
:102FF00047FE002211462520FFF75EF82520FFF747
:103000004BF839E020492068884235D100BF1C4880
:10301000C06940F400301A49C8610846C06900F42C
:103020000030019000BF00BF00BF0846806940F03B
:10303000040088610846806900F00400019000BF28
:1030400000BF04200290022003900320059002A9F3
:103050000C48FEF715FE0820029000200390049013
:1030600002A90848FEF70CFE002211462620FFF7B1
:1030700023F82620FFF710F806B010BD00380140F5
:1030800000100240000801400044004070477047B3
:1030900000BFFEE700B585B00020019002900390CC
:1030A000049000BF3948806940F0200037498861AA
:1030B0000846806900F02000009000BF00BF00BFFC
:1030C0000846806940F0040088610846806900F085
:1030D0000400009000BF00BF00BF0846806940F0B8
:1030E000080088610846806900F00800009000BF71
:1030F00000BF01224FF4A0712548FEF751FF0122C5
:103100004FF472412348FEF74BFF0022C0212148B3
:10311000FEF746FF0120019000200290012003905D
:1031200001A91B48FEF7ACFD402001900120029050
:10313000002003900220049001A91548FEF7A0FD8D
:1031400001200190002002900120039001A9114864
:10315000FEF796FD4FF2C020019001200290002062
:1031600003900220049001A90A48FEF789FD4FF45C
:1031700080700190112002900020039002200490A2
:1031800001A90348FEF77CFD05B000BD0010024018
:1031900000080140000C014000B587B000200390FA
:1031A000049005900690019002901448144908601C
:1031B000EF2048600021124881604FF6FF71C16026
:1031C000002101618161FFF77DFB08B1FEF7BEFCC4
:1031D0004FF48050039003A90948FFF7DDFB08B1C5
:1031E000FEF7B4FC00200190029001A90448FFF70B
:1031F00027FB08B1FEF7AAFC07B000BD00040040A1
:103200001000002000B587B00020039004900590C6
:1032100006900190029014481449086047204860C5
:1032200000211248816040F2E731C1600021016154
:103230008161FFF747FB08B1FEF788FC4FF480502F
:10324000039003A90948FFF7A7FB08B1FEF77EFC2E
:1032500000200190029001A90448FFF7F1FA08B19B
:10326000FEF774FC07B000BD0008004058000020C5
:1032700010B50B480B4908604FF416504860002108
:1032800008488160C16001610C21416100218161B8
:10329000C161FFF737FE08B1FEF758FC10BD000012
:1032A00000380140A000002010B50B480B49086011
:1032B0004FF4E1304860002108488160C16001613D
:1032C0000C21416100218161C161FFF71BFE08B142
:1032D000FEF73CFC10BD000000440040E800002068
:1032E00000BFFEE700BFFEE700200CE0002106E083
:1032F0000022064B03EBC0135A544A1CD1B280295A
:10330000F6DB421CD0B20828F0DB70473001002009
:103310002DE9F04304460D4616461F46284638E080
:10332000224631E0002A2DDB7F2A2BDC002829DB16
:103330003F2827DC4FEAE07C00EB5C7C4FEAEC0C9A
:10334000DFF8588008EBCC1C1CF802C003464FEA9B
:10335000E07800EB58784FEAE808A0EBC8094FF096
:10336000010808FA09F82CEA080C01464FEAE0784F
:1033700000EB58784FEAE808DFF8209009EBC8180E
:1033800008F802C0511C0AB2A1199142CADC411CC2
:1033900008B2E9198142C3DCBDE8F08330010020A6
:1033A00070B5002406E0002500E06D1CB5F57A7FBD
:1033B000FBD3641CB4F57A7FF5D3012000F0D6F975
:1033C000012000F0DDF970BD70B50546002411E064
:1033D00080212141294009B1012100E00021084656
:1033E00000F0CEF9012000F0C1F9002000F0BEF994
:1033F000601CC4B2082CEBDB012000F0B7F9002000
:1034000000F0B4F970BD10B5012000F0B9F9012049
:1034100000F0ACF9002000F0B3F9002000F0A6F9AC
:1034200010BD10B5002000F0ABF9012000F09EF9AE
:10343000012000F0A5F910BD10B5FFF7B1FFAE20D7
:1034400000F0A8F9D52000F0A5F9802000F0A2F93D
:10345000A82000F09FF93F2000F09CF9D32000F055
:1034600099F9002000F096F9402000F093F9A1208E
:1034700000F090F9C82000F08DF9DA2000F08AF908
:10348000122000F087F9812000F084F9CF2000F0AD
:1034900081F9D92000F07EF9F12000F07BF9DB20E2
:1034A00000F078F9302000F075F9A42000F072F9EE
:1034B000A62000F06FF98D2000F06CF9142000F0C8
:1034C00069F9AF2000F066F9FFF70EFF00F03AF956
:1034D00010BD0FB470B5C2B005460E4614464AA8DA
:1034E000019002A8019A4999FCF7C4FE00200190BE
:1034F000234602AA3146284600F00CF942B070BCBF
:103500005DF814FB70B505460C4645F0B00000F0C0
:1035100041F9102141EA141000F03CF904F00F00C9
:1035200000F038F970BD0000F8B506460F461446A5
:103530001D46082D0CD1A4F120000E4901EB00100E
:103540001023082239460090304600F065F80FE05D
:10355000062D0DD1A4F1200000EB4000064901EB3F
:1035600040000823062239460090304600F054F807
:10357000F8BD0000EE3E0008DE4400082DE9FC47DF
:1035800080468946164600270020019000253AE033
:10359000705D01A9C855781CC7B2022F31DB002726
:1035A00000240CE0C4EBC40101EB8101184A881827
:1035B00001A9FCF799FE00B90CE0601CC4B2C4EB91
:1035C000C40101EB8101124A881812A1FCF78CFE9C
:1035D0000028E7D100BFC4EBC40000EB80000C4919
:1035E0000844C01C05F1010A0AEBDA714910491EB2
:1035F00008EB0111009008B210231A46494600F06A
:103600000BF8681CC5B2705D0028C1D1BDE8FC870D
:1036100018470008000000002DE9FF4F80460E46C5
:103620009146DDF834B0002500244A463146404634
:10363000039BFFF76DFE00BF5EE0002558E008EB3E
:103640000500002852DB08EB05007F284EDC3046E1
:10365000F11706EB5171C9100FB2F11706EB51715A
:10366000C910A6EBC10A002E05DA781E07B20AF1CE
:1036700008000FFA80FA3819002817DB38190728D4
:1036800014DC3819224901EBC01008EB0501405C3D
:1036900004FB09511BF8011001FA0AF1084339191A
:1036A0001B4A02EBC11108EB050288543819401C73
:1036B00000281BDB3819401C072817DC3819401C70
:1036C000134901EBC01008EB0501405C04FB0951F4
:1036D0001BF80110CAF10802114108433919491CAD
:1036E0000B4A02EBC11108EB05028854681CC5B2F5
:1036F0004D45A4DB601CC4B20399481EC11700EB02
:103700005171012202EBE101A14296DCBDE8FF8F7D
:10371000300100202DE9F0410646884615461F4637
:10372000002409E02A5D04FB076108B23B464146DC
:10373000FFF7FAFE601CC4B2285D0028F2D1BDE894
:10374000F081000010B500240BE000212046FFF7B7
:10375000D9FE054901EBC410802100F02BF8601C54
:10376000C4B2082CF1DB10BD3001002010B50446B6
:10377000224640210148FEF713FC10BD000C014019
:1037800010B50446224680210148FEF709FC10BD11
:10379000000C014010B50446FFF735FE7820FFF716
:1037A00013FE0020FFF710FE2046FFF70DFEFFF787
:1037B00038FE10BD70B505460E46FFF724FE782092
:1037C000FFF702FE4020FFF7FFFD002404E0285D24
:1037D000FFF7FAFD601CC4B2B442F8DBFFF721FE2C
:1037E00070BD704708B508490968C9084FF47A7276
:1037F000B1FBF2F14143009100BF00BF00994A1EA6
:1038000000920029F9D108BD0C000020704710B5C6
:10381000FEF7D2FB10BD00B58FB0282105A8FCF73C
:103820003BFD14216846FCF737FD0120059000049C
:103830000690002007900120099002200C90C103FF
:103840000D914FF4E0110E9105A8FEF7ABFD08B104
:10385000FEF77CF90F2000900220019000200290DA
:103860004FF4806003900020049002216846FEF728
:1038700075FC08B1FEF76AF90FB000BD7047000093
:1038800010B50248FFF70FF910BD000058000020E6
:1038900010B502681C4B984208D0B0F1804F05D09B
:1038A0001A4B984202D01A4B984203D122F0700270
:1038B0004B681A43144B984208D0B0F1804F05D0A2
:1038C000124B984202D0124B984203D122F440721C
:1038D000CB681A4322F080034C6943EA0402026079
:1038E0008B68C3620B688362074B984201D10B69F6
:1038F000036301234361036903F001031BB10369FF
:1039000023F00103036110BD002C014000040040BE
:103910000008004030B50C46816821F47F4142EA3E
:10392000032525432943816030BD0A46816821F083
:10393000700142F0070319438160704730B50B46B0
:103940001446026A056A25F001050562816921F0C5
:10395000F00141EA041122F00A021A438161026275
:1039600030BD30B50B461446026A056A25F01005D5
:103970000562816921F4704141EA043122F0A0021C
:1039800042EA03128161026230BD70B505466C6A7D
:103990000020E085E0842046FFF740F970BD00BFBD
:1039A00000BF02680C3252E8002F22F490710268C6
:1039B0000C3242E80013002BF3D100BF00BF00BF60
:1039C0000268143252E8002F22F00101026814321A
:1039D00042E80013002BF3D100BF016B01290ED187
:1039E00000BF00BF02680C3252E8002F22F0100125
:1039F00002680C3242E80013002BF3D100BF2021F3
:103A000080F8421000210163704710B50446206819
:103A1000C06820F040002168C860202084F8410080
:103A20002046FFF734FB002010BDF8B5044694F89B
:103A30004200222875D1A068B0F5805F0CD12069C2
:103A400050B90025A66A20684068C0F3080030809D
:103A5000A06A801CA06215E0A56A0026A068B0F5E7
:103A6000805F03D0A06828B9206918B92068406831
:103A7000287004E02068406800F07F002870A06A89
:103A8000401CA062E08D401E80B2E085002846D137
:103A90002068C06820F020002168C8602068C068E5
:103AA00020F480702168C8602068406920F001001F
:103AB00021684861202084F8420000206063206B68
:103AC000012826D10020206300BF00BF21680C31EF
:103AD00051E8001F21F0100021680C3141E800027C
:103AE000002AF3D100BF2068006800F01000102801
:103AF0000AD100BF00200090206800680090206874
:103B00004068009000BF00BFA18D2046FFF785F8F8
:103B100002E02046FFF7BAFA0020F8BD01E00020DD
:103B2000FBE70220F9E7000070B504462168096947
:103B300021F44051E2681143226811612269A168B1
:103B40001143626941EA02052168C96841F20C62C9
:103B5000914329432268D1602168496921F4407169
:103B6000A2691143226851612D4A2168914202D114
:103B7000FEF7D0FB01E0FEF7BDFB00EBC00101EB5F
:103B8000001162689200B1FBF2F100EBC00202EB9F
:103B9000001263689B00B2FBF3F26423B2FBF3F202
:103BA00002EBC20303EB0212A1EB8201322202EB11
:103BB00001116422B1FBF2F101F0F00100EBC0024F
:103BC00002EB001263689B00B2FBF3F26423B2FBCA
:103BD000F3F201EB021200EBC00101EB001163688C
:103BE0009B00B1FBF3F100EBC00303EB001366682D
:103BF000B600B3FBF6F36426B3FBF6F303EBC306A0
:103C000006EB0313A1EB8301322303EB01116423C1
:103C1000B1FBF3F101F00F0111442268916070BD16
:103C200000380140014691F84100212828D18868D8
:103C3000B0F5805F0BD1086948B90A6A1088C0F3F3
:103C400008000B685860086A801C086205E00B6A6F
:103C5000581C086218780B685860C88C401E80B2E7
:103C6000C88458B90868C06820F080000B68D86024
:103C70000868C06840F040000B68D86000207047BA
:103C80000220FCE710B50248FEF7CAFF10BD000095
:103C9000A000002010B50248FEF7C2FF10BD0000D2
:103CA000E800002000BFFEE7490050EAC12018BF2D
:103CB00004204A0D18BF40F0010040F2FF72B2EB41
:103CC000515F08BF40F00200012808BF052070477F
:103CD00002480068C0F30220704700000CED00E0CD
:103CE00010B5002804DB0A07130E054A135406E03A
:103CF0000A07140E034A00F00F031B1FD45410BD13
:103D000000E400E018ED00E030380A2801D201207C
:103D100070470020704700001CB5FFF7E5FA1EA2AF
:103D200000210846FFF72AFC1EA210210020FFF701
:103D300025FC1EA210215A20FFF720FC08232F2269
:103D400010216A20FFF7F0FB19A210217020FFF765
:103D500015FC002017A30822102100902E20FFF749
:103D6000B8FB16A220210020FFF708FC15A2202195
:103D70005A20FFF703FC0021009113A308220191B0
:103D800020212E20FFF7A5FB11A230210020FFF7F4
:103D9000F5FBFFF7D7FC1CBDB9A4D7F7D7B4CCAC63
:103DA000A3BA0000B5CECBD9A3BA0000B5CE0000AF
:103DB000B7D600002530346400000000CEC2B6C87B
:103DC000A3BA0000A1E600002530342E31660000C1
:103DD000D2A9D2BAA3BA000010B5FFF785FA0CA297
:103DE00010210846FFF7CAFB0DA220214020FFF753
:103DF000C5FB08232F2220215020FFF795FB09A2A5
:103E000020216020FFF7BAFBFFF79CFC10BD0000EB
:103E1000C4BFB1EAB5CECBD9C9E8D6C30000000013
:103E2000B5CE0000B7D60000FEF7D2F8FFF7F3FCDE
:103E3000FFF730F9FFF7E6F9FFF71AFAFFF734FA60
:103E4000FFF7AAF9FFF7F8FA0BE0FFF765FF40F676
:103E5000B830FDF701FFFFF7BFFF40F6B830FDF7C0
:103E6000FBFEF2E710B500290AD00878002807D039
:103E700005487844FCF738FA002801D0002010BD2E
:103E80000248784410BD0000660E00005E0E00007F
:103E900010B500290AD00878002807D005487844D2
:103EA000FCF722FA002801D0002010BD0248784417
:103EB00010BD0000560E00004E0E0000FCF781BE43
:103EC000FCF7B6BF02030405060708090A0B0C0D30
:103ED0000E0F10100102000000000000000001029F
:103EE00003040607080900000000010203040000A3
:103EF00000000000000000000000000000000000C2
:103F000000F8000000000000003330000000001640
:103F10000E00160E0000000000000000000040C06F
:103F20007840C0784000043F04043F04040000705F
:103F300088FC08300000001820FF211E0000F00857
:103F4000F000E018000000211C031E211E0000F0FC
:103F50000888700000001E2123241927211000006A
:103F600000160E000000000000000000000000002D
:103F700000E01804020000000007182040000002C2
:103F80000418E00000000040201807000000404036
:103F900080F0804040000202010F01020200000098
:103FA00000F0000000000101011F010101000000FC
:103FB00000000000000000B07000000000000000E1
:103FC00000000000000000010101010101010000EA
:103FD0000000000000000030300000000000000081
:103FE000000080601804006018060100000000E076
:103FF00010080810E000000F102020100F00001023
:1040000010F8000000000020203F20200000007079
:104010000808088870000030282422213000003071
:104020000888884830000018202020110E00000069
:10403000C02010F8000000070424243F240000F8EA
:104040000888880808000019212020110E0000E0CF
:10405000108888180000000F112020110E00003871
:104060000808C83808000000003F00000000007089
:10407000880808887000001C222121221C0000E012
:1040800010080810E0000000312222110F0000008B
:1040900000C0C00000000000003030000000000040
:1040A00000C0C0000000000080B0700000000000F0
:1040B0008040201008000001020408102000404049
:1040C000404040404000040404040404040000088C
:1040D0001020408000000020100804020100007041
:1040E00048080808F0000000003036010000C03029
:1040F000C828E810E0000718272423140B0000004C
:10410000C038E0000000203C23020227382008F8D5
:10411000888888700000203F202020110E00C030C9
:10412000080808083800071820202010080008F8A0
:1041300008080810E000203F202020100F0008F899
:104140008888E8081000203F20202320180008F865
:104150008888E8081000203F200003000000C030DD
:1041600008080838000007182020221E020008F85E
:1041700008000008F808203F210101213F20000825
:1041800008F8080800000020203F20200000000060
:104190000808F8080800C08080807F00000008F848
:1041A00088C028180800203F20012638200008F881
:1041B000080000000000203F20202020300008F8E8
:1041C000F800F8F80800203F003F003F200008F802
:1041D00030C00008F808203F200007183F00E0101A
:1041E00008080810E0000F10202020100F0008F829
:1041F00008080808F000203F210101010000E0103C
:1042000008080810E0000F18242438504F0008F860
:10421000888888887000203F2000030C30200070C0
:104220008808080838000038202121221C001808BE
:1042300008F8080818000000203F2000000008F8D7
:1042400008000008F808001F202020201F00087820
:10425000880000C83808000007380E010000F80880
:1042600000F80008F800033C0700073C03000818AA
:1042700068808068180820302C03032C3020083810
:10428000C800C83808000000203F200000001008C7
:104290000808C8380800203826212020180000000F
:1042A00000FE020202000000007F40404000000CBF
:1042B00030C000000000000000010638C00000020D
:1042C0000202FE000000004040407F00000000208D
:1042D000100804081020000000000000000000008A
:1042E00000000000000080808080808080800002CC
:1042F00004080000000000000000000000000000B2
:104300008080808000000019242222223F2008F8AB
:10431000008080000000003F112020110E000000EE
:10432000008080800000000E11202020110000007D
:1043300000808088F800000E112020103F2000002F
:10434000808080800000001F222222221300008033
:1043500080F0888888180020203F2020000000007E
:10436000808080808000006B94949493600008F8B3
:10437000008080800000203F210000203F2000803E
:104380009898000000000020203F2020000000003E
:1043900000809898000000C08080807F000008F8AE
:1043A000000080808000203F24022D302000000883
:1043B00008F8000000000020203F2020000080803E
:1043C000808080808000203F20003F20003F0080D0
:1043D00080008080000000203F2100203F2000005E
:1043E000808080800000001F202020201F0080800F
:1043F00000808000000080FFA12020110E0000003E
:10440000008080808000000E112020A0FF8080802E
:1044100080008080800020203F21200001000000DB
:1044200080808080800000332424242419000080B0
:1044300080E0808000000000001F202000008080BD
:10444000000000808000001F202020103F2080807E
:1044500080000080808000010E300806010080800E
:104460000080008080800F300C030C300F00008033
:104470008000808080000020312E0E31200080805E
:1044800080000080808080818E701806010000808E
:104490008080808080000021302C222130000000AC
:1044A0000000807C020200000000003F404000004D
:1044B0000000FF00000000000000FF0000000002FC
:1044C000027C800000000040403F000000000080AF
:1044D000404080000080000000000001010000005A
:1044E000000000000000002F00000000070007008F
:1044F00000147F147F1400242A7F2A12002313083B
:104500006462003649552250000000070000000098
:104510001C224100000041221C000014083E081427
:104520000008083E0808000000A060000008080815
:104530000808000060600000002010080402003E2F
:104540005149453E0000427F4000004261514946CA
:10455000002141454B31001814127F1000274545BA
:104560004539003C4A4949300001710905030036CC
:104570004949493600064949291E000036360000DF
:1045800000005636000000081422410000141414E4
:104590001414000041221408000201510906003ED3
:1045A0004955592E007C1211127C007F4949493629
:1045B000003E41414122007F4141221C007F494988
:1045C0004941007F09090901003E4149497A007FBC
:1045D0000808087F0000417F4100002040413F0162
:1045E000007F08142241007F40404040007F020CC1
:1045F000027F007F0408107F003E4141413E007F62
:1046000009090906003E4151215E007F091929462A
:104610000046494949310001017F0101003F404006
:10462000403F001F2040201F003F4038403F0063B4
:1046300014081463000708700807006151494543D6
:1046400000007F41410000020408102000004141A9
:104650007F0000040201020400404040404000008E
:1046600001020400002054545478007F4844443828
:1046700000384444442000384444487F00385454AF
:10468000541800087E0901020018A4A4A47C007F2D
:10469000080404780000447D4000004080847D00D0
:1046A000007F102844000000417F4000007C041877
:1046B0000478007C0804047800384444443800FC42
:1046C000242424180018242418FC007C080404085E
:1046D00000485454542000043F444020003C4040D3
:1046E000207C001C2040201C003C4030403C00440A
:1046F00028102844001CA0A0A07C004464544C4412
:104700000000087F41000000007F00000000417FA2
:104710000800000804081008A3AC00000000000016
:1047200000000000000000000000000000583800F9
:104730000000000000000000000000A1A300000035
:104740000000000000000000000000000000000069
:104750001824241800000000000000000000C4E33A
:1047600000008060F8074020180F08C808082818C3
:1047700000010000FF00100C0340807F00010618BC
:1047800000BAC3001010F01F10F000808282E29285
:104790008A868000402215081661000040807F0054
:1047A00000000000CAC000202020FE2020FF2020A2
:1047B00020FF20202020000000007F40404744448C
:1047C00044474040400000BDE700000000FE9292D8
:1047D00092FE929292FE0000000008080484621E7D
:1047E000010001FE020404080800CAE40088681FF2
:1047F000C80810C85452D1129408D01000091909E1
:10480000FF0500FF1292FF005F807F0000D2BA0018
:104810001060028C0084E41C05C6BC2424E404005F
:1048200004047E010000FF82412618294681800091
:10483000BCE00000007E0000FF0040300F04146464
:1048400004000040407E42427E4242427E42427E1E
:10485000404000BFD800101010FF90209848280951
:104860000E2848A818000242817F00404042424280
:104870007E4242424000CFB500000022322AA6A26A
:10488000622111098101000000004222130B4282C3
:104890007E02020A1223460000CDB3002030AC6332
:1048A000300088C8A8998E88A8C88800226722127C
:1048B000128040300F00003F40407100B9A400005A
:1048C000040404040404FC0404040404040000209C
:1048D0002020202020203F2020202020202000D722
:1048E000F700008060F80740300FF8888888880853
:1048F0000800010000FF00000000FF080808080889
:104900000000D7B40000083000FF20202020FF2046
:1049100020222C200004040201FF8040300E0106FA
:104920001820408000CCAC00000484844424548FC0
:104930001424448484040000413900003C40404277
:104940004C40407004093100A3BA00000000000090
:1049500000000000000000000000000000363600EB
:104960000000000000000000000000BFAA008082DC
:104970008282FE8282828282FE8282828000008027
:1049800040300F0000000000FF0000000000B9D818
:104990000000001011161010F01010141310000079
:1049A000008181414121110D030D1121414181817E
:1049B00000B5CE001060028C00E424ACB5E6B4ACC7
:1049C00024E4000004047E0100FF001E1213125EA6
:1049D000807F0000CBD900404042CC0004F4949486
:1049E000FF9494F40400000040201F2048444241FA
:1049F0005F414244484000B7D600804020908886FE
:104A0000808080838C102040800000804020180728
:104A1000004080403F0000000000CEC20010600255
:104A20008C0000FE9292929292FE00000004047E9E
:104A300001407E42427E427E42427E4000B6C80035
:104A40000000FC242424FC252624FC242424040027
:104A500040308F80844C55252525554C8080800022
:104A6000D2A90004844434048F0484744F44444421
:104A7000C4040049C94D2B29280100020C40804084
:104A80003F0000A1E600060909E6F80C0402020254
:104A90000202041E0000000000071F3020404040BA
:104AA000404020100000D3D00004040484E43C27DC
:104AB00024242424E40404040004020100FF09095E
:104AC000090949897F00000000CEDE000040424213
:104AD00042C27E42C242424240400000804020101A
:104AE0000C0300003F40404040700000C4BF000085
:104AF00000FE222222222222222222FE0000000088
:104B000000FF424242424242424242FF000000B1A4
:104B1000EA001010D0FF901020222222E22222224E
:104B20002000040300FF00130C0340807F000106F7
:104B30001800C9E800404042CC0040A09E8282821A
:104B40009EA02020000000003F908840432C1028A9
:104B50004641808000D6C300001715D55557557DB6
:104B6000555755D5151700004040407F55555555B0
:104B70005555557F40404000000000FF01010131C4
:104B800009090909897101010101FFFF8080808005
:104B900080809681808080808080FFFF018181817C
:104BA000FD8991A1C1FD81818101FFFF808080800D
:104BB0009F888482819F80808080FF0000000000A9
:104BC0000000000030313233343536373839414255
:104BD000434445464030580030313233343536375F
:104BE000383961626364656640307800040000080B
:104BF000000000000000000200010000103031320F
:104C000033343536373839616263646566787000ED
:104C100030313233343536373839414243444546F2
:104C20005850000002400000000000A000000000FA
:104C300005400000000000C8000000000C4000001B
:104C40000000409C00000000194000000020BCBE95
:104C50000000000034400000BFC91B8E00000004AB
:104C6000B5400000504BCFD06607E2CF01000000F6
:104C70006C4100003E8251AADFEEA7340100000023
:104C8000D9420000DCB5A0E23A301F97FFFFFFFFDA
:104C9000B4450000FD25A0C8E9A3C14FFFFFFFFFF9
:104CA000FF3F00000000008000000000FF3F000008
:104CB0000000008000000000044E000800000020FA
:104CC0001000000028010008144E00081000002009
:104CD000800B0000440100081C000000430000009D
:104CE000F8FFFFFF0C0000000E0000000F000000A6
:104CF0002E0000001001000043000000F8FFFFFF3D
:104D000000404040404040404040414141414140DE
:104D10004040404040404040404040404040404093
:104D20004005020202020202020202020202020222
:104D30000220202020202020202020020202020227
:104D4000020290909090909010101010101010107F
:104D5000101010101010101010101010020202028B
:104D600002028888888888880808080808080808CF
:104D700008080808080808080808080802020202CB
:104D800040000000000000000000000000000000E3
:104D90000000000000000000000000000000000013
:104DA0000000000000000000000000000000000003
:104DB00000000000000000000000000000000000F3
:104DC00000000000000000000000000000000000E3
:104DD00000000000000000000000000000000000D3
:104DE00000000000000000000000000000000000C3
:104DF00000000000000000000000000000000000B3
:104E00000000000000000000100000000100000091
:044E100000127A0012
:04000005080000ED02
:00000001FF
