:020000040800F2
:10000000A009002005010008E92E00084925000884
:10001000092E0008B10A00084D3C0008000000004D
:10002000000000000000000000000000C9350008CA
:10003000450D0008000000001B350008CB35000806
:100040001F0100081F0100081F0100081F01000810
:100050001F0100081F0100081F0100081F01000800
:100060001F0100081F0100081F0100081F010008F0
:100070001F0100081F0100081F0100081F010008E0
:100080001F0100081F0100081F0100081F010008D0
:100090001F0100081F0100081F0100081F010008C0
:1000A0001F0100081F0100081F0100081F010008B0
:1000B0001F0100081F0100083D3600081F0100084D
:1000C0001F0100081F0100081F0100081F01000890
:1000D0001F0100082D3C00083D3C00081F010008DE
:1000E0001F0100081F0100081F010008DFF810D0E1
:1000F00000F0B8FC0048004751490008AFF3008009
:10010000A00900200648804706480047FEE7FEE7B2
:10011000FEE7FEE7FEE7FEE7FEE7FEE7FEE7FEE7B7
:1001200039360008ED000008202A04DB203A21FAC5
:1001300002F00021704721FA02F3D040C2F1200200
:100140009140084319467047D2B201E000F8012BF4
:10015000491EFBD270470022F6E710B513460A4647
:1001600004461946FFF7F0FF204610BD10B50022E7
:1001700000E0521C835C8C5CA34201D1002BF8D1BF
:10018000D8B2E1B2401A10BDF0B480EA0102D40F37
:100190004200B2EB410F02D20246084611464A0025
:1001A00042D0C30DDDB2C1F3C752AD1A202D35DAEE
:1001B000C1F3160141F4000204B15242C5F1200618
:1001C00002FA06F12A411044B3EBD05F23D0C4B148
:1001D000012DA0EBC35009DCF0BC4FF0004202EA55
:1001E000C352DBB200F5000000F055BB400000F147
:1001F000807000EBC350A0F1807040EAD1704900DC
:1002000009E0490841EAC071A0EBC35000F50000C5
:10021000400800EBC350F0BC00F034BB6142012247
:1002200002EB4101001BF6E7F0BC704781F0004192
:10023000AAE780F00040A7E780EA010210B502F0CB
:100240000043400022D04A001FD0010E01EB126192
:10025000C0F35600C2F3560240F4000042F400021C
:10026000A0FB022000047F39140400D0401C50EA97
:10027000124001D44000491EC2B20C0604EBD0105B
:10028000401C4008802A02D003E0002010BD20F06E
:100290000100002900DA0020184310BD30B480EAC4
:1002A000010202F0004530F0004221F0004013D07E
:1002B00090B1C30DD40DC2F31601C0F31600E41AB9
:1002C00041F4000140F400027D34914201D3641CEA
:1002D00000E04900002C02DA30BC002070474FF4E7
:1002E00000000023914201D3891A034340084FEADA
:1002F0004101F7D151B1914202D14FF0004105E0E7
:1003000002D24FF0010101E06FF0010103EBC45094
:10031000284430BC00F0B6BA2DE9FE4F804681EA91
:100320000300C00F0C46009021F0004123F000456F
:10033000B8EB0200A94105D24046214690461C4632
:100340000B46024623F00040104347D0270DC7F369
:100350000A00C3F30A510290401A019040286BDA58
:10036000C3F3130040F4801B0098924620B1002391
:10037000D2EB030A63EB0B0B01985946C0F1400224
:10038000504600F05EFA06460D4650465946019A20
:1003900000F066FA10EB08006141002487EA115270
:1003A00084EAE7731A4340D0009A62B3019A012AA3
:1003B0004FEA075215DC001B61EB02014FF00042CF
:1003C00002EA0752CDE90042001C41F58011324695
:1003D0002B4600F09DFA03B0BDE8F08F4046214661
:1003E000F9E7001B61EB0201001C41F580130018C6
:1003F0005B412018A2F5001747EB030140EAD570D6
:10040000B6196D4111E06D084FEA360645EAC07530
:100410004FEA0752001B61EB0201001C41F58011FD
:1004200049084FEA30000019514132462B4603B0CB
:10043000BDE8F04F00F05DBA0098012240000023B3
:10044000D0EB020263EBE073009821464FEAE074C0
:10045000B8EB000061EB0401E9E783F000435BE7E0
:1004600081F0004158E72DE9FE4F81EA030404F0D2
:10047000004421F0004100944FF0000B23F00043B2
:1004800050EA01045ED052EA03045BD0C3F30A547D
:10049000C1F30A552C44A4F2F3340194A0FB025496
:1004A000C1F3130141F48011C3F3130343F4801328
:1004B00001FB024400FB034E840A970A44EA81547C
:1004C00047EA8357A4FB076802958D0A05FB078559
:1004D0004FEA932C04FB0C542705029D4FEA065863
:1004E00047EA1637B5EB08056EEB070C870E920E40
:1004F00047EA811742EA8312A7FB0201B6EB0B0120
:1005000064EB00042B0D43EA0C335E1844EB1C50E3
:10051000DA465146E7FB0201C5F313044FEA0B33F9
:1005200043EA14534FEA0432019C43EA0603A4F160
:100530000C040294009CCDE900B400F0E9F903B08A
:10054000BDE8F08F00200146F9E72DE9F04D81EA82
:10055000030404F0004B21F0004514464FF0000A5C
:1005600023F0004150EA050220D054EA01021DD0D8
:10057000C5F30A570246C5F31303C1F31300C1F3D1
:100580000A5640F4801543F48013A7EB0608101BAD
:10059000D64608F2FD3873EB050002D308F10108D6
:1005A00001E092185B41B8F1000F03DA0020014628
:1005B000BDE8F08D00204FF48011064684460EE021
:1005C000171B73EB050705D3121B63EB05030643EB
:1005D0004CEA010C49084FEA300092185B4150EA9E
:1005E0000107EDD152EA030012D082EA040083EA47
:1005F0000501084305D0101BAB4106D201220023A0
:1006000006E000224FF0004302E06FF001025310B9
:100610001AEB06004CEB085110EB0A0041EB0B0102
:10062000BDE8F04D00F065B9C10F80EAE070084404
:10063000CA079623002100F02EB996230022114606
:1006400000F029B90EB540F2334102910021CDE905
:1006500000110A460B4600F05BF903B000BD70B50F
:10066000C1F30A5201F000450024C1F3130140F226
:10067000FF3341F480119A4201DA002070BD40F24C
:1006800033439A42A2F2334203DC5242FFF74CFD5D
:1006900000E090402C43F1D0404270BDC1F30A52BB
:1006A00010B5C1F3130140F2FF3341F480119A42B7
:1006B00001DA002010BD40F233439A42A2F23342E5
:1006C00003DC5242FFF730FD10BD904010BD00F03A
:1006D000004230F000400AD0C10D01F56071C0F356
:1006E000160042EA0151C20840071143704700203A
:1006F0000146704730B5041E71F1000404DB4FF071
:100700000044404264EB0101141E73F1000405DB58
:100710001C464FF00043524263EB04038B4208BF78
:10072000824230BD30B5041E71F1000404DB4FF08D
:100730000044404264EB0101141E73F1000405DB28
:100740001C464FF00043524263EB0403994208BF3A
:10075000904230BD01F0004330B421F0004150EA36
:10076000010206D00A0DA2F56072C1F31301002A3E
:1007700002DC30BC00207047440F44EAC104C100D1
:10078000E01830BC00EBC25000F07CB8002801DB60
:10079000C0F10040002901DBC1F1004181427047F6
:1007A000002801DBC0F10040002901DBC1F100415C
:1007B0008842704730B50B460146002020220124B4
:1007C00009E021FA02F59D4205D303FA02F5491B1F
:1007D00004FA02F52844151EA2F10102F1DC30BD35
:1007E0002DE9F05F0546002092469B468846064666
:1007F000814640241BE02846414647462246FFF7F3
:1008000093FC53465A46C01A914110D311461846DC
:10081000224600F016F82D1A67EB01084F462246D3
:100820000120002100F00DF817EB00094E41201EB9
:10083000A4F10104DFDC484631462A464346BDE8C0
:10084000F09F202A04DB203A00FA02F100207047D2
:100850009140C2F1200320FA03F3194390407047FE
:10086000202A06DBCB17203A41FA02F043EAE07374
:1008700006E041FA02F3D040C2F120029140084361
:10088000194670470029A8BF7047401C490008BF9F
:1008900020F00100704710B4B0FA80FC00FA0CF0B0
:1008A00050EA010404BF10BC704749B1CCF12004E8
:1008B00021FA04F411FA0CF118BF01212143084375
:1008C000A3EB0C01CB1D4FEA00614FEA102042BFA1
:1008D000002010BC704700EBC35010440029A4BF97
:1008E00010BC7047401C490008BF20F0010010BC3C
:1008F000704710B5141E73F1000408DA401C41F172
:10090000000192185B411A4301D120F0010010BD93
:100910002DE9F04D92469B4611B1B1FA81F202E009
:10092000B0FA80F220329046FFF78BFF04460F4664
:1009300040EA0A0041EA0B0153465A46084313D0E5
:10094000114653EA010019D0C8F140025046FFF7A2
:10095000EBFB05460E46504659464246FFF771FFEF
:10096000084305D0012004E020463946BDE8F08D5B
:100970000020054346EAE0762C4337430A98630596
:10098000E40AA0EB08000022FD0A44EA47540A30BA
:1009900002D500200146E9E7010510196941DDE9AA
:1009A000084500196941BDE8F04DA2E72DE9F04185
:1009B000054621F000400C46284309D0C4F30A50F4
:1009C00040F23341884205DD28462146BDE8F081EA
:1009D0002846FBE740F2FE31884210DC0CDB4FEA90
:1009E000043040EA155050EA053105D0104804F0B3
:1009F000004101430020E9E700200146E6E7A0F2BC
:100A000033404642C6F1400228462146FFF719FF0F
:100A100007468846284621463246FFF785FB43466F
:100A20003A46FFF766FF3246BDE8F041FFF709BFDF
:100A30000000F03FC1F30A52C1F3130140F2FF334B
:100A400041F480119A4202DA00200146704740F2D8
:100A500033439A42A2F2334202DC5242FFF764BBB4
:100A6000FFF7EFBE064C074D06E0E06840F00103DB
:100A700094E8070098471034AC42F6D3FFF73AFBEE
:100A8000485800086858000810B501225102024871
:100A900000F0B8FB10BD0000000C014010B50022B2
:100AA0004FF40071014800F0ADFB10BD000C014097
:100AB00000BFFEE710B50024002000F06DF804E050
:100AC000601CC4B2012000F047F940210E4800F03C
:100AD00091FB08B1C82CF3DBC82C01DB012010BD51
:100AE000002404E0601CC4B2012000F035F940216C
:100AF000054800F07FFB08B9F02CF3DBF02C01DB9C
:100B00000120ECE70020EAE7000801402DE9F84F5A
:100B100000F0AEF800F094F8FFF7CCFFCC2000F026
:100B2000B7F8BE2000F0B4F800F078F8834600F083
:100B300075F80446072C08DDE043C4B26FEA0B00E9
:100B400000F0FF0B4FF0000A01E04FF0010AA14650
:100B50004FEA09200FFA80F909EB0B000FFA80F930
:100B60004846FFF761FD0090FFF7B1FD0746002200
:100B7000084BFFF778FC0546FFF771FD0FFA80F987
:100B8000BAF1000F02D04846BDE8F88FC9F1000065
:100B900000B2F9E70000E43F10B5044640200A49DE
:100BA00008600320C860012C04D111204860002097
:100BB000886004E000200449486001208860024900
:100BC000024800F087F910BD4805002000080140E8
:100BD00010B50120FFF7E0FF002240210E4800F091
:100BE00011FB022000F0B8F8012240210A4800F071
:100BF00009FB0020FFF7D0FF0C2000F0ADF84021EA
:100C0000054800F0F7FA08B1012400E00024322082
:100C100000F0A2F8204610BD0008014070B5002683
:100C2000012508E0FFF7D4FF0446E00140EA660032
:100C3000C6B2681CC5B2082DF4DD304670BD000098
:100C400010B50120FFF7A8FF00224021074800F05F
:100C5000D9FA40F2EE2000F07FF80122402103484B
:100C600000F0D0FA0F2000F077F810BD0008014026
:100C700010B5FFF7E5FFFFF71DFFCC2000F008F8E7
:100C8000442000F005F840F2EE2000F05CF810BDC2
:100C900070B504460120FFF77FFF012526E004F030
:100CA0000106641086B100224021124800F0AAFA21
:100CB000022000F051F8012240210E4800F0A2FA73
:100CC0003C2000F049F80FE000224021094800F0E4
:100CD00099FA3C2000F040F801224021054800F03C
:100CE00091FA022000F038F8681CC5B2082DD6DD54
:100CF00070BD0000000801400F48006800B1704757
:100D00000E48006840F080700C4908600C4800688C
:100D100040F001000A4908600020486000BF00BFA1
:100D200000BFBFF34F8F00BF00BF00BF01200249CB
:100D3000086000BFE3E7000000000020FCED00E0D9
:100D4000001000E0704710B504464FF47A7104FBC0
:100D500001F000F001F810BD30B5024602B930BD17
:100D60000B48006808B9FFF7C7FF0A4843680A48FC
:100D700000680A49B0FBF1F000FB02F40548456841
:100D800001E004484568E81AA042FAD300BFE6E74C
:100D900000000020001000E01000002040420F0082
:100DA00072B600BFFEE70146002291F8210002283A
:100DB00008D00420886300BF002081F8200000BF15
:100DC000012070470868006820F00E000B6818606A
:100DD0000868006820F001000B68186091F8403046
:100DE00001209840CB6B5860012081F8210000BFA2
:100DF000002081F8200000BF1046E2E770B50446ED
:100E0000002594F82100022803D00420A0630125C6
:100E100048E02068006820F00E0021680860206823
:100E2000006820F00100216808601F49206888429E
:100E300001D1012026E01C4914312068884201D1EB
:100E400010201FE0184928312068884201D1801500
:100E500018E015493C312068884201D1801411E026
:100E6000114950312068884202D14FF4803009E0A6
:100E70000D4964312068884202D14FF4801001E0AE
:100E80004FF08070084908394860012084F821003B
:100E900000BF002084F8200000BF606B10B1204626
:100EA000616B8847284670BD0800024070B5044653
:100EB00000F0AEF906462546681C10B104480078DB
:100EC000054400BF00F0A4F9801BA842FAD370BD0E
:100ED0000C0000202DE9F8470346002294466EE1FD
:100EE0004FF0010808FA02F4D1F8008008EA040083
:100EF000A0427DD1DFF8DCA2D1F80480A8EB0A097A
:100F0000D0453AD014DCB8F1030F50D009DCB8F169
:100F1000000F31D0B8F1010F1CD0B8F1020F49D148
:100F200020E0B8F1110F18D0B8F1120F42D11EE035
:100F3000B9F5881F25D006DCB9F5803F20D0B9F57A
:100F4000801F37D11AE0B9F5001F18D0B9F5041F7A
:100F500030D117E0D1F80CC02DE0D1F80C8008F1A9
:100F6000040C28E0D1F80C8008F1080C23E0D1F83B
:100F70000C8008F10C0C1EE000BF00BF00BF00BFDA
:100F800000BF00BFD1F80880B8F1000F02D14FF0C8
:100F9000040C0BE0D1F80880B8F1010F03D14FF039
:100FA000080C1C6102E04FF0080C5C6103E04FF09C
:100FB000000C00E000BF00BFFF2801D8984601E008
:100FC00003F104084646FF2802D84FEA820803E0EE
:100FD000A2F108084FEA88084746D6F800804FF08B
:100FE0000F0909FA07F928EA09080CFA07F900E0DD
:100FF00088E048EA0908C6F80080D1F8048008F0C3
:101000008058B8F1805F7DD100BFDFF8CC81D8F87F
:10101000188048F00108DFF8C091C9F81880C84668
:10102000D8F8188008F00108CDF8008000BF00BF94
:101030004FEAB9384FEA920958F829504FEA8278B6
:101040004FEA18794FF00F0808FA09F825EA080561
:10105000DFF88881434502D14FF0000816E0DFF841
:101060008081434502D14FF001080FE0DFF8748121
:10107000434502D14FF0020808E0DFF86C81434598
:1010800002D14FF0030801E04FF004084FEA8279E3
:101090004FEA197908FA09F848EA0505DFF84C81A2
:1010A0004FEA920948F82950D1F8048008F48018D2
:1010B000B8F5801F0AD1DFF83881D8F8008048EAF7
:1010C0000008DFF82C91C9F8008009E0DFF82081E2
:1010D000D8F8008028EA0008DFF81491C9F80080E9
:1010E000D1F8048008F40018B8F5001F10D1DFF81B
:1010F000008108F10408D8F8008048EA0008DFF809
:10110000F09000E05AE009F10409C9F800800DE010
:10111000DFF8DC8008F10408D8F8008028EA00082D
:10112000DFF8CC9009F10409C9F80080D1F80480F7
:1011300008F40038B8F5003F0ED1DFF8B480A8F10C
:101140000408D8F8008048EA0008DFF8A490A9F164
:101150000409C9F800800DE0DFF89480A8F10408C4
:10116000D8F8008028EA0008DFF88490A9F1040983
:10117000C9F80080D1F8048008F48038B8F5803FC1
:101180000ED1DFF86C80A8F10808D8F8008048EA92
:101190000008DFF85C90A9F10809C9F800800DE0AB
:1011A000DFF84C80A8F10808D8F8008028EA000889
:1011B000DFF83C90A9F10809C9F80080521CD1F869
:1011C000008028FA02F8B8F1000F7FF489AEBDE87C
:1011D000F8870000000011100010024000080140D4
:1011E000000C0140001001400014014008000140C3
:1011F00008040140024693680B400BB1012000E057
:10120000002070470AB1016101E00B0403617047DF
:10121000014800687047000004000020034800688F
:101220000349097808440149086070470400002018
:101230000C00002010B50848006840F01000064976
:101240000860032000F0A8F80F2000F007F800F075
:101250002BF8002010BD00000020024070B50446AD
:101260000E4800784FF47A71B1FBF0F00C49096830
:10127000B1FBF0F5284600F0F9FB08B1012070BD84
:10128000102C07D200222146501E00F047F80548D6
:10129000046001E00120F2E70020F0E70C000020EC
:1012A000100000200800002008B500BF1148806928
:1012B00040F001000F4988610846806900F0010094
:1012C000009000BF00BF00BF0846C06940F08050DA
:1012D000C8610846C06900F08050009000BF00BFA0
:1012E00000BF0549486820F0E06040F000704860A9
:1012F00000BF08BD00100240000001400146084642
:10130000002809DB00F01F0301229A4043099B00DB
:1013100003F1E023C3F8002100BF70472DE9F05F1F
:1013200080460D461646002702F0B8FC07463946AF
:101330002A46334601F00700C0F1070ABAF1040F4C
:1013400002D94FF0040A01E0C0F1070AD14600F1CA
:10135000040ABAF1070F02D24FF0000A01E0A0F12F
:10136000030AD4464FF0010A0AFA09FAAAF1010A5F
:101370000AEA020A0AFA0CFA4FF0010B0BFA0CFB0C
:10138000ABF1010B0BEA030B4AEA0B042146404682
:1013900002F08CFCBDE8F09F00BF00F00702064B96
:1013A00019684FF6FF031940044B0B4343EA02212F
:1013B000014B196000BF70470CED00E00000FA051A
:1013C00070B504460D460CB9012070BD5A4800683E
:1013D00000F00700A8420ED25748006820F007002E
:1013E0002843554908600846006800F00700A842F5
:1013F00001D00120E9E7207800F0020002281DD189
:10140000207800F00400042805D14C48406840F4DE
:10141000E0604A494860207800F00800082805D1BB
:101420004648406840F4605044494860434840683A
:1014300020F0F000A168084340494860207800F09F
:10144000010078B36068012806D13C48006800F4C8
:10145000003090B90120B8E76068022806D137480B
:10146000006800F0007040B90120AEE73348006822
:1014700000F0020008B90120A7E73048406820F0DA
:101480000300616808432D494860FFF7C1FE064626
:1014900009E0FFF7BDFE801B41F28831884202D986
:1014A000032092E707E02548406800F00C006168DF
:1014B000B0EB810FEDD12048006800F00700A84292
:1014C0000ED91D48006820F0070028431A4908601B
:1014D0000846006800F00700A84201D0012074E728
:1014E000207800F00400042807D11448406820F454
:1014F000E060E168084311494860207800F0080086
:10150000082808D10D48406820F46050216940EA5D
:10151000C1000A49486000F03FF808494968C1F332
:101520000311074A515CC840064908600648006834
:10153000FFF794FE002048E7002002400010024020
:10154000624B0008100000200800002001480068DD
:10155000704700001000002000B5FFF7F7FF0449B6
:101560004968C1F30221034A515CC84000BD000034
:1015700000100240724B000800B5FFF7E7FF044976
:101580004968C1F3C221034A515CC84000BD000054
:1015900000100240724B000870B5002100220024A8
:1015A00000230020134D696801F00C05F5B1042DEE
:1015B00002D0082D19D101E00F4819E00F4DC1F3F9
:1015C0008346AB5D01F4803555B10A4D6D68C5F3B6
:1015D00040450B4E725D084D5D43B5FBF2F402E0F1
:1015E000084D03FB05F4204602E000BF024800BF9F
:1015F00000BF70BD0010024000127A00504B00087E
:10160000604B000800093D00F8B504460CB9012004
:10161000F8BD207800F00100002878D0F848406834
:1016200000F00C0004280CD0F548406800F00C00D5
:10163000082811D1F248406800F48030B0F5803FAE
:101640000AD1EF48006800F4003000285FD06068DD
:1016500000285CD10120DBE700BF6068B0F5803F67
:1016600006D1E748006840F48030E549086028E08A
:10167000606858B9E248006820F48030E0490860AA
:101680000846006820F4802008601AE06068B0F521
:10169000A02F0BD1DA48006840F48020D8490860B8
:1016A0000846006840F4803008600AE0D4480068CA
:1016B00020F48030D24908600846006820F4802079
:1016C000086000BF606888B1FFF7A2FD054606E02C
:1016D000FFF79EFD401B642801D9032098E7C84806
:1016E000006800F400300028F2D010E0FFF790FD11
:1016F000054606E0FFF78CFD401B642801D9032056
:1017000086E7BF48006800F400300028F2D1207856
:1017100000F00200022857D1B948406800F00C00E0
:1017200050B1B748406800F00C00082818D1B44800
:10173000406800F4803098B9B148006800F00200B9
:1017400020B12069012801D0012061E7AC48006880
:1017500020F0F800616940EAC100A949086033E05F
:101760002069E8B10120A7490860FFF751FD05464F
:1017700006E0FFF74DFD401B022801D9032047E793
:101780009F48006800F002000028F2D09C480068E2
:1017900020F0F800616940EAC1009949086013E04F
:1017A000002098490860FFF733FD054606E0FFF783
:1017B0002FFD401B022801D9032029E7904800682B
:1017C00000F002000028F2D1207800F0080008287C
:1017D0002DD1A069B8B101208B490860FFF718FD31
:1017E000054606E0FFF714FD401B022801D903203F
:1017F0000EE78348406A00F002000028F2D0012082
:1018000001F08CFE13E000207F490860FFF700FD27
:10181000054606E0FFF7FCFC401B022801D9032027
:10182000F6E67748406A00F002000028F2D12078FE
:1018300000F00400042873D100277148C06900F04B
:10184000805070B900BF6E48C06940F080506C494C
:10185000C8610846C06900F08050009000BF00BF1A
:1018600001276A48006800F48070B0B967480068D2
:1018700040F4807065490860FFF7CAFC054606E041
:10188000FFF7C6FC401B642801D90320C0E65F486F
:10189000006800F480700028F2D000BFE0680128E2
:1018A00006D15748006A40F001005549086227E018
:1018B000E06858B95248006A20F0010050490862B7
:1018C0000846006A20F00400086219E0E068052874
:1018D0000BD14B48006A40F00400494908620846B1
:1018E000006A40F0010008620AE04548006A20F002
:1018F0000100434908620846006A20F004000862BB
:1019000000BFE068A0B1FFF783FC054609E0FFF7E0
:101910007FFC401B41F28831884202D9032077E6E0
:1019200022E03748006A00F002000028EFD012E001
:10193000FFF76EFC054608E0FFF76AFC401B41F22A
:101940008831884201D9032062E62D48006A00F000
:1019500002000028F0D1012F05D12948C06920F0EC
:1019600080502749C86100BFE069C8B32448406877
:1019700000F00C00082860D0E069022848D100205F
:1019800020490866FFF744FC054606E0FFF740FCE7
:10199000401B022801D903203AE61948006800F0EC
:1019A00000700028F2D1206AB0F5803F07D11448BA
:1019B000406820F40030A168084311494860D4E928
:1019C000080108430E49496821F4741108430C4981
:1019D000486001200B490866FFF71AFC054607E03E
:1019E0003DE0FFF715FC401B022801D903200FE65C
:1019F0000348006800F000700028F2D02FE00000DB
:101A00000010024000004242800442420070004048
:101A1000002014490866FFF7FBFB054606E0FFF7C8
:101A2000F7FB401B022801D90320F1E50E480068AE
:101A300000F000700028F2D111E0E069012800D127
:101A4000E6E50948466806F48031206A814204D1FF
:101A500006F47011606A814201D00120D8E50020AF
:101A6000D6E50000000042420010024070B5044676
:101A70002546681EB0F1807F01D301200FE0681E6B
:101A80004FF0E02148610F214FF0FF3002F00EF9D6
:101A900000204FF0E021886107200861002070BD20
:101AA0007047704730B502460B4600BF92F83C00C5
:101AB000012801D1022030BD012082F83C0000BF86
:101AC000022082F83D00106844681068816824F0A4
:101AD00070041868044310684460104D1068A842F0
:101AE0000BD01068B0F1804F07D00D4D1068A842A0
:101AF00003D00C4D1068A84205D121F08001586830
:101B0000014310688160012082F83D0000BF002081
:101B100082F83C0000BF00BFCDE70000002C014070
:101B2000000400400008004010B504460CB9012034
:101B300010BD94F83D0028B9002084F83C002046F0
:101B400000F026F8022084F83D00211D206801F0F5
:101B50007DFD012084F8460000BF84F83E0001218D
:101B60003F200155402001554120015500BF00BFD5
:101B7000012084F8420043200155442001554520AE
:101B8000015500BF012084F83D000020D0E700008F
:101B900038B504461649206888420DD100BF154863
:101BA000C06940F002001349C8610846C06900F0EE
:101BB0000200009000BF19E00F492068884215D14B
:101BC00000BF0C48C06940F004000A49C8610846DB
:101BD000C06900F00400009000BF00BF00220F2188
:101BE0001E20FFF79BFB1E20FFF788FB38BD00007F
:101BF0000004004000100240000800402DE9F041C0
:101C000004460D46002700BF94F83C00012802D18D
:101C10000220BDE8F081012084F83C0000BF0220D2
:101C200084F83D002068866826F0770626F47F4613
:101C3000206886602868502833D00CDC202850D0DB
:101C400004DC00284BD0102851D149E0302849D07D
:101C500040284CD139E060282DD0702807D0B0F54D
:101C6000805F03D0B0F5005F41D10DE041E0D5E9E0
:101C700002136A68206801F03CFD2068866846F01F
:101C800077062068866034E0D5E902136A68206828
:101C900001F02FFD2068806840F480402168886052
:101CA00027E0EA686968206801F090FD502120680B
:101CB00001F02AFD1DE0EA686968206801F0CEFDA8
:101CC0006021206801F020FD13E0EA68696820685F
:101CD00001F07CFD4021206801F016FD09E000BF05
:101CE00000BF00BF2968206801F00EFD01E0012758
:101CF00000BF00BF012084F83D0000BF002084F831
:101D00003C0000BF384684E770472DE9F0410446A7
:101D10000D461646002700BF94F83C00012802D16A
:101D20000220BDE8F081012084F83C0000BF96B994
:101D3000EB68D5E90012206801F05CFD206880693D
:101D400020F00C002168886120688069A968084338
:101D50002168886141E0042E13D1EB68D5E90012B7
:101D6000206801F08FFD2068806920F440602168C0
:101D7000886120688069A96840EA0120216888613B
:101D80002BE0082E12D1EB68D5E90012206801F093
:101D900096FD2068C06920F00C002168C8612068A9
:101DA000C069A96808432168C86116E00C2E13D1E8
:101DB000EB68D5E90012206801F09DFD2068C0693C
:101DC00020F440602168C8612068C069A96840EAC1
:101DD00001202168C86100E0012700BF002084F8CD
:101DE0003C0000BF38469CE72DE9F04104460D4613
:101DF00015B994F83E000BE0042D02D13F20005DA0
:101E000006E0082D02D14020005D01E04120005D88
:101E1000074615B994F842000BE0042D02D1432087
:101E2000005D06E0082D02D14420005D01E0452060
:101E3000005D8046012F02D1B8F1010F02D00120D0
:101E4000BDE8F0811DB9022084F83E000EE0042DAB
:101E500003D102213F20015508E0082D03D10221C2
:101E60004020015502E00221412001551DB9022008
:101E700084F842000EE0042D03D1022143200155D5
:101E800008E0082D03D102214420015502E002217F
:101E90004520015501222946206801F019FC12490C
:101EA000206888420BD02068B0F1804F07D00F49DE
:101EB0002068884203D00E49206888420CD12068EF
:101EC000806800F00706062E0CD02068006840F0FD
:101ED00001002168086005E02068006840F001000A
:101EE000216808600020ABE7002C0140000400409E
:101EF0000008004070B504462068C568206806697F
:101F000006F00200022819D105F00200022815D1BE
:101F1000401F21680861012020772068806900F057
:101F2000030018B12046FFF7EFFE05E0204600F061
:101F300097F8204600F095F80020207706F004007E
:101F4000042819D105F00400042815D1C0432168E4
:101F50000861022020772068806900F4407018B181
:101F60002046FFF7D1FE05E0204600F079F8204634
:101F700000F077F80020207706F00800082819D133
:101F800005F00800082815D1C04321680861042025
:101F900020772068C06900F0030018B12046FFF7E1
:101FA000B3FE05E0204600F05BF8204600F059F84B
:101FB0000020207706F01000102819D105F010003D
:101FC000102815D1C04321680861082020772068B7
:101FD000C06900F4407018B12046FFF795FE05E097
:101FE000204600F03DF8204600F03BF80020207726
:101FF00006F0010048B105F0010030B16FF00100BA
:1020000021680861204600F02DF806F08000802845
:1020100009D105F08000802805D1C04321680861FE
:102020002046FFF73DFD06F04000402809D105F0AD
:102030004000402805D1C04321680861204600F0D7
:1020400048F806F02000202809D105F020002028BB
:1020500005D1C043216808612046FFF722FD70BD0D
:1020600070477047704770B504460D4600BF94F83E
:102070003C00012801D1022070BD012084F83C0001
:1020800000BF022084F83D002946204601F045FBB0
:1020900048B1012084F83D0000BF002084F83C00D6
:1020A00000BF0120E8E72068C06820F040002168F8
:1020B000C8602068C06820F480402168C8600120A2
:1020C00084F83D0000BF002084F83C0000BF00BF42
:1020D000D2E77047704770472DE9F84F04462068F3
:1020E00005682068C668206847694FF00009CA463D
:1020F00005F00F09B9F1000F0AD105F0200038B141
:1021000006F0200020B1204601F063FCBDE8F88F06
:10211000B9F1000F7BD007F0010018B906F49070F8
:10212000002874D005F0010030B106F4807018B1B9
:10213000606C40F00100606405F0040030B107F00D
:10214000010018B1606C40F00200606405F002000C
:1021500030B107F0010018B1606C40F00400606419
:1021600005F0080048B106F0200010B907F00100A2
:1021700018B1606C40F008006064606C002845D0C5
:1021800005F0200028B106F0200010B1204601F033
:1021900020FC20684069C0F3801A606C00F00800E1
:1021A00010B9BAF1000F2CD0204601F0CCFB20680A
:1021B000406900F0400000B300BF00BF2168143147
:1021C00051E8001F21F040002168143141E800026D
:1021D000002AF3D100BFE06B50B17748E16B486350
:1021E000E06BFEF70BFE88B1E06B416B88470DE0BA
:1021F0002046FFF770FF09E009E02046FFF76BFF7C
:1022000004E02046FFF767FF002060647EE7206B54
:10221000012877D105F01000002873D006F01000D7
:102220000028FAD000BF00200090206800680090CD
:1022300020684068009000BF00BF2068406900F03F
:10224000400000285FD0E06B006840681FFA80F80B
:10225000B8F1000F55D0A08D404552DDA4F82E8076
:10226000E06B8069202843D000BF00BF21680C319B
:1022700051E8001F21F4807021680C3141E8000210
:10228000002AF3D100BF00BF00BF2168143151E81C
:10229000001F21F001002168143141E80002002AEA
:1022A000F3D100BF00BF00BF2168143151E8001F07
:1022B00021F040002168143141E80002002AF3D1E6
:1022C00000BF202084F842000020206300BF00BF30
:1022D00021680C3151E8001F21F0100021680C31F9
:1022E00041E80002002AF3D100BFE06BFEF75BFD7E
:1022F00002206063A08DE28D801A81B22046FFF734
:10230000E9FE03E742E0A08DE18D401A1FFA80F854
:10231000E08DD0B3B8F1000F37D000BF00BF216807
:102320000C3151E8001F21F4907021680C3141E814
:102330000002002AF3D100BF00BF00BF21681431A2
:1023400051E8001F21F001002168143141E800022A
:10235000002AF3D100BF202084F84200002020632F
:1023600000BF00BF21680C3151E8001F21F01000B0
:1023700021680C3141E80002002AF3D100BF02209D
:10238000606341462046FFF7A5FEBFE605F08000EA
:1023900030B106F0800018B1204601F017FCB5E618
:1023A00005F0400030B106F0400018B1204601F0C1
:1023B00000FBABE600BFA9E63339000810B50446C0
:1023C0000CB9012010BDA06900B100E000BF94F875
:1023D000410028B9002084F84000204600F02AF887
:1023E000242084F841002068C06820F4005021684F
:1023F000C860204601F06CFB2068006920F4904022
:10240000216808612068406920F02A00216848613D
:102410002068C06840F400502168C86000206064F3
:10242000202084F8410084F842000020606300BF4F
:10243000C8E7000010B586B0044600200290039063
:10244000049005903B492068884237D100BF3A4844
:10245000806940F48040384988610846806900F40A
:102460008040019000BF00BF00BF0846806940F077
:10247000040088610846806900F00400019000BFF4
:1024800000BF48150290022003900320059002A986
:102490002A48FEF71FFD4FF4806002900020039051
:1024A000049002A92548FEF715FD002211462520BB
:1024B000FEF734FF2520FEF721FF39E02049206890
:1024C000884235D100BF1C48C06940F400301A4929
:1024D000C8610846C06900F40030019000BF00BF29
:1024E00000BF0846806940F00400886108468069A2
:1024F00000F00400019000BF00BF04200290022001
:1025000003900320059002A90C48FEF7E3FC082085
:10251000029000200390049002A90848FEF7DAFC1C
:10252000002211462620FEF7F9FE2620FEF7E6FEE1
:1025300006B010BD00380140001002400008014004
:10254000004400407047704700BFFEE70448006841
:10255000416B09B9002070470248B0FBF1F0FAE77F
:1025600058050020C027090000B58FB000BF3148D2
:10257000C06940F001002F49C8610846C06900F0F9
:102580000100019000BF00BF00BF0846806940F015
:10259000040088610846806900F00400019000BFD3
:1025A00000BF00200B900C900D900E9001200B901E
:1025B00000200C9001200D9003200E900BA91E48C6
:1025C000FEF788FC4FF080401C49086041F61F4030
:1025D00048600021194881604FF6FF71C1600021F9
:1025E00001614161FFF7A0FA00200790089009906F
:1025F0000A90079001200890002009900F200A906F
:10260000002207A90D48FFF780FB142102A8FDF75F
:10261000A2FD50200390042002900020049002A903
:102620000648FFF720FD00210448FFF7DDFB0FB04F
:1026300000BD0000001002400008014058050020C5
:1026400010B500244FF400512848FEF7D3FD70B9AF
:102650001420FEF72BFC00BF4FF400512348FEF777
:10266000C9FD0028F8D01420FEF720FC0124102119
:102670001F48FEF7BFFD68B91420FEF717FC00BF26
:1026800010211B48FEF7B6FD0028F9D01420FEF7F4
:102690000DFC02244FF480611648FEF7ABFD70B9C3
:1026A0001420FEF703FC00BF4FF480611148FEF7D1
:1026B000A1FD0028F8D01420FEF7F8FB03244FF406
:1026C00080510B48FEF796FD70B91420FEF7EEFB23
:1026D00000BF4FF480510648FEF78CFD0028F8D06B
:1026E0001420FEF7E3FB0424204610BD0010014037
:1026F00000080140000C01402DE9F04106460C465F
:102700001746002E28D024B1012C0DD0022C21D147
:1027100015E0012505E03946284600F0F1F8681C6F
:10272000C5B2092DF7DB16E0012505E0394628463C
:1027300000F07CF8681CC5B2052DF7DB0BE0012525
:1027400005E03946284600F0A3F9681CC5B2052DFE
:10275000F7DB00E000BF28E024B1012C0DD0022CF3
:1027600021D115E0082505E03946284600F0C8F8D3
:10277000681EC5B2002DF7DC16E0042505E03946D9
:10278000284600F053F8681EC5B2002DF7DC0BE0B8
:10279000042505E03946284600F07AF9681EC5B2DE
:1027A000002DF7DC00E000BF00BFBDE8F0810000B5
:1027B0002DE9F05F0746884614461D46002606E0D0
:1027C0002A4641463846FFF797FF701C86B22146DD
:1027D0004FF08540FDF730FD83460749FDF75EFD6C
:1027E00081463046FDF729FF82464946FDF7CEFF78
:1027F000E6D3BDE8F09F00000000344210B501228E
:1028000011030948FEF7FEFC012251030648FEF7BA
:10281000F9FC012291030448FEF7F4FC0122D103E4
:102820000148FEF7EFFC10BD000C014070B50446F6
:102830000D46052C5DD2DFE804F003041A30460093
:1028400057E000224FF480512C48FEF7DBFC0122B8
:1028500051032A48FEF7D6FC012291032748FEF7D0
:10286000D1FC0122D1032548FEF7CCFC41E0012236
:1028700011032248FEF7C6FC00224FF400511F4806
:10288000FEF7C0FC012291031C48FEF7BBFC0122AD
:10289000D1031A48FEF7B6FC2BE0012211031748BA
:1028A000FEF7B0FC012251031448FEF7ABFC0022F6
:1028B0004FF480411148FEF7A5FC0122D1030F48D7
:1028C000FEF7A0FC15E0012211030C48FEF79AFC6C
:1028D000012251030948FEF795FC012291030748A4
:1028E000FEF790FC00224FF400410448FEF78AFCFA
:1028F00000BF00BF2846FEF7D9FA70BD000C0140AA
:1029000070B504460D46092C06D2DFE804F0050632
:102910001C334960768DA300B3E000224FF4805150
:102920005A48FEF76FFC012251035848FEF76AFC33
:10293000012291035548FEF765FC0122D10353485B
:10294000FEF760FC9DE000224FF480514F48FEF7F7
:1029500059FC00224FF400514C48FEF753FC012271
:1029600091034A48FEF74EFC0122D1034748FEF787
:1029700049FC86E0012211034448FEF743FC002293
:102980004FF400514148FEF73DFC012291033F48BE
:10299000FEF738FC0122D1033C48FEF733FC70E01F
:1029A000012211033948FEF72DFC00224FF400519B
:1029B0003648FEF727FC00224FF480413348FEF7EB
:1029C00021FC0122D1033148FEF71CFC59E0012211
:1029D00011032E48FEF716FC012251032B48FEF787
:1029E00011FC00224FF480412848FEF70BFC012225
:1029F000D1032648FEF706FC43E0012211032348D9
:102A0000FEF700FC012251032048FEF7FBFB0022E9
:102A10004FF480411D48FEF7F5FB00224FF40041C2
:102A20001A48FEF7EFFB2CE0012211031748FEF7CE
:102A3000E9FB012251031548FEF7E4FB0122910353
:102A40001248FEF7DFFB00224FF400410F48FEF76B
:102A5000D9FB16E000224FF480510C48FEF7D2FB60
:102A6000012251030948FEF7CDFB012291030748DB
:102A7000FEF7C8FB00224FF400410448FEF7C2FBFA
:102A800000BF00BF2846FEF711FA70BD000C0140E0
:102A900070B504460D46052C61D2DFE804F003044E
:102AA0001B3249005BE000224FF480512E48FEF7B4
:102AB000A9FB012251032C48FEF7A4FB012291033C
:102AC0002948FEF79FFB00224FF400412648FEF7FD
:102AD00099FB44E000224FF480512348FEF792FB1B
:102AE00000224FF400512048FEF78CFB0122910395
:102AF0001D48FEF787FB0122D1031B48FEF782FB2E
:102B00002DE0012211031848FEF77CFB00224FF450
:102B100000511548FEF776FB00224FF48041124821
:102B2000FEF770FB0122D1030F48FEF76BFB16E0A6
:102B3000012211030C48FEF765FB012251030A48EC
:102B4000FEF760FB00224FF480410748FEF75AFB76
:102B500000224FF400410448FEF754FB00BF00BFC1
:102B60002846FEF7A3F970BD000C014010B5012204
:102B700011030948FEF746FB012251030648FEF700
:102B800041FB012291030448FEF73CFB0122D103E3
:102B90000148FEF737FB10BD000C014000B585B0C1
:102BA0000020019002900390049000BF404880698B
:102BB00040F010003E4988610846806900F010002E
:102BC000009000BF00BF00BF0846806940F02000B1
:102BD00088610846806900F02000009000BF00BFB7
:102BE00000BF0846806940F004008861084680699B
:102BF00000F00400009000BF00BF00BF08468069DD
:102C000040F0080088610846806900F008000090E4
:102C100000BF00BF01224FF472412648FEF7F2FACE
:102C2000012211022448FEF7EDFA0022C0212148BA
:102C3000FEF7E8FA4FF400500190002002900120C6
:102C4000039001A91D48FEF745F941F210000190DB
:102C5000002002900120039001A91748FEF73AF9DD
:102C600040F201400190002002900120039001A950
:102C70001048FEF72FF94FF2C0200190012002907A
:102C8000002003900220049001A90A48FEF722F9CF
:102C90004FF48070019011200290002003900220D8
:102CA000049001A90448FEF715F905B000BD000025
:102CB00000100240000C01400008014000100140DB
:102CC00000B587B000200390049005900690019015
:102CD0000290144814490860EF204860002112480F
:102CE00081604FF6FF71C160002101618161FEF7D3
:102CF0001BFF08B1FEF754F84FF48050039003A96E
:102D00000948FEF77BFF08B1FEF74AF80020019062
:102D1000029001A90448FEF7C5FE08B1FEF740F88D
:102D200007B000BD000400402800002000B587B0B7
:102D300000200390049005900690019002901448A2
:102D4000144908604720486000211248816040F221
:102D5000E731C160002101618161FEF7E5FE08B144
:102D6000FEF71EF84FF48050039003A90948FEF7C0
:102D700045FF08B1FEF714F800200190029001A968
:102D80000448FEF78FFE08B1FEF70AF807B000BD51
:102D9000000800407000002010B50B480B49086087
:102DA0004FF416504860002108488160C1600161FD
:102DB0000C21416100218161C161FFF7FFFA08B177
:102DC000FDF7EEFF10BD000000380140B800002004
:102DD00010B50B480B4908604FF4E1304860002102
:102DE00008488160C16001610C214161002181615D
:102DF000C161FFF7E3FA08B1FDF7D2FF10BD000093
:102E0000004400400001002000BFFEE710B5FFF7BE
:102E10009DFB31490988401A04B206E002232F4A7B
:102E200000210120FFF7C4FC03E0142C01DD3C2C41
:102E3000F4DD00BF06E00223284A00210846FFF720
:102E4000B7FC05E014F1140F02DA14F13C0FF2DACA
:102E500000BF06E00223224A00210120FFF7A8FC60
:102E600003E0052C01DD142CF4DD00BF06E0022395
:102E70001B4A00210846FFF79BFC05E014F1050FF3
:102E800002DA14F1140FF2DA00BF06E00223154A49
:102E900000210120FFF78CFC03E0022C01DD052C52
:102EA000F4DD00BF06E002230E4A00210846FFF7CA
:102EB0007FFC05E014F1020F02DA14F1050FF2DADB
:102EC00000BF02E0FFF752FE04E014F1020F01DB45
:102ED000022CF7DD00BF10BD200000200000B44030
:102EE000000034400000B43F00BFFEE700200CE0CB
:102EF000002106E00022064B03EBC0135A544A1C83
:102F0000D1B28029F6DB421CD0B20828F0DB704732
:102F1000480100202DE9F04304460D4616461F46A1
:102F2000284638E0224631E0002A2DDB7F2A2BDCC0
:102F3000002829DB3F2827DC4FEAE07C00EB5C7CA3
:102F40004FEAEC0CDFF8588008EBCC1C1CF802C0F0
:102F500003464FEAE07800EB58784FEAE808A0EB28
:102F6000C8094FF0010808FA09F82CEA080C0146D4
:102F70004FEAE07800EB58784FEAE808DFF8209055
:102F800009EBC81808F802C0511C0AB2A1199142F5
:102F9000CADC411C08B2E9198142C3DCBDE8F083F8
:102FA0004801002070B5002406E0002500E06D1CFB
:102FB000B5F57A7FFBD3641CB4F57A7FF5D3012095
:102FC00000F070FA012000F077FA70BD70B5054688
:102FD000002411E080212141294009B1012100E0B4
:102FE0000021084600F068FA012000F05BFA00209A
:102FF00000F058FA601CC4B2082CEBDB012000F092
:1030000051FA002000F04EFA70BD10B5012000F01A
:1030100053FA012000F046FA002000F04DFA00209B
:1030200000F040FA10BD10B5002000F045FA012074
:1030300000F038FA012000F03FFA10BD10B5FFF79C
:10304000B1FFAE2000F042FAD52000F03FFA802018
:1030500000F03CFAA82000F039FA3F2000F036FAE0
:10306000D32000F033FA002000F030FA402000F0C6
:103070002DFAA12000F02AFAC82000F027FADA2061
:1030800000F024FA122000F021FA812000F01EFA4C
:10309000CF2000F01BFAD92000F018FAF12000F040
:1030A00015FADB2000F012FA302000F00FFAA4200D
:1030B00000F00CFAA62000F009FA8D2000F006FAC4
:1030C000142000F003FAAF2000F000FAFFF70EFF23
:1030D00000F0D4F910BD10B50246012000E05043C5
:1030E0000B1EA1F10101FAD110BD0FB470B5C2B031
:1030F00005460E4614464AA8019002A8019A49992D
:1031000000F0BAFD00200190234602AA314628466D
:1031100000F09CF942B070BC5DF814FB70B5054638
:103120000C4645F0B00000F0D1F9102141EA14102E
:1031300000F0CCF904F00F0000F0C8F970BD0000F9
:10314000F8B506460F4614461D46082D0CD1A4F1CD
:1031500020000E4901EB0010102308223946009090
:10316000304600F0CFF80FE0062D0DD1A4F120007D
:1031700000EB4000064901EB4000082306223946D7
:103180000090304600F0BEF8F8BD00007A4B000811
:103190006A5100082DE9FC478046894616460027FB
:1031A0000020019000253AE0705D01A9C855781C07
:1031B000C7B2022F31DB002700240CE0C4EBC401AE
:1031C00001EB8101184A881801A9FCF7CFFF00B96B
:1031D0000CE0601CC4B2C4EBC40101EB8101124AD3
:1031E000881812A1FCF7C2FF0028E7D100BFC4EB8A
:1031F000C40000EB80000C490844C01C05F1010A22
:103200000AEBDA714910491E08EB0111009008B26F
:1032100010231A46494600F075F8681CC5B2705D67
:103220000028C1D1BDE8FC87A453000800000000BD
:103230002DE9FF5F86B0074614461D46DDF8508035
:10324000169E0022134620462946FDF76BFA06D843
:1032500033462B2238460799FFF772FF07E03346C3
:103260002D2238460799FFF76BFF85F00045204671
:103270002946FDF713FA82465046FDF7E3F9224648
:103280002B46CDE90401FDF7EBF804460D460A2074
:103290001599FFF720FF81464846FDF7D3F92246EE
:1032A0002B46CDE90001FDF7DEF8CDE9020101F082
:1032B00083FBCDE90401FDF7F1F98346BBFBF9F08F
:1032C0008244B91908B2434652460096079900F065
:1032D00097F808F1010101FB067108B233462E226E
:1032E0000799FFF72DFF08F1020101FB067108B2F3
:1032F00000965A46159B079900F082F80AB0BDE87F
:10330000F09F00002DE9FF4F80460E469146DDF804
:1033100034B0002500244A4631464046039BFFF75F
:10332000F9FD00BF5EE0002558E008EB050000282D
:1033300052DB08EB05007F284EDC3046F11706EB28
:103340005171C9100FB2F11706EB5171C910A6EBFC
:10335000C10A002E05DA781E07B20AF108000FFA3A
:1033600080FA3819002817DB3819072814DC3819B7
:10337000224901EBC01008EB0501405C04FB095138
:103380001BF8011001FA0AF1084339191B4A02EB34
:10339000C11108EB050288543819401C00281BDBBA
:1033A0003819401C072817DC3819401C134901EB59
:1033B000C01008EB0501405C04FB09511BF801102B
:1033C000CAF10802114108433919491C0B4A02EBA2
:1033D000C11108EB05028854681CC5B24D45A4DB39
:1033E000601CC4B20399481EC11700EB5171012241
:1033F00002EBE101A14296DCBDE8FF8F480100200D
:103400002DE9F0470646894617461D46DDF820801F
:10341000002417E0281B411E0A20FFF75CFEB7FBC3
:10342000F0F00A21B0FBF1F201FB120000F1300ACA
:1034300004FB086108B2434652464946FFF780FE46
:10344000601CC4B2AC42E5DBBDE8F0872DE9F04179
:103450000646884615461F46002409E02A5D04FBFF
:10346000076108B23B464146FFF76AFE601CC4B2E2
:10347000285D0028F2D1BDE8F081000010B50024DD
:103480000BE000212046FFF749FE054901EBC4107F
:10349000802100F02BF8601CC4B2082CF1DB10BDB9
:1034A0004801002010B50446224640210148FDF79E
:1034B000A9FE10BD000C014010B504462246802133
:1034C0000148FDF79FFE10BD000C014010B50446F9
:1034D000FFF79BFD7820FFF779FD0020FFF776FDD1
:1034E0002046FFF773FDFFF79EFD10BD70B5054642
:1034F0000E46FFF78AFD7820FFF768FD4020FFF7B2
:1035000065FD002404E0285DFFF760FD601CC4B287
:10351000B442F8DBFFF787FD70BD704708B5084976
:103520000968C9084FF47A72B1FBF2F14143009186
:1035300000BF00BF00994A1E00920029F9D108BDC2
:103540001000002010B5012211020248FDF75AFEBA
:1035500010BD00000008014010B500224FF480713A
:103560000148FDF74FFE10BD0008014070B513493A
:1035700013480068FCF792FE044602E0FFF7ECFFF8
:103580000AE021460F480068FCF750FE05464FF060
:103590008041FDF705F9F1D300BF02E0FFF7D2FF4C
:1035A0000AE0084801682046FCF740FE05464FF057
:1035B0008041FDF7F5F8F1D300BF70BD0000204158
:1035C000140000201C000020704710B5FDF726FEF7
:1035D00010BD00B58FB0282105A8FCF7BCFD142153
:1035E0006846FCF7B8FD0120059000040690002015
:1035F00007900120099002200C90C1030D914FF417
:10360000E0110E9105A8FDF7FFFF08B1FDF7C8FB1B
:103610000F20009002200190002002904FF4806063
:1036200003900020049002216846FDF7C9FE08B10E
:10363000FDF7B6FB0FB000BD7047000010B50248A3
:10364000FEF758FC10BD00007000002010B50268A5
:103650001C4B984208D0B0F1804F05D01A4B9842CD
:1036600002D01A4B984203D122F070024B681A43E1
:10367000144B984208D0B0F1804F05D0124B9842BD
:1036800002D0124B984203D122F44072CB681A4305
:1036900022F080034C6943EA040202608B68C36233
:1036A0000B688362074B984201D10B6903630123C6
:1036B0004361036903F001031BB1036923F00103B4
:1036C000036110BD002C01400004004000080040D0
:1036D00030B501F01F05012404FA05F3046A9C4388
:1036E0000462046A01F01F0502FA05F52C43046226
:1036F00030BD30B50C46816821F47F4142EA032594
:1037000025432943816030BD0A46816821F070015C
:1037100042F007031943816070472DE9F0470546E1
:103720000C464FF000092868866826F0700660682D
:10373000064326F00706206806432868866060680E
:1037400000F00F0100293BD10011082838D2DFE832
:1037500000F0333435360B272D04D4E90313A26867
:103760002868FFF7C6FF2EE02068052802D1012057
:10377000BDE8F0872868D0F820802868006A20F02B
:103780000100296808622868876927F0F007206926
:1037900047EA0017286887612868C0F8208012E08F
:1037A0002269A168286800F011F80CE02269A1687C
:1037B000286800F053F806E000BF00BF00BF02E039
:1037C0004FF0010900BF00BF4846D1E730B50B46B6
:1037D0001446026A056A25F001050562816921F037
:1037E000F00141EA041122F00A021A4381610262E7
:1037F00030BD000070B50C461546026A066A26F018
:10380000010606628169124EB04208D0B0F1804FC5
:1038100005D0104EB04202D00F4EB04201D1012669
:1038200000E000261EB121F00301294301E041F030
:10383000010121F0F001F02606EA0316314322F0DF
:103840000A0204F00A0632438161026270BD000080
:10385000002C0140000400400008004030B50B4639
:103860001446026A056A25F010050562816921F493
:10387000704141EA043122F0A00242EA0312816160
:10388000026230BD70B50C461546026A066A26F023
:1038900010060662816921F4407141EA052121F494
:1038A00070414FF4704606EA0336314322F0A0021D
:1038B000A02606EA041632438161026270BD70B52B
:1038C0000C461546026A066A26F480760662C169CD
:1038D00021F00301294321F0F001F02606EA031646
:1038E000314322F400724FF4007606EA0426324394
:1038F000C161026270BD70B50C461546026A066A67
:1039000026F480560662C16921F4407141EA05211E
:1039100021F470414FF4704606EA0336314322F435
:1039200000524FF4005606EA04363243C161026287
:1039300070BD70B505466C6A0020E085E0842046C5
:10394000FEF7C9FB70BD00BF00BF02680C3252E831
:10395000002F22F4907102680C3242E80013002B11
:10396000F3D100BF00BF00BF0268143252E8002F3D
:1039700022F001010268143242E80013002BF3D157
:1039800000BF016B01290ED100BF00BF02680C32DD
:1039900052E8002F22F0100102680C3242E80013B6
:1039A000002BF3D100BF202180F8421000210163D9
:1039B000704710B504462068C06820F040002168B8
:1039C000C860202084F841002046FEF7BCFD00209E
:1039D00010BDF8B5044694F84200222875D1A068BD
:1039E000B0F5805F0CD1206950B90025A66A206827
:1039F0004068C0F308003080A06A801CA06215E017
:103A0000A56A0026A068B0F5805F03D0A06828B939
:103A1000206918B920684068287004E02068406870
:103A200000F07F002870A06A401CA062E08D401E5C
:103A300080B2E085002846D12068C06820F02000D0
:103A40002168C8602068C06820F480702168C86060
:103A50002068406920F0010021684861202084F836
:103A6000420000206063206B012826D100202063E3
:103A700000BF00BF21680C3151E8001F21F0100089
:103A800021680C3141E80002002AF3D100BF206810
:103A9000006800F0100010280AD100BF002000903C
:103AA00020680068009020684068009000BF00BF58
:103AB000A18D2046FEF70EFB02E02046FEF742FDF8
:103AC0000020F8BD01E00020FBE70220F9E700003C
:103AD00070B504462168096921F44051E268114338
:103AE000226811612269A1681143626941EA0205F5
:103AF0002168C96841F20C62914329432268D16070
:103B00002168496921F44071A26911432268516119
:103B10002D4A2168914202D1FDF72EFD01E0FDF70B
:103B20001BFD00EBC00101EB001162689200B1FBCC
:103B3000F2F100EBC00202EB001263689B00B2FBE3
:103B4000F3F26423B2FBF3F202EBC20303EB0212C3
:103B5000A1EB8201322202EB01116422B1FBF2F1EE
:103B600001F0F00100EBC00202EB001263689B0061
:103B7000B2FBF3F26423B2FBF3F201EB021200EBAF
:103B8000C00101EB001163689B00B1FBF3F100EB96
:103B9000C00303EB00136668B600B3FBF6F36426BC
:103BA000B3FBF6F303EBC30606EB0313A1EB8301B0
:103BB000322303EB01116423B1FBF3F101F00F0198
:103BC00011442268916070BD00380140014691F8AF
:103BD0004100212828D18868B0F5805F0BD10869A1
:103BE00048B90A6A1088C0F308000B685860086A70
:103BF000801C086205E00B6A581C086218780B6884
:103C00005860C88C401E80B2C88458B90868C06823
:103C100020F080000B68D8600868C06840F0400061
:103C20000B68D860002070470220FCE710B50248FE
:103C3000FEF752FA10BD0000B800002010B502488F
:103C4000FEF74AFA10BD00000001002000BFFEE7A9
:103C500010B5012401210748FDF7CCFA08B900246A
:103C600006E001210348FDF7C5FA012800D101242F
:103C7000204610BD000C014037B514460846064BDF
:103C80006A46214600F0F8F804466946002000F034
:103C900076FC20463EBD00007F45000802480068D3
:103CA000C0F30220704700000CED00E010B50028C2
:103CB00004DB0A07130E054A135406E00A07140E24
:103CC000034A00F00F031B1FD45410BD00E400E0B2
:103CD00018ED00E002E008C8121F08C1002AFAD15E
:103CE00070477047002001E001C1121F002AFBD17C
:103CF000704700002DE9FF5F82B00021DDE904304C
:103D0000020DDDF840B0034318D044F61050A2F283
:103D1000FF3242431514119801281FD0A5EB0B0068
:103D2000401C5FEA000A4FF000064E4FDFF8389162
:103D3000B046504615D5CAF1000413E0119801248D
:103D40004AA3012801D16FEA0B010298119AC0E938
:103D50000031C0E9024206B0BDE8F09FCBF100009F
:103D6000DFE704460021404A491842EB0450CDE900
:103D7000001012E0E00707D032463B464046494675
:103D8000FCF771FB8046894632463B461046194691
:103D9000FCF769FB06460F466410002CEAD1DDE90A
:103DA0000401DDE90023BAF1000F06DAFCF75BFB42
:103DB00042464B46FCF757FB05E0FCF7C6FB424684
:103DC0004B46FCF7C2FB04460E460022284BFCF78C
:103DD000A9FC03D84FF0FF30014607E00022254B35
:103DE00020463146FCF798FAFCF724FE102409E03F
:103DF000002C0ADB0A220023FCF7F2FC039B303282
:103E00001A55641E50EA0102F2D1641C039AC4F1EF
:103E100011031444119A012A03D0012208430DD141
:103E20000AE0084304D000204FF0110B119072E714
:103E3000A3EB0B056D1E0DE05B4504DD4FF00002AA
:103E400005F1010504E003DA4FF00002A5F10105D8
:103E5000002AECD002981199C0E90231C0E900456E
:103E600079E70000000014400000F03F300000003F
:103E70000000F0430000E03F2DE9FF4F95B09A4667
:103E8000884606460025EEE1252877D100242746FE
:103E9000F94A0121039400E0044316F8013F203B56
:103EA00001FA03F01042F7D130782A2811D06FF0D0
:103EB0002F033078A0F13002092A16D8039A44F073
:103EC000020402EB820203EB42021044761C0390D0
:103ED000EFE758F8042B0392002A03DA504244F427
:103EE0000054039044F00204761C30782E2816D13A
:103EF00016F8010F44F004042A280DD06FF02F02A9
:103F00003078A0F13003092B09D807EB870302EBC7
:103F10004303C718761CF3E758F8047B761C307807
:103F20006C280FD006DC4C2817D068280DD06A28E2
:103F300014D104E0742810D07A280FD10DE044F495
:103F400000140AE044F4801401E044F44014727850
:103F5000824202D104F58014761C761C30786628E3
:103F60000BD013DC582877D009DC002875D0452801
:103F7000F6D04628F4D047281AD193E118E06328F8
:103F800035D0642879D0652812D18BE1702873D0A0
:103F900008DC6728F1D069286FD06E280DD06F2813
:103FA00006D1ACE073282CD0752874D0782853D073
:103FB0005246179990476D1C54E1C4F302500228F1
:103FC00009D003280DD0D8F8001004280DD00D60BA
:103FD00008F1040846E1D8F80010EA17C1E90052D8
:103FE000F6E7D8F800100D80F2E70D70F0E718F84A
:103FF000041B8DF8001000208DF80100EB46012015
:1040000003E058F804BB4FF0FF3061074FF00001A8
:1040100002D40DE009F101018946B9420FDA814568
:10402000F8DB1BF809100029F4D108E009F10101BF
:1040300089468142FADB1BF809100029F6D1039862
:104040005346A0EB090721463846179A00F080FA3C
:10405000284400EB090507E044E008E10DE01BF807
:10406000010B524617999047B9F10109F7D253460F
:1040700021463846179AF2E039E00A21C4F3025289
:104080004FF0000B0091022A06D058F8040BC1171C
:10409000032A09D00AE023E008F1070020F0070214
:1040A000F2E80201904605E000B2C117042A01D1EE
:1040B00040B2C117002906DA0A460021404261EBEE
:1040C00002012D2202E0220504D52B228DF80420C6
:1040D000012203E0E20701D02022F7E7914657E0F2
:1040E0000A2100E010214FF0000B00910BE010219D
:1040F0004FF0000B44F004040827009103E008206F
:104100004FF0000B0090C4F30252022A05D058F879
:10411000040B0021032A08D008E008F1070020F072
:104120000702F2E80201904603E080B2042A00D1BF
:10413000C0B24FF0000922072AD53278702A07D082
:10414000DDF800C08CF0100C5CEA0B0C05D00EE022
:1041500040228DF80420012208E050EA010306D035
:1041600030238DF804308DF8052002229146009B03
:1041700083F0080353EA0B030AD150EA010201D18C
:10418000620705D530228DF804204FF001097F1E0B
:104190003278582A04D039A20C920CAA02920BE071
:1041A0003BA2F9E75B46009AFCF71AFB0C9B9B5C71
:1041B000029A521E0292137050EA0102F2D1029842
:1041C00004A9081A00F1200B600702D524F48034FA
:1041D00000E001275F4502DDA7EB0B0000E00020B7
:1041E00000EB0B01009003984944401A0390E00350
:1041F00006D453462146179A039800F0A9F90544BE
:10420000002706E001A85246C05D179990476D1C33
:104210007F1C4F45F6DBE0030CD553462146179A29
:10422000039800F095F9054404E0302052461799B0
:1042300090476D1C0099481E00900029F5DC08E0AD
:104240000298029952460078491C029117999047AA
:104250006D1CBBF10001ABF1010BF1DC5BE100F087
:1042600065F90544761C307800287FF40DAE19B04E
:104270002846BDE8F08F00000928010030313233B4
:104280003435363738396162636465660000000092
:10429000303132333435363738394142434445467C
:1042A00000000000600700D4062708F1070020F096
:1042B0000700F0E80223804603F0004C5FEA0C00A0
:1042C00001D097A009E0200501D596A005E0E00700
:1042D00001D095A001E0AFF24C001390307823F0AC
:1042E000004365280CD006DC452809D046281DD09F
:1042F00047287FD13BE0662818D067287AD136E07E
:104300000021112F01DB112000E0781CCDE9000114
:1043100004A90CA8FFF7EEFCDDE90D010C9A4FF0A3
:10432000000B07F10109109200914EE04FF00040A0
:104330000097CDE9011004A90CA8FFF7DBFCDDE92B
:104340000D020C9B0F994FF0000B914610930092B9
:1043500011B9791C00EB0109B7EB090003D4C0F1D6
:10436000FF3B07F10109A9EB0700019042E0012F93
:1043700000DA01270021112F01DD112000E038466D
:10438000CDE9000104A90CA8FFF7B4FCDDE90D019B
:104390000C9A00914FF0000BB946109221070FD4F0
:1043A000009A4A4503DA914601E0A9F10109B9F101
:1043B000010F05DD109AA9F10101515C3029F4D0FB
:1043C000B84202DA10F1040F03DA0121CDE901103D
:1043D00010E0002803DC8344A9EB000102E0411C4B
:1043E000494500DD8946A0EB0B00401C01904FF0D1
:1043F00000400290200705D40198484502DB4FF0A9
:10440000FF30019000208DF84B0002980DF14B0712
:10441000B0F1004F25D002200C902B200D90029877
:1044200000280CDA404202902D200D9007E00A216E
:104430000298FCF7BFF93031029007F8011D0C9982
:10444000481E0C900029F2DC02980028EFD1791E5A
:104450000D980870307800F0200040F0450007F813
:10446000020D11A8C01BC01D02901398007800B166
:10447000012000EB0901019801EBE0710298014471
:104480000398401A401E0390E00306D45346214689
:10449000179A039800F05CF805441398007818B157
:1044A0005246179990476D1CE00323D55346214689
:1044B000179A039800F04CF805441BE0BBF1000F7D
:1044C00007DB0098584504DD1098179910F80B0089
:1044D00001E0179930205246904701980BF1010BEB
:1044E000401E05F10105019004D12E205246179976
:1044F00090476D1CB9F10001A9F10109DEDC05E06E
:1045000017F8010B5246179990476D1C0299481EE7
:1045100002900029F4DC53462146179A03989EE640
:104520002D0000002B000000200000002DE9F041CC
:10453000044600251E461746880404D405E0394683
:104540002020B0476D1C641EF9D52846BDE8F081D7
:104550002DE9F041044600251E469046C80301D5CA
:10456000302700E02027880404D505E0414638467E
:10457000B0476D1C641EF9D52846BDE8F0810A6875
:10458000531C0B60107070472DE9F041FEF758F88E
:104590005449087008460078012816D1524800781E
:1045A00030B1012807D0022808D003280CD108E038
:1045B00000F0ECF808E000F04FF905E000F078F9C1
:1045C00002E000F0E3F800BF00BF46480078022890
:1045D00035D145480078032817D144480068FCF7D6
:1045E00076F804460022424BFCF784F80DD83F4889
:1045F0000068FCF76CF8064600223E4BFBF78CFE89
:104600000446FCF7A7F839490860374800780228C3
:1046100008D1394800683B2804D837480068401C56
:104620003549086030480078012808D133480078BF
:1046300028B90423324A01210846FEF7B9F829486F
:104640000078032835D128480078032817D1274857
:104650000068FCF73CF8044600222A4BFCF762F89D
:104660000DD822480068FCF732F806460022214B9C
:10467000FBF7F3FE0446FCF76DF81C4908601A4886
:104680000078022808D11C480068152804D31A486D
:104690000068401E1849086013480078012808D1B6
:1046A0001648007828B90423154A01210020FEF796
:1046B0007FF80C480078042812D10B4800780128B4
:1046C0000ED10E48007810B1012808D103E0012076
:1046D0000A49087003E000200849087000BF00BFC5
:1046E000BDE8F08125000020180000201C000020FB
:1046F000004041400000E03F200000202400002056
:104700000000B4420080344010B504A218211020EB
:10471000FEF740FDFEF7B2FE10BD0000CAE4D2BABB
:10472000BCE0BFD8CFB5CDB30000000038B50DE078
:10473000FDF70CFF044608200523224610210090B7
:104740002E20FEF75DFEFEF799FE03E0024800789A
:104750000128EDD000BF38BD1800002008B50BE0DF
:104760000820052300900748202102681020FEF74A
:1047700047FEFEF783FE03E0034800780228EFD0EF
:1047800000BF08BD20000020180000201CB5FEF767
:10479000ADFB20A200210846FEF7FCFC20A2102160
:1047A0000020FEF7F7FC20A210215A20FEF7F2FCB1
:1047B00008232F2210216A20FEF7C2FC1BA2102121
:1047C0007020FEF7E7FC002019A3082210210090BA
:1047D0002E20FEF78AFC18A220210020FEF7DAFC2A
:1047E00017A220215A20FEF7D5FC0021009115A325
:1047F0000822019120212E20FEF777FC13A2302100
:104800000020FEF7C7FCFEF739FE012011490870B1
:104810001CBD0000B9A4D7F7D7B4CCACA3BA000034
:10482000B5CECBD9A3BA0000B5CE0000B7D60000F4
:104830002530346400000000CEC2B6C8A3BA000020
:10484000A1E600002530342E31660000D2A9D2BA8C
:10485000A3BA00001800002010B5FEF747FB0DA218
:1048600010210846FEF796FC0EA220214020FEF7FC
:1048700091FC08232F2220215020FEF761FC0AA280
:1048800020216020FEF786FCFEF7F8FD0220074994
:10489000087010BDC4BFB1EAB5CECBD9C9E8D6C344
:1048A00000000000B5CE0000B7D6000018000020C0
:1048B00010B5FEF71BFB08A210210846FEF76AFCA4
:1048C00009A220214020FEF765FCFEF7D7FD03205A
:1048D0000649087010BD0000C4BFB1EACEC2B6C818
:1048E000C9E8D6C300000000A1E6000018000020BF
:1048F00010B513480078012820D11248007860B91B
:1049000010231A4600215020FEF704FB0EA20021BE
:104910005020FEF73FFCFEF7B1FD0A480078012861
:104920000CD110231A4600215020FEF7F3FA07A2FB
:1049300000215020FEF72EFCFEF7A0FD10BD000068
:104940001800002024000020B9D80000BFAA0000F1
:10495000FCF770FCFEF73DFEFCF7CEF9FEF71EF902
:10496000FEF7E4F9FEF718FAFEF732FAFEF7A8F9B7
:10497000FEF764FBFDF7F8FDFDF740FFFFF7C4FE0F
:1049800017E0FFF701FEFFF7E9FE00F05FF8FFF721
:10499000AFFF0848007801280BD100F077F8FFF747
:1049A000C5FEFFF7F1FD00F09FF8FEF7DFFDFEF713
:1049B0002DFAE6E7240000202DE9F04D07460E46CB
:1049C000FBF7F4FF04460D463A463346FBF748FD35
:1049D000DFF86CA0DFF86CB01B4B0746884616F07A
:1049E000004F4FF000020AD0FBF784FE0AD90022E4
:1049F0005B4638464146FBF795FE1BD212E0FBF7BB
:104A000079FE08D20022534620462946FBF725FDB1
:104A100004460D460EE000225B4638464146FBF751
:104A200081FE07D80022534620462946FBF774FC36
:104A300004460D463146204665F31E01BDE8F08D63
:104A40000000F03F0000E03F0000E0BF3EB513E093
:104A50000C480068FBF73BFE04460B46082001218A
:104A60000222CDE900210290224620211020FEF7EB
:104A7000DFFBFEF703FD03E0034800780328E7D0DF
:104A800000BF3EBD1C00002018000020FEB5FCF752
:104A90003DF80446FBF7C8FD1049086017E01049CF
:104AA0000E480068FBF7FAFB0646FBF710FE0446CB
:104AB0000B46082001210222CDE900210290224666
:104AC00020212E20FEF7B4FBFEF7D8FC03E00548BA
:104AD00000780128E3D000BFFEBD000014000020D4
:104AE000000020411800002010B525E0FFF7B0F8C5
:104AF00070B910231A4630215020FEF70BFA11A28C
:104B000030215020FEF746FBFEF7B8FCFBF7BCFF58
:104B1000FFF79EF801280ED110231A4630215020AD
:104B2000FEF7F8F908A230215020FEF733FBFEF71C
:104B3000A5FCFBF7B3FF03E0044800780128D5D0BB
:104B400000BF10BDD3D00000CEDE00001800002052
:104B500002030405060708090A0B0C0D0E0F1010BE
:104B6000010200000000000000000102030406072B
:104B7000080900000000010203040000000000001A
:104B800000000000000000000000000000F800002D
:104B90000000000000333000000000160E00160E6A
:104BA0000000000000000000000040C07840C07815
:104BB0004000043F04043F040400007088FC0830F7
:104BC0000000001820FF211E0000F008F000E0188F
:104BD000000000211C031E211E0000F00888700048
:104BE00000001E21232419272110000000160E00AA
:104BF00000000000000000000000000000E01804B9
:104C00000200000000071820400000020418E00025
:104C100000000040201807000000404080F0804065
:104C200040000202010F01020200000000F000003B
:104C300000000101011F010101000000000000004F
:104C4000000000B070000000000000000000000044
:104C5000000000010101010101010000000000004D
:104C60000000003030000000000000000000806004
:104C70001804006018060100000000E01008081089
:104C8000E000000F102020100F00001010F80000AE
:104C900000000020203F2020000000700808088845
:104CA0007000003028242221300000300888884815
:104CB00030000018202020110E000000C02010F845
:104CC000000000070424243F240000F80888880816
:104CD00008000019212020110E0000E0108888181B
:104CE0000000000F112020110E0000380808C838FD
:104CF00008000000003F00000000007088080888DD
:104D00007000001C222121221C0000E01008081065
:104D1000E0000000312222110F00000000C0C0009E
:104D200000000000003030000000000000C0C000A3
:104D30000000000080B070000000000080402010E3
:104D4000080000010204081020004040404040409C
:104D500040000404040404040400000810204080FF
:104D60000000002010080402010000704808080834
:104D7000F0000000003036010000C030C828E81004
:104D8000E0000718272423140B000000C038E000BF
:104D90000000203C23020227382008F88888887009
:104DA0000000203F202020110E00C0300808080815
:104DB0003800071820202010080008F808080810FC
:104DC000E000203F202020100F0008F88888E80825
:104DD0001000203F20202320180008F88888E808C9
:104DE0001000203F200003000000C03008080838F1
:104DF000000007182020221E020008F80800000802
:104E0000F808203F210101213F20000808F8080888
:104E100000000020203F2020000000000808F808C3
:104E20000800C08080807F00000008F888C0281833
:104E30000800203F20012638200008F80800000064
:104E40000000203F20202020300008F8F800F8F86B
:104E50000800203F003F003F200008F830C0000855
:104E6000F808203F200007183F00E010080808104D
:104E7000E0000F10202020100F0008F80808080894
:104E8000F000203F210101010000E0100808081097
:104E9000E0000F18242438504F0008F888888888CC
:104EA0007000203F2000030C3020007088080808A4
:104EB00038000038202121221C00180808F80808B2
:104EC00018000000203F2000000008F8080000083B
:104ED000F808001F202020201F000878880000C844
:104EE0003808000007380E010000F80800F8000834
:104EF000F800033C0700073C03000818688080683E
:104F0000180820302C03032C30200838C800C8387B
:104F100008000000203F2000000010080808C838E2
:104F200008002038262120201800000000FE020280
:104F300002000000007F40404000000C30C0000034
:104F40000000000000010638C00000020202FE005E
:104F50000000004040407F000000002010080408CE
:104F60001020000000000000000000000000000011
:104F70000000808080808080808000020408000023
:104F80000000000000000000000000008080808021
:104F900000000019242222223F2008F8008080000F
:104FA0000000003F112020110E00000000808080D2
:104FB0000000000E112020201100000000808088D9
:104FC000F800000E112020103F200000808080801B
:104FD0000000001F222222221300008080F0888817
:104FE00088180020203F2020000000008080808062
:104FF0008000006B94949493600008F80080808097
:105000000000203F210000203F20008098980000F1
:1050100000000020203F2020000000000080989821
:10502000000000C08080807F000008F800008080C1
:105030008000203F24022D302000000808F80000E6
:1050400000000020203F20200000808080808080A1
:105050008000203F20003F20003F008080008080B3
:10506000000000203F2100203F2000008080808041
:105070000000001F202020201F0080800080800072
:10508000000080FFA12020110E0000000080808021
:105090008000000E112020A0FF8080808000808092
:1050A000800020203F2120000100000080808080BF
:1050B00080000033242424241900008080E08080B4
:1050C00000000000001F2020000080800000008001
:1050D0008000001F202020103F2080808000008062
:1050E000808000010E300806010080800080008072
:1050F00080800F300C030C300F0000808000808017
:1051000080000020312E0E31200080808000008041
:10511000808080818E7018060100008080808080F1
:1051200080000021302C2221300000000000807C13
:10513000020200000000003F404000000000FF00AD
:10514000000000000000FF0000000002027C800060
:1051500000000040403F0000000000804040800010
:1051600000800000000000010100000000000000BD
:105170000000002F000000000700070000147F144B
:105180007F1400242A7F2A12002313086462003649
:105190004955225000000007000000001C22410079
:1051A000000041221C000014083E08140008083EBC
:1051B0000808000000A060000008080808080000B7
:1051C00060600000002010080402003E5149453E86
:1051D0000000427F400000426151494600214145A4
:1051E0004B31001814127F10002745454539003C0B
:1051F0004A494930000171090503003649494936D9
:1052000000064949291E00003636000000005636C7
:1052100000000008142241000014141414140000AB
:1052200041221408000201510906003E4955592E39
:10523000007C1211127C007F49494936003E4141F1
:105240004122007F4141221C007F49494941007FA2
:1052500009090901003E4149497A007F0808087F91
:105260000000417F4100002040413F01007F0814C1
:105270002241007F40404040007F020C027F007FBF
:105280000408107F003E4141413E007F09090906A4
:10529000003E4151215E007F0919294600464949D7
:1052A00049310001017F0101003F4040403F001FA4
:1052B0002040201F003F4038403F00631408146323
:1052C00000070870080700615149454300007F410D
:1052D0004100000204081020000041417F0000044A
:1052E000020102040040404040400000010204006E
:1052F000002054545478007F4844443800384444D3
:10530000442000384444487F00385454541800085E
:105310007E0901020018A4A4A47C007F080404787C
:105320000000447D4000004080847D00007F102804
:1053300044000000417F4000007C04180478007C99
:105340000804047800384444443800FC2424241819
:105350000018242418FC007C080404080048545455
:10536000542000043F444020003C4040207C001C6E
:105370002040201C003C4030403C00442810284481
:10538000001CA0A0A07C004464544C440000087F92
:1053900041000000007F00000000417F080000087D
:1053A00004081008A3AC000000000000000000008A
:1053B000000000000000000000583800000000005D
:1053C00000000000000000A1A30000000000000099
:1053D0000000000000000000000000001824241855
:1053E00000000000000000000000C4E30000806036
:1053F000F8074020180F08C8080828180001000006
:10540000FF00100C0340807F0001061800BAC300A3
:105410001010F01F10F000808282E2928A868000D5
:10542000402215081661000040807F000000000047
:10543000CAC000202020FE2020FF202020FF2020A6
:105440002020000000007F40404744444447404043
:10545000400000BDE700000000FE929292FE929292
:1054600092FE0000000008080484621E010001FE94
:10547000020404080800CAE40088681FC80810C8AD
:105480005452D1129408D01000091909FF0500FFE9
:105490001292FF005F807F0000D2BA001060028C81
:1054A0000084E41C05C6BC2424E4040004047E013A
:1054B0000000FF824126182946818000BCE00000E0
:1054C000007E0000FF0040300F0414640400004020
:1054D000407E42427E4242427E42427E404000BF87
:1054E000D800101010FF9020984828090E2848A8CE
:1054F00018000242817F0040404242427E424242C6
:105500004000CFB500000022322AA6A26221110974
:105510008101000000004222130B42827E02020A37
:105520001223460000CDB3002030AC63300088C8A1
:10553000A8998E88A8C8880022672212128040305D
:105540000F00003F40407100B9A4000004040404AF
:105550000404FC040404040404000020202020208F
:1055600020203F2020202020202000D7F70000808E
:1055700060F80740300FF888888888080800010024
:1055800000FF00000000FF08080808080000D7B46A
:105590000000083000FF20202020FF2020222C20A7
:1055A0000004040201FF8040300E010618204080F4
:1055B00000CCAC00000484844424548F142444841C
:1055C00084040000413900003C4040424C4040709F
:1055D00004093100A3BA0000000000000000000030
:1055E000000000000000000000363600000000004F
:1055F00000000000000000BFAA0080828282FE82BC
:1056000082828282FE8282828000008040300F008F
:1056100000000000FF0000000000B9D800000010EA
:1056200011161010F01010141310000000818141A9
:105630004121110D030D11214141818100B5CE00A1
:105640001060028C00E424ACB5E6B4AC24E40000A5
:1056500004047E0100FF001E1213125E807F000012
:10566000CBD900404042CC0004F49494FF9494F4CD
:105670000400000040201F20484442415F41424452
:10568000484000B7D6008040209088868080808384
:105690008C1020408000008040201807004080408F
:1056A0003F0000000000CEC2001060028C0000FE2F
:1056B0009292929292FE00000004047E01407E428B
:1056C000427E427E42427E4000B6C8000000FC247A
:1056D0002424FC252624FC242424040040308F802C
:1056E000844C55252525554C80808000D2A9000486
:1056F000844434048F0484744F444444C4040049F3
:10570000C94D2B29280100020C4080403F0000A118
:10571000E600060909E6F80C040202020202041E71
:105720000000000000071F30204040404040201093
:105730000000D3D00004040484E43C27242424245F
:10574000E40404040004020100FF0909090949896D
:105750007F00000000CEDE000040424242C27E4296
:10576000C242424240400000804020100C03000032
:105770003F40404040700000C4BF000000FE2222B5
:1057800022222222222222FE0000000000FF4242AA
:1057900042424242424242FF000000B1EA00101081
:1057A000D0FF901020222222E22222222000040395
:1057B00000FF00130C0340807F0001061800C9E8B9
:1057C00000404042CC0040A09E8282829EA02020C9
:1057D000000000003F908840432C10284641808004
:1057E00000D6C300001715D55557557D555755D5CB
:1057F000151700004040407F555555555555557F6C
:1058000040404000000000FF010101310909090981
:10581000897101010101FFFF808080808080968175
:10582000808080808080FFFF01818181FD8991A13E
:10583000C1FD81818101FFFF808080809F888482FB
:10584000819F80808080FF00685800080000002051
:1058500028000000D43C00089058000828000020D0
:1058600078090000E43C000800000000000000008F
:10587000100000000100000000127A00000000008B
:10588000000000000000C8412800000000000000E7
:04000005080000ED02
:00000001FF
