:020000040800F2
:10000000284A00209D010008051C00084B19000823
:10001000011C000835020008212300080000000030
:1000200000000000000000000000000005010008C2
:10003000390200080000000049010008311C0008D6
:10004000B7010008B7010008B7010008B7010008B0
:10005000B7010008B7010008B7010008B7010008A0
:10006000B7010008B7010008B7010008B701000890
:10007000B7010008B7010008B7010008B701000880
:10008000B7010008B7010008B7010008B701000870
:10009000B7010008B7010008B7010008B701000860
:1000A000B7010008B7010008B7010008B701000850
:1000B000B7010008A91C0008B7010008B701000833
:1000C000B7010008B7010008B7010008B701000830
:1000D000B701000811230008B7010008B7010008A4
:1000E000B7010008B7010008B7010008DFF810D019
:1000F00000F08EF8004800473D250008AFF300806F
:10010000284A0020224B19680868B0E8F00F80F3F5
:100110000988BFF36F8F4FF0000080F311884EF015
:100120000D0E70470000000006480068006880F36C
:10013000088862B661B6BFF34F8FBFF36F8F00DFE1
:1001400000BF00BF08ED00E0EFF30980BFF36F8F41
:100150000F4B1A6820E9F00F106008B54FF0BF0090
:1001600080F31188BFF34F8FBFF36F8F02F090FEC3
:100170004FF0000080F31188BDE808401968086856
:10018000B0E8F00F80F30988BFF36F8F704700BFAE
:1001900020000020EFF305807047000006488047EC
:1001A00006480047FEE7FEE7FEE7FEE7FEE7FEE75C
:1001B000FEE7FEE7FEE7FEE7A71C0008ED000008EB
:1001C000D2B201E000F8012B491EFBD27047002299
:1001D000F6E710B513460A4604461946FFF7F0FF46
:1001E000204610BD30B50B460146002020220124D8
:1001F00009E021FA02F59D4205D303FA02F5491BF5
:1002000004FA02F52844151EA2F10102F1DC30BD0A
:10021000064C074D06E0E06840F0010394E8070053
:1002200098471034AC42F6D3FFF764FFF832000869
:100230001833000800BFFEE7704772B600BFFEE744
:100240000146002291F82100022808D0042088638A
:1002500000BF002081F8200000BF0120704708681F
:10026000006820F00E000B6818600868006820F035
:1002700001000B68186091F8403001209840CB6B6A
:100280005860012081F8210000BF002081F8200083
:1002900000BF1046E2E7000070B50446002594F860
:1002A0002100022803D00420A063012548E0206833
:1002B000006820F00E00216808602068006820F0C7
:1002C0000100216808601F492068884201D101208F
:1002D00026E01C4914312068884201D110201FE01B
:1002E000184928312068884201D1801518E0154945
:1002F0003C312068884201D1801411E0114950310D
:100300002068884202D14FF4803009E00D49643101
:100310002068884202D14FF4801001E04FF08070D5
:10032000084908394860012084F8210000BF0020F6
:1003300084F8200000BF606B10B12046616B8847D5
:10034000284670BD0800024070B5044600F0B8F9B8
:1003500006462546681C10B104480078054400BFD5
:1003600000F0AEF9801BA842FAD370BD180000203F
:100370002DE9F8470346002294466EE14FF001084C
:1003800008FA02F4D1F8008008EA0400A0427DD106
:10039000DFF8DCA2D1F80480A8EB0A09D0453AD0F6
:1003A00014DCB8F1030F50D009DCB8F1000F31D0E4
:1003B000B8F1010F1CD0B8F1020F49D120E0B8F11B
:1003C000110F18D0B8F1120F42D11EE0B9F5881FF5
:1003D00025D006DCB9F5803F20D0B9F5801F37D194
:1003E0001AE0B9F5001F18D0B9F5041F30D117E095
:1003F000D1F80CC02DE0D1F80C8008F1040C28E0F5
:10040000D1F80C8008F1080C23E0D1F80C8008F139
:100410000C0C1EE000BF00BF00BF00BF00BF00BF4C
:10042000D1F80880B8F1000F02D14FF0040C0BE0B6
:10043000D1F80880B8F1010F03D14FF0080C1C610E
:1004400002E04FF0080C5C6103E04FF0000C00E0AC
:1004500000BF00BFFF2801D8984601E003F104085F
:100460004646FF2802D84FEA820803E0A2F10808B6
:100470004FEA88084746D6F800804FF00F0909FA7E
:1004800007F928EA09080CFA07F900E088E048EAC9
:100490000908C6F80080D1F8048008F08058B8F147
:1004A000805F7DD100BFDFF8CC81D8F8188048F09C
:1004B0000108DFF8C091C9F81880C846D8F818803C
:1004C00008F00108CDF8008000BF00BF4FEAB9383E
:1004D0004FEA920958F829504FEA82784FEA187982
:1004E0004FF00F0808FA09F825EA0805DFF88881B7
:1004F000434502D14FF0000816E0DFF88081434504
:1005000002D14FF001080FE0DFF87481434502D1BA
:100510004FF0020808E0DFF86C81434502D14FF04C
:10052000030801E04FF004084FEA82794FEA197995
:1005300008FA09F848EA0505DFF84C814FEA920904
:1005400048F82950D1F8048008F48018B8F5801FC5
:100550000AD1DFF83881D8F8008048EA0008DFF8CF
:100560002C91C9F8008009E0DFF82081D8F80080DC
:1005700028EA0008DFF81491C9F80080D1F8048057
:1005800008F40018B8F5001F10D1DFF8008108F159
:100590000408D8F8008048EA0008DFF8F09000E08E
:1005A0005AE009F10409C9F800800DE0DFF8DC80A9
:1005B00008F10408D8F8008028EA0008DFF8CC9099
:1005C00009F10409C9F80080D1F8048008F4003862
:1005D000B8F5003F0ED1DFF8B480A8F10408D8F8D0
:1005E000008048EA0008DFF8A490A9F10409C9F8DE
:1005F00000800DE0DFF89480A8F10408D8F80080AE
:1006000028EA0008DFF88490A9F10409C9F80080FD
:10061000D1F8048008F48038B8F5803F0ED1DFF8B7
:100620006C80A8F10808D8F8008048EA0008DFF8D4
:100630005C90A9F10809C9F800800DE0DFF84C8052
:10064000A8F10808D8F8008028EA0008DFF83C90F4
:10065000A9F10809C9F80080521CD1F8008028FAD5
:1006600002F8B8F1000F7FF489AEBDE8F88700000A
:10067000000011100010024000080140000C014071
:10068000001001400014014008000140080401402E
:10069000024693680B400BB1012000E00020704738
:1006A00010B5C26821EA020302EA010443EA0443E6
:1006B000036110BD0AB1016101E00B0403617047E1
:1006C00001480068704700001000002003480068DF
:1006D0000349097808440149086070471000002068
:1006E0001800002010B50848006840F010000649C6
:1006F0000860032000F0DCF8012000F007F800F0AB
:100700005FF8002010BD0000002002402DE9F041FC
:1007100088B004460027B846002600BF2348C069B9
:1007200040F002002149C8610846C06900F002009B
:10073000019000BF00BF02A903A800F093F9069F33
:100740001FB900F0B7F9054602E000F0B3F9450023
:100750001748B5FBF0F0A0F10108164816490860EB
:1007600040F2E7311448C160C0F804800021016103
:100770008160816100F02AFC064696B90E4800F0BF
:1007800059FC06466EB91D2000F044F8102C07D223
:10079000002221461D2000F04DF80848046000E0CA
:1007A0000126304608B0BDE8F0810000001002408C
:1007B00040420F0000040040CC0000201400002044
:1007C00008B500BF1148806940F001000F498861F9
:1007D0000846806900F00100009000BF00BF00BF24
:1007E0000846C06940F08050C8610846C06900F002
:1007F0008050009000BF00BF00BF0549486820F04E
:10080000E06040F00070486000BF08BD001002408A
:100810000000014001460846002809DB00F01F03E4
:1008200001229A4043099B0003F1E023C3F8002111
:1008300000BF70472DE9F05F80460D461646002741
:1008400001F080FD074639462A46334601F007008D
:10085000C0F1070ABAF1040F02D94FF0040A01E00F
:10086000C0F1070AD14600F1040ABAF1070F02D21B
:100870004FF0000A01E0A0F1030AD4464FF0010A4C
:100880000AFA09FAAAF1010A0AEA020A0AFA0CFAB1
:100890004FF0010B0BFA0CFBABF1010B0BEA030B56
:1008A0004AEA0B042146404601F054FDBDE8F09FA2
:1008B00000BF00F00702064B19684FF6FF0319400E
:1008C000044B0B4343EA0221014B196000BF704700
:1008D0000CED00E00000FA0570B504460D460CB9B9
:1008E000012070BD5A48006800F00700A8420ED2EF
:1008F0005748006820F0070028435549086008461B
:10090000006800F00700A84201D00120E9E7207844
:1009100000F0020002281DD1207800F00400042815
:1009200005D14C48406840F4E0604A49486020786E
:1009300000F00800082805D14648406840F460509F
:10094000444948604348406820F0F000A1680843EB
:1009500040494860207800F0010078B360680128C1
:1009600006D13C48006800F4003090B90120B8E797
:100970006068022806D13748006800F0007040B96E
:100980000120AEE73348006800F0020008B90120FA
:10099000A7E73048406820F00300616808432D490C
:1009A0004860FFF78DFE064609E0FFF789FE801BD1
:1009B00041F28831884202D9032092E707E02548B6
:1009C000406800F00C006168B0EB810FEDD1204869
:1009D000006800F00700A8420ED91D48006820F00A
:1009E000070028431A4908600846006800F007001D
:1009F000A84201D0012074E7207800F00400042808
:100A000007D11448406820F4E060E16808431149C8
:100A10004860207800F00800082808D10D48406898
:100A200020F46050216940EAC1000A49486000F0A2
:100A300061F808494968C1F30311074A515CC8408D
:100A40000649086006480068FFF760FE002048E796
:100A50000020024000100240DE3200081C0000208E
:100A6000140000200F2202600D4A526802F00302B7
:100A700042600B4A526802F0F0028260084A5268F3
:100A800002F4E062C260064A526802F46052D20880
:100A90000261044A126802F007020A60704700000F
:100AA000001002400020024001480068704700002A
:100AB0001C00002000B5FFF7F7FF04494968C1F3A7
:100AC0000221034A515CC84000BD000000100240F2
:100AD000EE32000800B5FFF7E7FF04494968C1F3AB
:100AE000C221034A515CC84000BD00000010024012
:100AF000EE32000870B500210022002400230020FF
:100B0000134D696801F00C05F5B1042D02D0082DD4
:100B100019D101E00F4819E00F4DC1F38346AB5DD9
:100B200001F4803555B10A4D6D68C5F340450B4E53
:100B3000725D084D5D43B5FBF2F402E0084D03FB26
:100B400005F4204602E000BF024800BF00BF70BDB0
:100B50000010024000127A00CC320008DC3200089B
:100B600000093D00F8B504460CB90120F8BD207815
:100B700000F00100002878D0F848406800F00C0030
:100B800004280CD0F548406800F00C00082811D16A
:100B9000F248406800F48030B0F5803F0AD1EF4859
:100BA000006800F4003000285FD0606800285CD145
:100BB0000120DBE700BF6068B0F5803F06D1E74861
:100BC000006840F48030E549086028E0606858B962
:100BD000E248006820F48030E04908600846006878
:100BE00020F4802008601AE06068B0F5A02F0BD1D7
:100BF000DA48006840F48020D84908600846006858
:100C000040F4803008600AE0D448006820F4803066
:100C1000D24908600846006820F48020086000BFC0
:100C2000606888B1FFF74CFD054606E0FFF748FD18
:100C3000401B642801D9032098E7C848006800F4E5
:100C400000300028F2D010E0FFF73AFD054606E03C
:100C5000FFF736FD401B642801D9032086E7BF4813
:100C6000006800F400300028F2D1207800F0020083
:100C7000022857D1B948406800F00C0050B1B7487D
:100C8000406800F00C00082818D1B448406800F40F
:100C9000803098B9B148006800F0020020B12069A6
:100CA000012801D0012061E7AC48006820F0F8007D
:100CB000616940EAC100A949086033E02069E8B1F0
:100CC0000120A7490860FFF7FBFC054606E0FFF797
:100CD000F7FC401B022801D9032047E79F48006822
:100CE00000F002000028F2D09C48006820F0F800D4
:100CF000616940EAC1009949086013E00020984901
:100D00000860FFF7DDFC054606E0FFF7D9FC401B55
:100D1000022801D9032029E79048006800F002006A
:100D20000028F2D1207800F0080008282DD1A06911
:100D3000B8B101208B490860FFF7C2FC054606E008
:100D4000FFF7BEFC401B022801D903200EE78348B1
:100D5000406A00F002000028F2D0012000F054FFA9
:100D600013E000207F490860FFF7AAFC054606E073
:100D7000FFF7A6FC401B022801D90320F6E67748BE
:100D8000406A00F002000028F2D1207800F0040050
:100D9000042873D100277148C06900F0805070B9F1
:100DA00000BF6E48C06940F080506C49C861084679
:100DB000C06900F08050009000BF00BF01276A4862
:100DC000006800F48070B0B96748006840F4807033
:100DD00065490860FFF774FC054606E0FFF770FC04
:100DE000401B642801D90320C0E65F48006800F476
:100DF00080700028F2D000BFE068012806D1574873
:100E0000006A40F001005549086227E0E06858B9DF
:100E10005248006A20F00100504908620846006A02
:100E200020F00400086219E0E06805280BD14B4867
:100E3000006A40F00400494908620846006A40F030
:100E4000010008620AE04548006A20F001004349B9
:100E500008620846006A20F00400086200BFE068EB
:100E6000A0B1FFF72DFC054609E0FFF729FC401B68
:100E700041F28831884202D9032077E622E03748E0
:100E8000006A00F002000028EFD012E0FFF718FC23
:100E9000054608E0FFF714FC401B41F28831884208
:100EA00001D9032062E62D48006A00F00200002804
:100EB000F0D1012F05D12948C06920F08050274981
:100EC000C86100BFE069C8B32448406800F00C0066
:100ED000082860D0E069022848D10020204908662F
:100EE000FFF7EEFB054606E0FFF7EAFB401B022892
:100EF00001D903203AE61948006800F00070002884
:100F0000F2D1206AB0F5803F07D11448406820F440
:100F10000030A168084311494860D4E9080108433A
:100F20000E49496821F4741108430C4948600120B6
:100F30000B490866FFF7C4FB054607E03DE0FFF7F5
:100F4000BFFB401B022801D903200FE603480068BD
:100F500000F000700028F2D02FE0000000100240E6
:100F600000004242800442420070004000201449C8
:100F70000866FFF7A5FB054606E0FFF7A1FB401B4F
:100F8000022801D90320F1E50E48006800F0007046
:100F90000028F2D111E0E069012800D1E6E5094816
:100FA000466806F48031206A814204D106F470114B
:100FB000606A814201D00120D8E50020D6E500001A
:100FC00000004242001002407047704710B50446CE
:100FD0000CB9012010BD94F83D0028B9002084F818
:100FE0003C00204600F025F8022084F83D00211D39
:100FF000206800F061FE012084F8460000BF84F8FC
:101000003E0001213F20015540200155412001555E
:1010100000BF00BF012084F8420043200155442056
:1010200001554520015500BF012084F83D000020F6
:10103000D0E77047014691F83D00012801D001201A
:101040007047022081F83D000868C06840F0010048
:101050000B68D860124B086898420BD00868B0F152
:10106000804F07D00F4B0868984203D00E4B08689A
:1010700098420CD10868806800F00702062A0CD05C
:101080000868006840F001000B68186005E0086817
:10109000006840F001000B6818600020D0E70000F5
:1010A000002C0140000400400008004070472DE97A
:1010B000F04104460D461646002700BF94F83C0058
:1010C000012802D10220BDE8F081012084F83C0013
:1010D00000BF96B9EB68D5E90012206800F0B6FEB3
:1010E0002068806920F00C00216888612068806990
:1010F000A96808432168886141E0042E13D1EB6898
:10110000D5E90012206800F0E9FE2068806920F42B
:1011100040602168886120688069A96840EA0120F0
:10112000216888612BE0082E12D1EB68D5E9001206
:10113000206800F0F0FE2068C06920F00C002168F3
:10114000C8612068C069A96808432168C86116E0C1
:101150000C2E13D1EB68D5E90012206800F0F7FEE1
:101160002068C06920F440602168C8612068C069B7
:10117000A96840EA01202168C86100E0012700BF9A
:10118000002084F83C0000BF38469CE72DE9F04180
:1011900004460D4615B994F83E000BE0042D02D12B
:1011A0003F20005D06E0082D02D14020005D01E0F7
:1011B0004120005D074615B994F842000BE0042D6C
:1011C00002D14320005D06E0082D02D14420005DDD
:1011D00001E04520005D8046012F02D1B8F1010FEA
:1011E00002D00120BDE8F0811DB9022084F83E0044
:1011F0000EE0042D03D102213F20015508E0082D07
:1012000003D102214020015502E002214120015575
:101210001DB9022084F842000EE0042D03D1022102
:101220004320015508E0082D03D102214420015537
:1012300002E002214520015501222946206800F0E4
:101240007DFD1249206888420BD02068B0F1804FA4
:1012500007D00F492068884203D00E492068884291
:101260000CD12068806800F00706062E0CD020689C
:10127000006840F001002168086005E0206800680F
:1012800040F00100216808600020ABE7002C01401D
:10129000000400400008004070B504462068C5689E
:1012A0002068066906F00200022819D105F0020044
:1012B000022815D1401F216808610120207720688D
:1012C000806900F0030018B12046FFF7EFFE05E04B
:1012D000204600F097F8204600F095F8002020778F
:1012E00006F00400042819D105F00400042815D1E3
:1012F000C04321680861022020772068806900F4DB
:10130000407018B12046FFF7D1FE05E0204600F0FE
:1013100079F8204600F077F80020207706F00800E2
:10132000082819D105F00800082815D1C043216804
:101330000861042020772068C06900F0030018B11C
:101340002046FFF7B3FE05E0204600F05BF820469C
:1013500000F059F80020207706F01000102819D16D
:1013600005F01000102815D1C0432168086108203D
:1013700020772068C06900F4407018B12046FFF75C
:1013800095FE05E0204600F03DF8204600F03BF8D1
:101390000020207706F0010048B105F0010030B1CF
:1013A0006FF0010021680861204600F02DF806F07A
:1013B0008000802809D105F08000802805D1C04335
:1013C000216808612046FFF7FFFD06F04000402835
:1013D00009D105F04000402805D1C04321680861CB
:1013E000204600F053F806F02000202809D105F02F
:1013F0002000202805D1C043216808612046FFF75E
:10140000E4FD70BD7047704710B50446034920687D
:10141000884201D1FFF75AF910BD000000040040D6
:1014200070B504460D4600BF94F83C00012801D178
:10143000022070BD012084F83C0000BF022084F827
:101440003D002946204600F095FC48B1012084F873
:101450003D0000BF002084F83C0000BF0120E8E709
:101460002068C06820F040002168C8602068C0681B
:1014700020F480402168C860012084F83D0000BF4E
:10148000002084F83C0000BF00BFD2E770477047DF
:10149000704700002DE9F84F044620680568206871
:1014A000C668206847694FF00009CA4605F00F0971
:1014B000B9F1000F0AD105F0200038B106F0200084
:1014C00020B1204600F0B1FDBDE8F88FB9F1000F62
:1014D0007BD007F0010018B906F49070002874D092
:1014E00005F0010030B106F4807018B1606C40F076
:1014F0000100606405F0040030B107F0010018B18C
:10150000606C40F00200606405F0020030B107F04A
:10151000010018B1606C40F00400606405F0080040
:1015200048B106F0200010B907F0010018B1606C56
:1015300040F008006064606C002845D005F0200091
:1015400028B106F0200010B1204600F06EFD2068A2
:101550004069C0F3801A606C00F0080010B9BAF15D
:10156000000F2CD0204600F01AFD2068406900F0E2
:10157000400000B300BF00BF2168143151E8001FD4
:1015800021F040002168143141E80002002AF3D123
:1015900000BFE06B50B17748E16B4863E06BFEF74A
:1015A0007BFE88B1E06B416B88470DE02046FFF77A
:1015B0006FFF09E009E02046FFF76AFF04E02046DC
:1015C000FFF766FF002060647EE7206B012877D17B
:1015D00005F01000002873D006F010000028FAD0A3
:1015E00000BF0020009020680068009020684068DC
:1015F000009000BF00BF2068406900F04000002854
:101600005FD0E06B006840681FFA80F8B8F1000F07
:1016100055D0A08D404552DDA4F82E80E06B806946
:10162000202843D000BF00BF21680C3151E8001FC3
:1016300021F4807021680C3141E80002002AF3D1C6
:1016400000BF00BF00BF2168143151E8001F21F026
:1016500001002168143141E80002002AF3D100BFE3
:1016600000BF00BF2168143151E8001F21F0400085
:101670002168143141E80002002AF3D100BF202084
:1016800084F842000020206300BF00BF21680C31B5
:1016900051E8001F21F0100021680C3141E80002E0
:1016A000002AF3D100BFE06BFEF7CAFD02206063A1
:1016B000A08DE28D801A81B22046FFF7E8FE03E795
:1016C00042E0A08DE18D401A1FFA80F8E08DD0B382
:1016D000B8F1000F37D000BF00BF21680C3151E8CE
:1016E000001F21F4907021680C3141E80002002AAB
:1016F000F3D100BF00BF00BF2168143151E8001FC3
:1017000021F001002168143141E80002002AF3D1E0
:1017100000BF202084F842000020206300BF00BFEB
:1017200021680C3151E8001F21F0100021680C31B4
:1017300041E80002002AF3D100BF02206063414665
:101740002046FFF7A4FEBFE605F0800030B106F0AA
:10175000800018B1204600F065FDB5E605F04000B8
:1017600030B106F0400018B1204600F04EFCABE668
:1017700000BFA9E68B1F000810B504460CB9012074
:1017800010BDA06900B100E000BF94F8410028B985
:10179000002084F84000204600F02AF8242084F835
:1017A00041002068C06820F400502168C8602046CD
:1017B00000F0BAFC2068006920F4904021680861BC
:1017C0002068406920F02A00216848612068C068CC
:1017D00040F400502168C86000206064202084F834
:1017E000410084F842000020606300BFC8E70000A9
:1017F00010B586B004460020029003900490059036
:101800001E492068884236D100BF1D48806940F4D7
:1018100080401B4988610846806900F4804001903F
:1018200000BF00BF00BF0846806940F00400886127
:101830000846806900F00400019000BF00BF481511
:101840000290022003900320059002A90D48FEF7A4
:101850008FFD4FF48060029000200390049002A955
:101860000848FEF785FD002211462520FEF7E2FF1D
:101870002520FEF7CFFF06B010BD00000038014064
:10188000001002400008014070472DE9F84F04465F
:101890000E46174699464FF0000A94F8410020285A
:1018A00050D106B117B90120BDE8F88F002060645F
:1018B000212084F84100FEF703FF8246A784E784D5
:1018C000A068B0F5805F04D1206910B90025B0464A
:1018D00002E035464FF000081EE05346002280210A
:1018E0002046CDF8009000F0CDFC20B1202084F8F7
:1018F00041000320D8E745B9B8F80000C0F308005C
:101900002168486008F1020803E0287821684860EF
:101910006D1CE08C401EE084E08C0028DDD1534635
:10192000002240212046CDF8009000F0ABFC20B111
:10193000202084F841000320B6E7202084F84100ED
:101940000020B1E70220AFE7704700BFFEE70000CC
:1019500004480068416B09B9002070470248B0FB99
:10196000F1F0FAE714010020C027090000B58FB09C
:1019700000BF3148C06940F001002F49C8610846E6
:10198000C06900F00100019000BF00BF00BF084621
:10199000806940F0040088610846806900F0040016
:1019A000019000BF00BF00200B900C900D900E9096
:1019B00001200B9000200C9001200D9003200E9030
:1019C0000BA91E48FEF7D4FC4FF080401C4908606C
:1019D00041F61F4048600021194881604FF6FF71B1
:1019E000C160002101614161FFF7F0FA002007901A
:1019F000089009900A900790012008900020099013
:101A00000F200A90002207A90D48FFF750FB142170
:101A100002A8FEF7DCFB5020039004200290002077
:101A2000049002A90648FFF7FBFC00210448FFF7D9
:101A3000ADFB0FB000BD00000010024000080140E7
:101A40001401002010B500244FF400511A48FEF78D
:101A50001FFE80B110211948FEF71AFE58B14FF44D
:101A600080511648FEF714FE28B14FF480611448E7
:101A7000FEF70EFEE8B90A20FEF766FC4FF40051AF
:101A80000D48FEF705FE00B9012410210B48FEF7B2
:101A9000FFFD00B902244FF480510848FEF7F8FD1D
:101AA00000B903244FF480610548FEF7F1FD00B949
:101AB0000424204610BD0000001001400008014031
:101AC000000C014010B5044621460248FEF7E8FD2F
:101AD00010BD00000008014000B585B00020019055
:101AE00002900390049000BF3348806940F01000DA
:101AF000314988610846806900F01000009000BFFD
:101B000000BF00BF0846806940F020008861084699
:101B1000806900F02000009000BF00BF00BF0846B1
:101B2000806940F0040088610846806900F0040084
:101B3000009000BF00BF00BF0846806940F0080069
:101B400088610846806900F00800009000BF00BF6F
:101B5000012222211948FEF7ADFD4FF400500190FB
:101B6000002002900120039001A91548FEF700FC17
:101B70002220019001200290002003900220049076
:101B800001A90E48FEF7F4FB41F21000019000207D
:101B900002900120039001A90848FEF7E9FB4FF4E9
:101BA00080600190002002900120039001A9054867
:101BB000FEF7DEFB05B000BD00100240000801404A
:101BC00000100140000C014010B50B480B490860A3
:101BD0004FF4E1304860002108488160C160016134
:101BE0000C21416100218161C161FFF7C5FD08B190
:101BF000FEF723FB10BD00000038014084000020E8
:101C000000BFFEE700BFFEE708B508490968C9083C
:101C10004FF47A72B1FBF2F14143009100BF00BF73
:101C200000994A1E00920029F9D108BD1C0000202D
:101C300010B501F0C5F9012801D001F073F910BD0C
:101C400000B58FB0282105A8FEF7C1FA1421684617
:101C5000FEF7BDFA012005900004069000200790D1
:101C60000120099002200C90C1030D914FF4E01166
:101C70000E9105A8FEF776FF08B1FEF7DEFA0F20F9
:101C8000009002200190002002904FF480600390A9
:101C90000020049002216846FEF71EFE08B1FEF700
:101CA000CCFA0FB000BD704710B50248FFF7F4FA48
:101CB00010BD0000CC00002010B502681C4B9842FB
:101CC00008D0B0F1804F05D01A4B984202D01A4B81
:101CD000984203D122F070024B681A43144B984289
:101CE00008D0B0F1804F05D0124B984202D0124B71
:101CF000984203D122F44072CB681A4322F0800349
:101D00004C6943EA040202608B68C3620B68836219
:101D1000074B984201D10B690363012343610369B7
:101D200003F001031BB1036923F00103036110BD3C
:101D3000002C0140000400400008004030B501F0D4
:101D40001F05012404FA05F3046A9C430462046A33
:101D500001F01F0502FA05F52C43046230BD30B5D1
:101D60000C46816821F47F4142EA0325254329433B
:101D7000816030BD2DE9F04705460C464FF0000963
:101D80002868866826F070066068064326F0070615
:101D90002068064328688660606800F00F0100290B
:101DA0003BD10011082838D2DFE800F03334353653
:101DB0000B272D04D4E90313A2682868FFF7CFFF8F
:101DC0002EE02068052802D10120BDE8F0872868B0
:101DD000D0F820802868006A20F001002968086295
:101DE0002868876927F0F007206947EA0017286804
:101DF00087612868C0F8208012E02269A1682868FD
:101E000000F011F80CE02269A168286800F052F88F
:101E100006E000BF00BF00BF02E04FF0010900BFB5
:101E200000BF4846D1E730B50B461446026A056A42
:101E300025F001050562816921F0F00141EA0411F4
:101E400022F00A021A438161026230BD70B50C466D
:101E50001546026A066A26F0010606628169124E7C
:101E6000B04208D0B0F1804F05D0104EB04202D041
:101E70000F4EB04201D1012600E000261EB121F034
:101E80000301294301E041F0010121F0F001F026B6
:101E900006EA0316314322F00A0204F00A0632432E
:101EA0008161026270BD0000002C0140000400400E
:101EB0000008004030B50B461446026A056A25F05A
:101EC00010050562816921F4704141EA043122F074
:101ED000A00242EA03128161026230BD70B50C4675
:101EE0001546026A066A26F010060662816921F428
:101EF000407141EA052121F470414FF4704606EA31
:101F00000336314322F0A002A02606EA041632432B
:101F10008161026270BD70B50C461546026A066AA0
:101F200026F480760662C16921F00301294321F07D
:101F3000F001F02606EA0316314322F400724FF452
:101F4000007606EA04263243C161026270BD70B5B4
:101F50000C461546026A066A26F480560662C16976
:101F600021F4407141EA052121F470414FF470469B
:101F700006EA0336314322F400524FF4005606EAD3
:101F800004363243C161026270BD70B505466C6AA9
:101F90000020E085E0842046FFF77AFA70BD00BF9C
:101FA00000BF02680C3252E8002F22F490710268E0
:101FB0000C3242E80013002BF3D100BF00BF00BF7A
:101FC0000268143252E8002F22F001010268143234
:101FD00042E80013002BF3D100BF016B01290ED1A1
:101FE00000BF00BF02680C3252E8002F22F010013F
:101FF00002680C3242E80013002BF3D100BF20210D
:1020000080F8421000210163704710B50446206833
:10201000C06820F040002168C860202084F841009A
:102020002046FFF791FC002010BDF8B5044694F857
:102030004200222875D1A068B0F5805F0CD12069DC
:1020400050B90025A66A20684068C0F308003080B7
:10205000A06A801CA06215E0A56A0026A068B0F501
:10206000805F03D0A06828B9206918B9206840684B
:10207000287004E02068406800F07F002870A06AA3
:10208000401CA062E08D401E80B2E085002846D151
:102090002068C06820F020002168C8602068C068FF
:1020A00020F480702168C8602068406920F0010039
:1020B00021684861202084F8420000206063206B82
:1020C000012826D10020206300BF00BF21680C3109
:1020D00051E8001F21F0100021680C3141E8000296
:1020E000002AF3D100BF2068006800F0100010281B
:1020F0000AD100BF0020009020680068009020688E
:102100004068009000BF00BFA18D2046FFF7BFF9D7
:1021100002E02046FFF7B8FB0020F8BD01E00020F8
:10212000FBE70220F9E7000070B504462168096961
:1021300021F44051E2681143226811612269A168CB
:102140001143626941EA02052168C96841F20C62E3
:10215000914329432268D1602168496921F4407183
:10216000A2691143226851612D4A2168914202D12E
:10217000FEF7B0FC01E0FEF79DFC00EBC00101EBB7
:10218000001162689200B1FBF2F100EBC00202EBB9
:10219000001263689B00B2FBF3F26423B2FBF3F21C
:1021A00002EBC20303EB0212A1EB8201322202EB2B
:1021B00001116422B1FBF2F101F0F00100EBC00269
:1021C00002EB001263689B00B2FBF3F26423B2FBE4
:1021D000F3F201EB021200EBC00101EB00116368A6
:1021E0009B00B1FBF3F100EBC00303EB0013666847
:1021F000B600B3FBF6F36426B3FBF6F303EBC306BA
:1022000006EB0313A1EB8301322303EB01116423DB
:10221000B1FBF3F101F00F0111442268916070BD30
:1022200000380140014691F84100212828D18868F2
:10223000B0F5805F0BD1086948B90A6A1088C0F30D
:1022400008000B685860086A801C086205E00B6A89
:10225000581C086218780B685860C88C401E80B201
:10226000C88458B90868C06820F080000B68D8603E
:102270000868C06840F040000B68D86000207047D4
:102280000220FCE72DE9F84304460D461746984620
:10229000089E31E0701C70B3FEF712FAA0EB080044
:1022A000B04200D816B90320BDE8F8832068C068A2
:1022B00000F00400F8B1802D1ED0402D1CD0206805
:1022C0000068C0F3C000B0B100BF002000902068DB
:1022D0000068009020684068009000BF00BF204662
:1022E000FFF75DFE0820606400BF002084F8400016
:1022F00000BF0120D8E7FFE7206800682840A84217
:1023000001D1012000E00020B842C3D00020CBE77B
:1023100010B50248FFF7BEF810BD00008400002091
:1023200000BFFEE70FB4054B10B503A9044A02989D
:1023300000F034F810BC5DF814FB0000F124000834
:102340008000002002480068C0F3022070470000AF
:102350000CED00E010B5002804DB0A07130E054A57
:10236000135406E00A07140E034A00F00F031B1F64
:10237000D45410BD00E400E018ED00E002E008C80D
:10238000121F08C1002AFAD170477047002001E0EF
:1023900001C1121F002AFBD1704700002DE9FF4F39
:1023A00089B09B460446002506E025280BD05A46F6
:1023B0000B999047641C6D1C20780028F5D10DB056
:1023C0002846BDE8F08F0027B8460122474900E0C3
:1023D000074314F8013F203B02FA03F00842F7D10B
:1023E00020782E2819D114F8010F47F004072A2865
:1023F0000ED06FF02F022078A0F1300109290CD8FF
:1024000008EB880102EB410100EB0108641CF2E7D4
:102410000A98641C50F8048B0A9020780028CED0CB
:10242000642808D0692806D075281ED05A460B9912
:1024300090476D1C58E00A994FF00A0901C90A91AA
:10244000002802DA40422D2102E0390504D52B2173
:102450008DF82010012103E0F90704D02021F7E7CF
:102460008A4608AE0DE00021FAE70A994FF00A0902
:1024700001C90A91F7E74946FDF7B4FE303106F885
:10248000011D0028F7D1ADEB060000F12009780707
:1024900001D44FF00108C84502DDA8EB090000E0B7
:1024A00000208046002706E008A85A46C05D0B9928
:1024B00090476D1C7F1C5745F6DB04E030205A46E0
:1024C0000B9990476D1CB8F10001A8F10108F5DCEB
:1024D00005E016F8010B5A460B9990476D1CB9F1AF
:1024E0000001A9F10109F4DC641C65E70928010079
:1024F00013B50C464FF47A73012269460248FFF780
:10250000C4F900981CBD0000840000201CB50648DA
:10251000012100238022CDE9001004A1064800F02B
:102520001BFD00F077FC1CBD00000020737461727D
:10253000745F7461736B00008D2A0008FEF7D2F897
:10254000FFF77EFBFFF7C8FAFFF73EFBFFF70EFA37
:10255000FFF7DCFF00BFFEE72DE9F04105460E4620
:102560002648076826480068001D00F031FB50B976
:102570002348006890F82C10012088402149096800
:10258000814320480160681CD8B9D6B11E4948680B
:102590001B49096888601A4982680968CA60184935
:1025A0000968091D8268516015490968091D816023
:1025B000154A134909684A6111460968491C1160A6
:1025C0001AE07C190E4800684460BC4207D20C48EF
:1025D0000168091D0D48006800F01EFB0CE008486A
:1025E0000168091D0A48006800F016FB09480068E8
:1025F000844201D207480460BDE8F0813400002025
:1026000020000020380000201002002028000020B8
:10261000240000205000002010B5044600F022FBEA
:102620002F480068401C2E4908602E48006840B9B9
:102630002C4804600846006801280DD100F016F906
:102640000AE02948006838B926480068C06AE16A8B
:10265000884201D82348046024480068401C23496C
:10266000086094F82C10012088402149096808432B
:102670001F490860E16A01EB81011E4A02EB8101FA
:102680004868A0608268E260211D826851608160B4
:10269000E16A01EB8101174A02EB81026261E16AA2
:1026A00001EB8101134A52F82110491CE26A02EB46
:1026B0008202104B43F8221000F0E6FA0A48006844
:1026C00068B108480068C06AE16A884207D24FF0E2
:1026D000805009490860BFF34F8FBFF36F8F10BD63
:1026E00030000020200000203C0000204C00002092
:1026F000380000205C01002004ED00E010B516E079
:1027000000F0B0FA0C48C068C468201D00F060FA00
:102710000A480068401E0949086009480068401ED0
:102720000749086000F0B0FA204600F00BF80448B2
:1027300000680028E4D110BDFC010020300000201A
:102740002C00002010B50446206B00F0ADFA2046A6
:1027500000F0AAFA10BD000030B54FF488431548C8
:1027600000F007042CB1C01D20F00700114C041B21
:102770001B1B0246104C226000240F4D6C60D018C9
:10278000083820F007000D4C206000240B4D2D6808
:102790006C600A4D2D682C601146441A4C60074C41
:1027A00024680C60064D4C682C60064D4C682C600B
:1027B00030BD000024020020640000206C000020D6
:1027C000740000207000002000BFFFF797FF06484C
:1027D00000680128F9D94FF0805004490860BFF320
:1027E0004F8FBFF36F8FF0E75C01002004ED00E036
:1027F0002DE9FF5F80460E469146DDE90E7A109C7A
:10280000A9F10100216B01EB800B2BF0070B7EB1CE
:10281000002507E0715D04F134004155705D00B999
:1028200002E06D1C102DF5D300BF0021432001559F
:10283000052F00D30427E762201D00F0EAF904F118
:10284000180000F0E6F92461C7F10500A061646298
:1028500041465846039A00F007F92060BAF1000F8C
:1028600001D0CAF80040BDE8FF9F000010B5002469
:1028700007E004EB84010F4A02EB810000F0BCF991
:10288000641C052CF5D30C4800F0B6F90B4800F099
:10289000B3F90B4800F0B0F90A4800F0ADF90A4866
:1028A00000F0AAF90448094908600448084908608A
:1028B00010BD00005C010020C0010020D4010020F8
:1028C000E8010020FC01002010020020240000206C
:1028D0002800002010B50146164800E00068036893
:1028E0008B42FBD30246436813448B4204D14368B6
:1028F0004C682344436001460A464B68134404680D
:10290000A34211D10C4C03682468A34208D04B6841
:102910000468646823444B6003681B680B6005E02F
:10292000054B1B680B6001E003680B60884200D018
:10293000016010BD640000206C00002009480068A0
:10294000006808B9012000E0002020B14FF0FF30FE
:102950000549086005E003480068C068006802494E
:1029600008607047240000205000002000BFBF20F6
:1029700080F31188BFF34F8FBFF36F8F00BF00BF8D
:10298000FEE700002DE9F04705464FF0000900F092
:1029900077FA3048006808B9FFF7DEFE75B105F038
:1029A0000700C0F11008C8F1FF30A84201D2012091
:1029B00000E0002008B9454400E00025012000EBBC
:1029C000E570002841D0002D3FD0234800688542A3
:1029D0003BD8224E3046046801E0264624686068F1
:1029E000A84202D220680028F7D11A480068844221
:1029F0002BD0306800F10809206830606068401B07
:102A0000102807D967196068401B786065603846F0
:102A1000FFF760FF104960680968081A0E490860EE
:102A2000084600680E490968884203D20A480068CF
:102A30000B490860606840F0004060600020206042
:102A400008480068401C0749086000F091FB4846B0
:102A5000BDE8F0876C0000207000002064000020BA
:102A60007400002078000020001F4FF08073036086
:102A7000001F21F001030360001F034B03601438A3
:102A800002602038704700006D2900081CB504461C
:102A900000F0E8F81148022100238022CDE900105F
:102AA0000FA1114800F058FA10480321002380229A
:102AB000CDE900100EA1104800F04EFA0F48042195
:102AC00000238022CDE900100DA10F4800F044FA48
:102AD000002000F035F900F0D7F81CBD04000020FC
:102AE0007461736B310000000D2B0008080000209A
:102AF0007461736B32000000492B00080C00002049
:102B00007461736B33000000712B00080DE007A0A7
:102B1000FFF708FCFEF71CFF0446214607A0FFF75D
:102B200001FC4FF4FA7000F0F1F8F0E77461736B98
:102B300031D4CBD0D02E2E2E0D0A0000B5CECBD95D
:102B4000CEAA25640000000009E005A0FFF7EAFB1B
:102B50002020FEF7B7FF4FF4FA7000F0D7F8F4E743
:102B60007461736B32D4CBD0D02E2E2E0D0A0000A0
:102B7000002418E00CA0FFF7D5FBFEF763FF044626
:102B8000012C0CD10C48006848B10CA0FFF7CAFB1F
:102B90000948006800F0D4F80020074908604FF4A5
:102BA000FA7000F0B3F8E5E77461736B33D4CBD0FF
:102BB000D02E2E2E0D0A000004000020D6B4D0D056
:102BC000C9BEB3FD5461736B312E2E2E2E0D0A003B
:102BD00001460A69D1E901309860D1E901035860E2
:102BE0005068884201D188685060002008611068F0
:102BF000401E10601068704700F1080141604FF0FE
:102C0000FF31816000F10801C160016100210160B4
:102C1000704700210161704710B502460B685C1CCB
:102C20000CB9106907E002F1080000E04068446850
:102C300024689C42FAD944684C604C68A160886062
:102C400041600A611468641C146010BD42684A60E7
:102C500093688B60936859609160086103685B1C9E
:102C60000360704700BFBF2080F31188BFF34F8F10
:102C7000BFF36F8F00BF03480068401C0149086024
:102C8000704700006000002006480068401E0549AB
:102C900008600846006820B9002080F3118800BF52
:102CA00000BF70476000002070B506463546E6B1AB
:102CB000083D2C466068C00FB8B12068A8B96068AC
:102CC00020F00040606000F0DBF8084960680968A7
:102CD0000844064908602046FFF7FCFD04480068E8
:102CE000401C0349086000F043FA70BD70000020EA
:102CF0007C00002000204FF0E0210861886102483C
:102D000048610720086170473F19010070B504460B
:102D1000002544B100F0B4F800212046FFF71CFC68
:102D200000F026FA05463DB94FF08050034908608F
:102D3000BFF34F8FBFF36F8F70BD000004ED00E055
:102D400070B50546FFF78EFF15B92948006800E009
:102D500028460446201DFFF73BFF78B9E06A00EBE8
:102D60008000244951F8200040B994F82C1001202B
:102D700088402149096881431F480160A06A18B151
:102D800004F11800FFF724FF1C480068401C1B4991
:102D9000086017480068844209D1211D1848FFF7D0
:102DA00055FF18480068401C1649086006E01648A0
:102DB0000068401E14490860FFF7C0FDFFF764FF7C
:102DC0000B480068844202D02046FFF7BBFC0F4846
:102DD000006858B106480068844207D14FF080501F
:102DE0000B490860BFF34F8FBFF36F8F70BD0000BA
:102DF000200000205C010020380000204C00002052
:102E0000FC0100202C000020300000203C000020AD
:102E100004ED00E01CB5124800210B468022CDE9EC
:102E2000001010A1114800F097F80446012C14D1AD
:102E300000BFBF2080F31188BFF34F8FBFF36F8FA8
:102E400000BF4FF0FF300A490860012009490860BF
:102E500000200949086000F04BF8084800681CBDD4
:102E60005400002049444C4500000000C9270008D8
:102E7000500000203C0000203400002058000020BA
:102E800002480068401C0149086070475C0000204F
:102E90001248006818B10120114908601DE00020A7
:102EA0000F4908600F480068B0FA80F0C0F11F01B8
:102EB00001EB81020C4B03EB8200426852684260D6
:102EC00000F108024368934202D1426852684260AE
:102ED0004268D268054B1A6000BF70475C00002052
:102EE00044000020380000205C0100202000002069
:102EF00010B50A48006840F47F0008490860084699
:102F0000006840F07F400860FFF7F4FE00200449AD
:102F10000860FDF709F9002010BD000020ED00E079
:102F20006000002010B500BFBF2080F31188BFF300
:102F30004F8FBFF36F8F00BF00F052F818B14FF002
:102F400080500449086000BF002080F3118800BF52
:102F500010BD000004ED00E02DE9FF4F85B0804674
:102F600089461746DDE912ABB800FFF70BFD0646B0
:102F700076B14C20FFF706FD04462CB14C212046CB
:102F8000FDF725F9266304E03046FFF78DFE00E0EB
:102F900000247CB10020CDE900ABCDE902403A46E7
:102FA00049464046089BFFF723FC2046FFF734FBC9
:102FB000012501E04FF0FF35284609B0BDE8F08F4C
:102FC0000549096809B9012005E00449096809B9FA
:102FD000022000E0002070473C0000205C00002040
:102FE0002DE9F04100275748006800287ED1564857
:102FF0000068451C544805608DB95448D0F80080DD
:1030000053480068514908605148C0F80080514851
:103010000068401C4F490860FFF790FC00BF4E4815
:103020000068854276D300BF48480068006808B948
:10303000012000E0002020B14FF0FF304649086039
:1030400067E042480068C068C4686668B54202D25A
:10305000414806605DE06069D4E902128A60D4E903
:1030600002214A60211D42688A4201D1E168416023
:10307000002262610168491E0160A06A98B1A06ADD
:10308000D4E907128A60D4E907214A6004F11801E3
:1030900042688A4201D1216A41600022A26201682D
:1030A000491E016000BF94F82C10012088402B4974
:1030B0000968084329490860E16A01EB8101284A4F
:1030C00002EB81014868A0608268E260211D82688D
:1030D00051608160E16A01EB8101214A02EB8102CA
:1030E0006261E16A01EB81011D4A00E022E052F8D1
:1030F0002110491CE26A02EB8202194B43F82210AC
:103100001849E06A0968C96A88428DD901278BE7A6
:1031100000E000BF13480068C06A00EB800010495F
:1031200051F82000012800D901270F48006800B19C
:10313000012704E00D480068401C0C49086038462F
:10314000BDE8F0815C000020340000202400002055
:1031500028000020480000205000002038000020F7
:103160005C010020200000204400002040000020DE
:1031700070B500240026FFF775FD4B480068401E1F
:10318000494908600846006800287DD14748006822
:10319000002879D05BE04648C068C468A06AD4E9DA
:1031A00007128A60D4E907214A6004F118014268D5
:1031B0008A4201D1216A41600022A2620168491E4F
:1031C00001606069D4E902128A60D4E902214A6090
:1031D000211D42688A4201D1E1684160002262619A
:1031E0000168491E016094F82C1001208840314983
:1031F000096808432F490860E16A01EB81012E4A02
:1032000002EB81014868A0608268E260211D82684B
:1032100051608160E16A01EB8101274A02EB810282
:103220006261E16A01EB8101234A52F82110491CD5
:10323000E26A02EB8202204B43F822101F49E06A47
:103240000968C96A884202D301201D4908601848EC
:10325000006808B9012000E0002000289BD00CB1D4
:10326000FFF76CFB1748056865B100BFFFF7B8FEB4
:1032700010B10120124908606D1E002DF6D100200A
:10328000104908600E4800E009E0006838B10126E6
:1032900030070D490860BFF34F8FBFF36F8FFFF703
:1032A000F3FC304670BD00005C00002030000020C0
:1032B000E8010020380000205C01002020000020F0
:1032C000440000204000002004ED00E0020304055B
:1032D000060708090A0B0C0D0E0F10100102000062
:1032E00000000000000001020304060708090000B6
:1032F0000000010203040000183300080000002051
:10330000840000007C2300089C3300088400002017
:10331000A44900008C230008000000000000000009
:10332000000000000000000000000000100000008D
:103330000100000000127A00000000000000000000
:10334000000000000000000000000000000000007D
:10335000000000000000000000000000000000006D
:10336000000000000000000000000000000000005D
:103370000400000000000000AAAAAAAA00000000A1
:10338000000000000000000000000000000000003D
:0C33900000000000000000000000000031
:04000005080000ED02
:00000001FF
